{
  "contractName": "DecentOF",
  "abi": [
    {
      "anonymous": false,
      "inputs": [
        {
          "indexed": false,
          "internalType": "string",
          "name": "login",
          "type": "string"
        }
      ],
      "name": "Subscribed",
      "type": "event"
    },
    {
      "anonymous": false,
      "inputs": [
        {
          "indexed": false,
          "internalType": "string",
          "name": "login",
          "type": "string"
        }
      ],
      "name": "UnSubscribed",
      "type": "event"
    },
    {
      "constant": true,
      "inputs": [],
      "name": "getTime",
      "outputs": [
        {
          "internalType": "uint256",
          "name": "",
          "type": "uint256"
        }
      ],
      "payable": false,
      "stateMutability": "view",
      "type": "function"
    },
    {
      "constant": true,
      "inputs": [
        {
          "internalType": "string",
          "name": "_input",
          "type": "string"
        }
      ],
      "name": "isUniqueLogin",
      "outputs": [
        {
          "internalType": "bool",
          "name": "",
          "type": "bool"
        }
      ],
      "payable": false,
      "stateMutability": "view",
      "type": "function"
    },
    {
      "constant": true,
      "inputs": [],
      "name": "isRegistrated",
      "outputs": [
        {
          "internalType": "bool",
          "name": "",
          "type": "bool"
        }
      ],
      "payable": false,
      "stateMutability": "view",
      "type": "function"
    },
    {
      "constant": true,
      "inputs": [],
      "name": "getMyCountPost",
      "outputs": [
        {
          "internalType": "uint256",
          "name": "",
          "type": "uint256"
        }
      ],
      "payable": false,
      "stateMutability": "view",
      "type": "function"
    },
    {
      "constant": true,
      "inputs": [
        {
          "internalType": "uint256",
          "name": "_index",
          "type": "uint256"
        }
      ],
      "name": "getMyPostById",
      "outputs": [
        {
          "internalType": "uint8",
          "name": "",
          "type": "uint8"
        },
        {
          "internalType": "bytes32[]",
          "name": "",
          "type": "bytes32[]"
        },
        {
          "internalType": "string",
          "name": "",
          "type": "string"
        },
        {
          "internalType": "uint256",
          "name": "",
          "type": "uint256"
        }
      ],
      "payable": false,
      "stateMutability": "view",
      "type": "function"
    },
    {
      "constant": false,
      "inputs": [
        {
          "internalType": "uint256",
          "name": "_index",
          "type": "uint256"
        }
      ],
      "name": "setVisiblePostById",
      "outputs": [],
      "payable": false,
      "stateMutability": "nonpayable",
      "type": "function"
    },
    {
      "constant": false,
      "inputs": [
        {
          "internalType": "uint256",
          "name": "_index",
          "type": "uint256"
        }
      ],
      "name": "setUnvisiblePostById",
      "outputs": [],
      "payable": false,
      "stateMutability": "nonpayable",
      "type": "function"
    },
    {
      "constant": true,
      "inputs": [],
      "name": "findIdByAddress",
      "outputs": [
        {
          "internalType": "uint256",
          "name": "",
          "type": "uint256"
        }
      ],
      "payable": false,
      "stateMutability": "view",
      "type": "function"
    },
    {
      "constant": false,
      "inputs": [
        {
          "internalType": "string",
          "name": "_login",
          "type": "string"
        },
        {
          "internalType": "bytes32",
          "name": "_avatarHash",
          "type": "bytes32"
        },
        {
          "internalType": "string",
          "name": "_status",
          "type": "string"
        },
        {
          "internalType": "uint256",
          "name": "_priceSubcribe",
          "type": "uint256"
        }
      ],
      "name": "registration",
      "outputs": [],
      "payable": false,
      "stateMutability": "nonpayable",
      "type": "function"
    },
    {
      "constant": false,
      "inputs": [
        {
          "internalType": "string",
          "name": "_description",
          "type": "string"
        },
        {
          "internalType": "uint8",
          "name": "_imageCount",
          "type": "uint8"
        },
        {
          "internalType": "bytes32[]",
          "name": "_hash",
          "type": "bytes32[]"
        }
      ],
      "name": "newPost",
      "outputs": [],
      "payable": false,
      "stateMutability": "nonpayable",
      "type": "function"
    },
    {
      "constant": true,
      "inputs": [],
      "name": "getMyData",
      "outputs": [
        {
          "internalType": "string",
          "name": "",
          "type": "string"
        },
        {
          "internalType": "bytes32",
          "name": "",
          "type": "bytes32"
        },
        {
          "internalType": "string",
          "name": "",
          "type": "string"
        },
        {
          "internalType": "address payable",
          "name": "",
          "type": "address"
        },
        {
          "internalType": "uint256",
          "name": "",
          "type": "uint256"
        }
      ],
      "payable": false,
      "stateMutability": "view",
      "type": "function"
    },
    {
      "constant": false,
      "inputs": [
        {
          "internalType": "string",
          "name": "input",
          "type": "string"
        }
      ],
      "name": "setStatus",
      "outputs": [],
      "payable": false,
      "stateMutability": "nonpayable",
      "type": "function"
    },
    {
      "constant": false,
      "inputs": [
        {
          "internalType": "bytes32",
          "name": "input",
          "type": "bytes32"
        }
      ],
      "name": "setAvatarHash",
      "outputs": [],
      "payable": false,
      "stateMutability": "nonpayable",
      "type": "function"
    },
    {
      "constant": false,
      "inputs": [
        {
          "internalType": "string",
          "name": "input",
          "type": "string"
        }
      ],
      "name": "setLogin",
      "outputs": [],
      "payable": false,
      "stateMutability": "nonpayable",
      "type": "function"
    },
    {
      "constant": true,
      "inputs": [
        {
          "internalType": "uint64",
          "name": "_index",
          "type": "uint64"
        }
      ],
      "name": "getSubscriptions",
      "outputs": [
        {
          "internalType": "string",
          "name": "",
          "type": "string"
        },
        {
          "internalType": "bytes32",
          "name": "",
          "type": "bytes32"
        },
        {
          "internalType": "string",
          "name": "",
          "type": "string"
        },
        {
          "internalType": "uint256",
          "name": "",
          "type": "uint256"
        },
        {
          "internalType": "bool",
          "name": "",
          "type": "bool"
        }
      ],
      "payable": false,
      "stateMutability": "view",
      "type": "function"
    },
    {
      "constant": false,
      "inputs": [],
      "name": "unsubscribe",
      "outputs": [],
      "payable": false,
      "stateMutability": "nonpayable",
      "type": "function"
    },
    {
      "constant": true,
      "inputs": [],
      "name": "getCountSubscriptions",
      "outputs": [
        {
          "internalType": "uint64",
          "name": "",
          "type": "uint64"
        }
      ],
      "payable": false,
      "stateMutability": "view",
      "type": "function"
    },
    {
      "constant": true,
      "inputs": [],
      "name": "checkSubscription",
      "outputs": [
        {
          "internalType": "bool",
          "name": "",
          "type": "bool"
        }
      ],
      "payable": false,
      "stateMutability": "view",
      "type": "function"
    },
    {
      "constant": true,
      "inputs": [],
      "name": "getCountUnsubcribtion",
      "outputs": [
        {
          "internalType": "uint64",
          "name": "",
          "type": "uint64"
        }
      ],
      "payable": false,
      "stateMutability": "view",
      "type": "function"
    },
    {
      "constant": true,
      "inputs": [
        {
          "internalType": "uint64",
          "name": "_number",
          "type": "uint64"
        }
      ],
      "name": "getIdUnsubscriptionByNumber",
      "outputs": [
        {
          "internalType": "uint64",
          "name": "",
          "type": "uint64"
        }
      ],
      "payable": false,
      "stateMutability": "view",
      "type": "function"
    },
    {
      "constant": true,
      "inputs": [
        {
          "internalType": "uint64",
          "name": "_idUser",
          "type": "uint64"
        }
      ],
      "name": "getSubscriptionCountPostByIdUser",
      "outputs": [
        {
          "internalType": "uint256",
          "name": "",
          "type": "uint256"
        }
      ],
      "payable": false,
      "stateMutability": "view",
      "type": "function"
    },
    {
      "constant": true,
      "inputs": [
        {
          "internalType": "uint64",
          "name": "_idUser",
          "type": "uint64"
        },
        {
          "internalType": "uint256",
          "name": "_idPost",
          "type": "uint256"
        }
      ],
      "name": "getSubscriptionPostByIdUser",
      "outputs": [
        {
          "internalType": "uint8",
          "name": "",
          "type": "uint8"
        },
        {
          "internalType": "bytes32[]",
          "name": "",
          "type": "bytes32[]"
        },
        {
          "internalType": "string",
          "name": "",
          "type": "string"
        },
        {
          "internalType": "uint256",
          "name": "",
          "type": "uint256"
        }
      ],
      "payable": false,
      "stateMutability": "view",
      "type": "function"
    },
    {
      "constant": false,
      "inputs": [
        {
          "internalType": "string",
          "name": "_login",
          "type": "string"
        },
        {
          "internalType": "uint8",
          "name": "_count",
          "type": "uint8"
        }
      ],
      "name": "subscribe",
      "outputs": [],
      "payable": true,
      "stateMutability": "payable",
      "type": "function"
    },
    {
      "constant": true,
      "inputs": [],
      "name": "getName",
      "outputs": [
        {
          "internalType": "string",
          "name": "",
          "type": "string"
        }
      ],
      "payable": false,
      "stateMutability": "view",
      "type": "function"
    }
  ],
  "bytecode": "0x60806040526040518060400160405280600881526020017f446563656e744f46000000000000000000000000000000000000000000000000815250600090805190602001906200005192919062000066565b503480156200005f57600080fd5b5062000115565b828054600181600116156101000203166002900490600052602060002090601f016020900481019282601f10620000a957805160ff1916838001178555620000da565b82800160010185558215620000da579182015b82811115620000d9578251825591602001919060010190620000bc565b5b509050620000e99190620000ed565b5090565b6200011291905b808211156200010e576000816000905550600101620000f4565b5090565b90565b6139eb80620001256000396000f3fe60806040526004361061014b5760003560e01c80638b55ca2d116100b6578063d0ce47121161006f578063d0ce471214610486578063d9c8a38b146104b1578063e1942bac146104e0578063f6eb619c14610521578063fcae448414610561578063ffa92d29146105785761014b565b80638b55ca2d1461036357806392faec011461038c578063936b6f78146103cc57806397bb2d4d146104095780639aeff4bd14610434578063c605f1161461045d5761014b565b80635aedf9ab116101085780635aedf9ab146102605780636895b2901461028b5780636e2e9c18146102a75780637d2211d6146102d25780638374c60b146102fb578063850171f2146103385761014b565b806302edf6ad1461015057806314ac3d9c1461017b57806317d7de7c146101b85780631e1f42dc146101e3578063278759cd1461020c578063557ed1ba14610235575b600080fd5b34801561015c57600080fd5b506101656105a1565b6040516101729190613712565b60405180910390f35b34801561018757600080fd5b506101a2600480360361019d9190810190612cdb565b61060d565b6040516101af919061372d565b60405180910390f35b3480156101c457600080fd5b506101cd610780565b6040516101da919061340c565b60405180910390f35b3480156101ef57600080fd5b5061020a60048036036102059190810190612cb2565b610822565b005b34801561021857600080fd5b50610233600480360361022e9190810190612b0b565b610913565b005b34801561024157600080fd5b5061024a6109d9565b6040516102579190613712565b60405180910390f35b34801561026c57600080fd5b506102756109e6565b604051610282919061372d565b60405180910390f35b6102a560048036036102a09190810190612bdf565b610a66565b005b3480156102b357600080fd5b506102bc610e70565b6040516102c991906133f1565b60405180910390f35b3480156102de57600080fd5b506102f960048036036102f49190810190612b0b565b610f79565b005b34801561030757600080fd5b50610322600480360361031d9190810190612b0b565b610ff5565b60405161032f91906133f1565b60405180910390f35b34801561034457600080fd5b5061034d611092565b60405161035a9190613712565b60405180910390f35b34801561036f57600080fd5b5061038a60048036036103859190810190612cb2565b611183565b005b34801561039857600080fd5b506103b360048036036103ae9190810190612d04565b611274565b6040516103c39493929190613748565b60405180910390f35b3480156103d857600080fd5b506103f360048036036103ee9190810190612cdb565b611816565b6040516104009190613712565b60405180910390f35b34801561041557600080fd5b5061041e6118c8565b60405161042b919061372d565b60405180910390f35b34801561044057600080fd5b5061045b60048036036104569190810190612c33565b6119d3565b005b34801561046957600080fd5b50610484600480360361047f9190810190612b4c565b611bd1565b005b34801561049257600080fd5b5061049b611da4565b6040516104a891906133f1565b60405180910390f35b3480156104bd57600080fd5b506104c6611e40565b6040516104d795949392919061342e565b60405180910390f35b3480156104ec57600080fd5b5061050760048036036105029190810190612cdb565b612047565b60405161051895949392919061348f565b60405180910390f35b34801561052d57600080fd5b5061054860048036036105439190810190612cb2565b612433565b6040516105589493929190613748565b60405180910390f35b34801561056d57600080fd5b506105766125f8565b005b34801561058457600080fd5b5061059f600480360361059a9190810190612ae2565b612789565b005b60006105ab611da4565b6105ea576040517f08c379a00000000000000000000000000000000000000000000000000000000081526004016105e1906136d2565b60405180910390fd5b600160006105f6611092565b815260200190815260200160002060000154905090565b6000610617611da4565b610656576040517f08c379a000000000000000000000000000000000000000000000000000000000815260040161064d906136d2565b60405180910390fd5b6000610660611092565b9050600080905060008090505b6001600084815260200190815260200160002060070160149054906101000a900467ffffffffffffffff1667ffffffffffffffff168167ffffffffffffffff161015610736576001600084815260200190815260200160002060040160008267ffffffffffffffff1667ffffffffffffffff16815260200190815260200160002060010154421115610729578167ffffffffffffffff168567ffffffffffffffff1614156107205780935050505061077b565b81806001019250505b808060010191505061066d565b506001610778576040517f08c379a000000000000000000000000000000000000000000000000000000000815260040161076f906135f2565b60405180910390fd5b50505b919050565b606060008054600181600116156101000203166002900480601f0160208091040260200160405190810160405280929190818152602001828054600181600116156101000203166002900480156108185780601f106107ed57610100808354040283529160200191610818565b820191906000526020600020905b8154815290600101906020018083116107fb57829003601f168201915b5050505050905090565b61082a611da4565b610869576040517f08c379a0000000000000000000000000000000000000000000000000000000008152600401610860906136d2565b60405180910390fd5b6000610873611092565b9050816001600083815260200190815260200160002060000154116108cd576040517f08c379a00000000000000000000000000000000000000000000000000000000081526004016108c490613572565b60405180910390fd5b6001806000838152602001908152602001600020600301600084815260200190815260200160002060030160016101000a81548160ff0219169083151502179055505050565b61091b611da4565b61095a576040517f08c379a0000000000000000000000000000000000000000000000000000000008152600401610951906136d2565b60405180910390fd5b8061096481610ff5565b6109a3576040517f08c379a000000000000000000000000000000000000000000000000000000000815260040161099a90613652565b60405180910390fd5b81600160006109b0611092565b815260200190815260200160002060050190805190602001906109d49291906128a0565b505050565b6000804290508091505090565b60006109f0611da4565b610a2f576040517f08c379a0000000000000000000000000000000000000000000000000000000008152600401610a26906136d2565b60405180910390fd5b60016000610a3b611092565b815260200190815260200160002060070160149054906101000a900467ffffffffffffffff16905090565b610a6e611da4565b610aad576040517f08c379a0000000000000000000000000000000000000000000000000000000008152600401610aa4906136d2565b60405180910390fd5b81610ab781610ff5565b15610af7576040517f08c379a0000000000000000000000000000000000000000000000000000000008152600401610aee906135d2565b60405180910390fd5b60008260ff1611610b3d576040517f08c379a0000000000000000000000000000000000000000000000000000000008152600401610b3490613612565b60405180910390fd5b8160ff1660016000610b4e866127f5565b81526020019081526020016000206001015402341015610ba3576040517f08c379a0000000000000000000000000000000000000000000000000000000008152600401610b9a90613632565b60405180910390fd5b6000610bad611092565b90506000610bba856127f5565b905081811415610bff576040517f08c379a0000000000000000000000000000000000000000000000000000000008152600401610bf690613692565b60405180910390fd5b806001600084815260200190815260200160002060040160006001600086815260200190815260200160002060070160149054906101000a900467ffffffffffffffff1667ffffffffffffffff1667ffffffffffffffff16815260200190815260200160002060000181905550600180600084815260200190815260200160002060040160006001600086815260200190815260200160002060070160149054906101000a900467ffffffffffffffff1667ffffffffffffffff1667ffffffffffffffff16815260200190815260200160002060020160006101000a81548160ff0219169083151502179055508360ff1662278d000262ffffff16420160016000848152602001908152602001600020600401600060016000868152602001908152602001600020600701601481819054906101000a900467ffffffffffffffff168092919060010191906101000a81548167ffffffffffffffff021916908367ffffffffffffffff16021790555067ffffffffffffffff1667ffffffffffffffff168152602001908152602001600020600101819055506001600082815260200190815260200160002060070160009054906101000a900473ffffffffffffffffffffffffffffffffffffffff1673ffffffffffffffffffffffffffffffffffffffff166108fc349081150290604051600060405180830381858888f19350505050158015610e13573d6000803e3d6000fd5b507f3a25bf5bebe58dddd506ced2de5e3aecbcf21c77809a24e8705790311b448d0260016000838152602001908152602001600020600501604051610e5891906134f0565b60405180910390a1610e68610e70565b505050505050565b6000610e7a611da4565b610eb9576040517f08c379a0000000000000000000000000000000000000000000000000000000008152600401610eb0906136d2565b60405180910390fd5b6000610ec3611092565b905060008090505b6001600083815260200190815260200160002060070160149054906101000a900467ffffffffffffffff1667ffffffffffffffff168167ffffffffffffffff161015610f6f576001600083815260200190815260200160002060040160008267ffffffffffffffff1667ffffffffffffffff16815260200190815260200160002060010154421115610f6257600092505050610f76565b8080600101915050610ecb565b5060019150505b90565b610f81611da4565b610fc0576040517f08c379a0000000000000000000000000000000000000000000000000000000008152600401610fb7906136d2565b60405180910390fd5b8060016000610fcd611092565b81526020019081526020016000206006019080519060200190610ff19291906128a0565b5050565b600080600090505b600254811015611087576001600082815260200190815260200160002060050160405160200161102d91906134f0565b6040516020818303038152906040528051906020012083604051602001611054919061340c565b60405160208183030381529060405280519060200120141561107a57600091505061108d565b8080600101915050610ffd565b50600190505b919050565b600061109c611da4565b6110db576040517f08c379a00000000000000000000000000000000000000000000000000000000081526004016110d2906136d2565b60405180910390fd5b60008090505b60025481101561116b576001600082815260200190815260200160002060070160009054906101000a900473ffffffffffffffffffffffffffffffffffffffff1673ffffffffffffffffffffffffffffffffffffffff163373ffffffffffffffffffffffffffffffffffffffff16141561115e5780915050611180565b80806001019150506110e1565b506fffffffffffffffffffffffffffffffff90505b90565b61118b611da4565b6111ca576040517f08c379a00000000000000000000000000000000000000000000000000000000081526004016111c1906136d2565b60405180910390fd5b60006111d4611092565b90508160016000838152602001908152602001600020600001541161122e576040517f08c379a000000000000000000000000000000000000000000000000000000000815260040161122590613572565b60405180910390fd5b6001806000838152602001908152602001600020600301600084815260200190815260200160002060030160016101000a81548160ff0219169083151502179055505050565b60006060806000611283611da4565b6112c2576040517f08c379a00000000000000000000000000000000000000000000000000000000081526004016112b9906136d2565b60405180910390fd5b60006112cc611092565b90506001600082815260200190815260200160002060070160149054906101000a900467ffffffffffffffff1667ffffffffffffffff168767ffffffffffffffff161061134e576040517f08c379a0000000000000000000000000000000000000000000000000000000008152600401611345906136b2565b60405180910390fd5b600160006001600084815260200190815260200160002060040160008a67ffffffffffffffff1667ffffffffffffffff1681526020019081526020016000206000015481526020019081526020016000206000015486106113e4576040517f08c379a00000000000000000000000000000000000000000000000000000000081526004016113db906136f2565b60405180910390fd5b600160006001600084815260200190815260200160002060040160008a67ffffffffffffffff1667ffffffffffffffff168152602001908152602001600020600001548152602001908152602001600020600301600087815260200190815260200160002060030160019054906101000a900460ff161561171c576000600160006001600085815260200190815260200160002060040160008b67ffffffffffffffff1667ffffffffffffffff168152602001908152602001600020600001548152602001908152602001600020600301600088815260200190815260200160002060030160009054906101000a900460ff1690506060600160006001600086815260200190815260200160002060040160008c67ffffffffffffffff1667ffffffffffffffff168152602001908152602001600020600001548152602001908152602001600020600301600089815260200190815260200160002060010180548060200260200160405190810160405280929190818152602001828054801561158d57602002820191906000526020600020905b815481526020019060010190808311611579575b505050505090506060600160006001600087815260200190815260200160002060040160008d67ffffffffffffffff1667ffffffffffffffff16815260200190815260200160002060000154815260200190815260200160002060030160008a81526020019081526020016000206002018054600181600116156101000203166002900480601f0160208091040260200160405190810160405280929190818152602001828054600181600116156101000203166002900480156116925780601f1061166757610100808354040283529160200191611692565b820191906000526020600020905b81548152906001019060200180831161167557829003601f168201915b505050505090506000600160006001600088815260200190815260200160002060040160008e67ffffffffffffffff1667ffffffffffffffff16815260200190815260200160002060000154815260200190815260200160002060030160008b8152602001908152602001600020600001549050838383839850985098509850505050505061180d565b6060600160405190808252806020026020018201604052801561174e5781602001602082028038833980820191505090505b50905060606040518060400160405280600b81526020017f706f73742064656c65746500000000000000000000000000000000000000000081525090506000600160006001600087815260200190815260200160002060040160008d67ffffffffffffffff1667ffffffffffffffff16815260200190815260200160002060000154815260200190815260200160002060030160008a815260200190815260200160002060000154905060008383838393509750975097509750505050505b92959194509250565b6000611820611da4565b61185f576040517f08c379a0000000000000000000000000000000000000000000000000000000008152600401611856906136d2565b60405180910390fd5b60006001600060016000611871611092565b815260200190815260200160002060040160008667ffffffffffffffff1667ffffffffffffffff16815260200190815260200160002060000154815260200190815260200160002060000154905080915050919050565b60006118d2611da4565b611911576040517f08c379a0000000000000000000000000000000000000000000000000000000008152600401611908906136d2565b60405180910390fd5b600061191b611092565b9050600080905060008090505b6001600084815260200190815260200160002060070160149054906101000a900467ffffffffffffffff1667ffffffffffffffff168167ffffffffffffffff1610156119ca576001600084815260200190815260200160002060040160008267ffffffffffffffff1667ffffffffffffffff168152602001908152602001600020600101544211156119bd5781806001019250505b8080600101915050611928565b50809250505090565b6119db611da4565b611a1a576040517f08c379a0000000000000000000000000000000000000000000000000000000008152600401611a11906136d2565b60405180910390fd5b80518260ff1614611a60576040517f08c379a0000000000000000000000000000000000000000000000000000000008152600401611a5790613512565b60405180910390fd5b6000611a6a611092565b90506000600160008381526020019081526020016000206003016000600160008581526020019081526020016000206000015481526020019081526020016000209050600160008381526020019081526020016000206000016000815480929190600101919050555084816002019080519060200190611aeb9291906128a0565b5042816000018190555060018160030160016101000a81548160ff021916908315150217905550838160030160006101000a81548160ff021916908360ff1602179055508360ff16604051908082528060200260200182016040528015611b615781602001602082028038833980820191505090505b50816001019080519060200190611b79929190612920565b5060008090505b8460ff16811015611bc957838181518110611b9757fe5b6020026020010151826001018281548110611bae57fe5b90600052602060002001819055508080600101915050611b80565b505050505050565b6000845111611c15576040517f08c379a0000000000000000000000000000000000000000000000000000000008152600401611c0c90613592565b60405180910390fd5b6000831415611c59576040517f08c379a0000000000000000000000000000000000000000000000000000000008152600401611c5090613532565b60405180910390fd5b6000825111611c9d576040517f08c379a0000000000000000000000000000000000000000000000000000000008152600401611c94906135b2565b60405180910390fd5b611ca5611da4565b15611ce5576040517f08c379a0000000000000000000000000000000000000000000000000000000008152600401611cdc90613672565b60405180910390fd5b60006001600060026000815480929190600101919050558152602001908152602001600020905084816005019080519060200190611d249291906128a0565b508381600201819055506000816000018190555082816006019080519060200190611d509291906128a0565b50338160070160006101000a81548173ffffffffffffffffffffffffffffffffffffffff021916908373ffffffffffffffffffffffffffffffffffffffff1602179055508181600101819055505050505050565b600080600090505b600254811015611e37576001600082815260200190815260200160002060070160009054906101000a900473ffffffffffffffffffffffffffffffffffffffff1673ffffffffffffffffffffffffffffffffffffffff163373ffffffffffffffffffffffffffffffffffffffff161415611e2a576001915050611e3d565b8080600101915050611dac565b50600090505b90565b606060006060600080611e51611da4565b611e90576040517f08c379a0000000000000000000000000000000000000000000000000000000008152600401611e87906136d2565b60405180910390fd5b600060016000611e9e611092565b815260200190815260200160002090506060816005018054600181600116156101000203166002900480601f016020809104026020016040519081016040528092919081815260200182805460018160011615610100020316600290048015611f485780601f10611f1d57610100808354040283529160200191611f48565b820191906000526020600020905b815481529060010190602001808311611f2b57829003601f168201915b505050505090506000826002015490506060836006018054600181600116156101000203166002900480601f016020809104026020016040519081016040528092919081815260200182805460018160011615610100020316600290048015611ff25780601f10611fc757610100808354040283529160200191611ff2565b820191906000526020600020905b815481529060010190602001808311611fd557829003601f168201915b5050505050905060008460070160009054906101000a900473ffffffffffffffffffffffffffffffffffffffff16905060008560010154905084848484849a509a509a509a509a505050505050509091929394565b606060006060600080612058611da4565b612097576040517f08c379a000000000000000000000000000000000000000000000000000000000815260040161208e906136d2565b60405180910390fd5b60606000606060006120a7611092565b90506001600082815260200190815260200160002060070160149054906101000a900467ffffffffffffffff1667ffffffffffffffff168a67ffffffffffffffff1610612129576040517f08c379a000000000000000000000000000000000000000000000000000000000815260040161212090613552565b60405180910390fd5b600160006001600084815260200190815260200160002060040160008d67ffffffffffffffff1667ffffffffffffffff1681526020019081526020016000206000015481526020019081526020016000206005018054600181600116156101000203166002900480601f0160208091040260200160405190810160405280929190818152602001828054600181600116156101000203166002900480156122115780601f106121e657610100808354040283529160200191612211565b820191906000526020600020905b8154815290600101906020018083116121f457829003601f168201915b50505050509350600160006001600084815260200190815260200160002060040160008d67ffffffffffffffff1667ffffffffffffffff168152602001908152602001600020600001548152602001908152602001600020600201549250600160006001600084815260200190815260200160002060040160008d67ffffffffffffffff1667ffffffffffffffff1681526020019081526020016000206000015481526020019081526020016000206006018054600181600116156101000203166002900480601f0160208091040260200160405190810160405280929190818152602001828054600181600116156101000203166002900480156123575780601f1061232c57610100808354040283529160200191612357565b820191906000526020600020905b81548152906001019060200180831161233a57829003601f168201915b505050505091505060006001600060016000612371611092565b815260200190815260200160002060040160008d67ffffffffffffffff1667ffffffffffffffff1681526020019081526020016000206000015481526020019081526020016000206001015490506000600160006123cd611092565b815260200190815260200160002060040160008c67ffffffffffffffff1667ffffffffffffffff16815260200190815260200160002060020160009054906101000a900460ff169050848484848499509950995099509950505050505091939590929450565b60006060806000612442611da4565b612481576040517f08c379a0000000000000000000000000000000000000000000000000000000008152600401612478906136d2565b60405180910390fd5b600061248b611092565b9050856001600083815260200190815260200160002060000154116124af57600080fd5b600060016000838152602001908152602001600020600301600088815260200190815260200160002090508060030160009054906101000a900460ff16816001018260020183600001548280548060200260200160405190810160405280929190818152602001828054801561254457602002820191906000526020600020905b815481526020019060010190808311612530575b50505050509250818054600181600116156101000203166002900480601f0160208091040260200160405190810160405280929190818152602001828054600181600116156101000203166002900480156125e05780601f106125b5576101008083540402835291602001916125e0565b820191906000526020600020905b8154815290600101906020018083116125c357829003601f168201915b50505050509150955095509550955050509193509193565b6000612602611092565b905060008090505b6001600083815260200190815260200160002060070160149054906101000a900467ffffffffffffffff1667ffffffffffffffff168167ffffffffffffffff161015612785576001600083815260200190815260200160002060040160008267ffffffffffffffff1667ffffffffffffffff168152602001908152602001600020600101544211156127785760006001600084815260200190815260200160002060040160008367ffffffffffffffff1667ffffffffffffffff16815260200190815260200160002060020160006101000a81548160ff0219169083151502179055507f720e4be6adf903d12792c7c0719ca2db973c6a09e15268385f7601f22d67c0a0600160006001600086815260200190815260200160002060040160008567ffffffffffffffff1667ffffffffffffffff16815260200190815260200160002060000154815260200190815260200160002060050160405161276f91906134f0565b60405180910390a15b808060010191505061260a565b5050565b612791611da4565b6127d0576040517f08c379a00000000000000000000000000000000000000000000000000000000081526004016127c7906136d2565b60405180910390fd5b80600160006127dd611092565b81526020019081526020016000206002018190555050565b600080600090505b6002548110156128865782604051602001612818919061340c565b604051602081830303815290604052805190602001206001600083815260200190815260200160002060050160405160200161285491906134f0565b604051602081830303815290604052805190602001201415612879578091505061289b565b80806001019150506127fd565b506fffffffffffffffffffffffffffffffff90505b919050565b828054600181600116156101000203166002900490600052602060002090601f016020900481019282601f106128e157805160ff191683800117855561290f565b8280016001018555821561290f579182015b8281111561290e5782518255916020019190600101906128f3565b5b50905061291c919061296d565b5090565b82805482825590600052602060002090810192821561295c579160200282015b8281111561295b578251825591602001919060010190612940565b5b5090506129699190612992565b5090565b61298f91905b8082111561298b576000816000905550600101612973565b5090565b90565b6129b491905b808211156129b0576000816000905550600101612998565b5090565b90565b600082601f8301126129c857600080fd5b81356129db6129d6826137c8565b61379b565b91508181835260208401935060208101905083856020840282011115612a0057600080fd5b60005b83811015612a305781612a168882612a3a565b845260208401935060208301925050600181019050612a03565b5050505092915050565b600081359050612a498161394c565b92915050565b600082601f830112612a6057600080fd5b8135612a73612a6e826137f0565b61379b565b91508082526020830160208301858383011115612a8f57600080fd5b612a9a8382846138f9565b50505092915050565b600081359050612ab281613963565b92915050565b600081359050612ac78161397a565b92915050565b600081359050612adc81613991565b92915050565b600060208284031215612af457600080fd5b6000612b0284828501612a3a565b91505092915050565b600060208284031215612b1d57600080fd5b600082013567ffffffffffffffff811115612b3757600080fd5b612b4384828501612a4f565b91505092915050565b60008060008060808587031215612b6257600080fd5b600085013567ffffffffffffffff811115612b7c57600080fd5b612b8887828801612a4f565b9450506020612b9987828801612a3a565b935050604085013567ffffffffffffffff811115612bb657600080fd5b612bc287828801612a4f565b9250506060612bd387828801612aa3565b91505092959194509250565b60008060408385031215612bf257600080fd5b600083013567ffffffffffffffff811115612c0c57600080fd5b612c1885828601612a4f565b9250506020612c2985828601612acd565b9150509250929050565b600080600060608486031215612c4857600080fd5b600084013567ffffffffffffffff811115612c6257600080fd5b612c6e86828701612a4f565b9350506020612c7f86828701612acd565b925050604084013567ffffffffffffffff811115612c9c57600080fd5b612ca8868287016129b7565b9150509250925092565b600060208284031215612cc457600080fd5b6000612cd284828501612aa3565b91505092915050565b600060208284031215612ced57600080fd5b6000612cfb84828501612ab8565b91505092915050565b60008060408385031215612d1757600080fd5b6000612d2585828601612ab8565b9250506020612d3685828601612aa3565b9150509250929050565b6000612d4c8383612dd4565b60208301905092915050565b612d6181613886565b82525050565b6000612d7282613841565b612d7c8185613864565b9350612d878361381c565b8060005b83811015612db8578151612d9f8882612d40565b9750612daa83613857565b925050600181019050612d8b565b5085935050505092915050565b612dce81613898565b82525050565b612ddd816138a4565b82525050565b612dec816138a4565b82525050565b6000612dfd8261384c565b612e078185613875565b9350612e17818560208601613908565b612e208161393b565b840191505092915050565b600081546001811660008114612e485760018114612e6e57612eb2565b607f6002830416612e598187613875565b955060ff198316865260208601935050612eb2565b60028204612e7c8187613875565b9550612e878561382c565b60005b82811015612ea957815481890152600182019150602081019050612e8a565b80880195505050505b505092915050565b6000612ec7602583613875565b91507f5f696d616765436f756e7420646f6e74277420657175616c205f686173682e6c60008301527f656e6774680000000000000000000000000000000000000000000000000000006020830152604082019050919050565b6000612f2d602a83613875565b91507f5f617661746172486173682773206c656e677468206d7573742062652062696760008301527f676572207468616e2030000000000000000000000000000000000000000000006020830152604082019050919050565b6000612f93602e83613875565b91507f696420737562736372697074696f6e20626967676572207468616e20636f756e60008301527f7420737562736372697074696f6e0000000000000000000000000000000000006020830152604082019050919050565b6000612ff9601483613875565b91507f646f6e74206578697374207468697320706f73740000000000000000000000006000830152602082019050919050565b6000613039602583613875565b91507f5f6c6f67696e2773206c656e677468206d75737420626520626967676572207460008301527f68616e20300000000000000000000000000000000000000000000000000000006020830152604082019050919050565b600061309f602683613875565b91507f5f7374617475732773206c656e677468206d757374206265206269676765722060008301527f7468616e203000000000000000000000000000000000000000000000000000006020830152604082019050919050565b6000613105601583613875565b91507f74686973206c6f67696e20646f6e7420657869737400000000000000000000006000830152602082019050919050565b6000613145600b83613875565b91507f626164205f6e756d6265720000000000000000000000000000000000000000006000830152602082019050919050565b6000613185601783613875565b91507f5f636f756e74206d7573742062652062696767657220300000000000000000006000830152602082019050919050565b60006131c5600f83613875565b91507f6e656564206d6f7265206d6f6e657900000000000000000000000000000000006000830152602082019050919050565b6000613205601283613875565b91507f74686973206c6f67696e206973207573656400000000000000000000000000006000830152602082019050919050565b6000613245601583613875565b91507f74686973207573657220697320726567697374657200000000000000000000006000830152602082019050919050565b6000613285602383613875565b91507f737562736372696265206f6e206d7973656c66206973206e6f7420616363657060008301527f74656400000000000000000000000000000000000000000000000000000000006020830152604082019050919050565b60006132eb601083613875565b91507f646f6e27742065786973742075736572000000000000000000000000000000006000830152602082019050919050565b600061332b602683613875565b91507f757365727320686176656e2774206163636f756e74202c706c6561736520726560008301527f67697374657200000000000000000000000000000000000000000000000000006020830152604082019050919050565b6000613391601183613875565b91507f646f6e277420657869737420706f7374200000000000000000000000000000006000830152602082019050919050565b6133cd816138ce565b82525050565b6133dc816138d8565b82525050565b6133eb816138ec565b82525050565b60006020820190506134066000830184612dc5565b92915050565b600060208201905081810360008301526134268184612df2565b905092915050565b600060a08201905081810360008301526134488188612df2565b90506134576020830187612de3565b81810360408301526134698186612df2565b90506134786060830185612d58565b61348560808301846133c4565b9695505050505050565b600060a08201905081810360008301526134a98188612df2565b90506134b86020830187612de3565b81810360408301526134ca8186612df2565b90506134d960608301856133c4565b6134e66080830184612dc5565b9695505050505050565b6000602082019050818103600083015261350a8184612e2b565b905092915050565b6000602082019050818103600083015261352b81612eba565b9050919050565b6000602082019050818103600083015261354b81612f20565b9050919050565b6000602082019050818103600083015261356b81612f86565b9050919050565b6000602082019050818103600083015261358b81612fec565b9050919050565b600060208201905081810360008301526135ab8161302c565b9050919050565b600060208201905081810360008301526135cb81613092565b9050919050565b600060208201905081810360008301526135eb816130f8565b9050919050565b6000602082019050818103600083015261360b81613138565b9050919050565b6000602082019050818103600083015261362b81613178565b9050919050565b6000602082019050818103600083015261364b816131b8565b9050919050565b6000602082019050818103600083015261366b816131f8565b9050919050565b6000602082019050818103600083015261368b81613238565b9050919050565b600060208201905081810360008301526136ab81613278565b9050919050565b600060208201905081810360008301526136cb816132de565b9050919050565b600060208201905081810360008301526136eb8161331e565b9050919050565b6000602082019050818103600083015261370b81613384565b9050919050565b600060208201905061372760008301846133c4565b92915050565b600060208201905061374260008301846133d3565b92915050565b600060808201905061375d60008301876133e2565b818103602083015261376f8186612d67565b905081810360408301526137838185612df2565b905061379260608301846133c4565b95945050505050565b6000604051905081810181811067ffffffffffffffff821117156137be57600080fd5b8060405250919050565b600067ffffffffffffffff8211156137df57600080fd5b602082029050602081019050919050565b600067ffffffffffffffff82111561380757600080fd5b601f19601f8301169050602081019050919050565b6000819050602082019050919050565b60008190508160005260206000209050919050565b600081519050919050565b600081519050919050565b6000602082019050919050565b600082825260208201905092915050565b600082825260208201905092915050565b6000613891826138ae565b9050919050565b60008115159050919050565b6000819050919050565b600073ffffffffffffffffffffffffffffffffffffffff82169050919050565b6000819050919050565b600067ffffffffffffffff82169050919050565b600060ff82169050919050565b82818337600083830152505050565b60005b8381101561392657808201518184015260208101905061390b565b83811115613935576000848401525b50505050565b6000601f19601f8301169050919050565b613955816138a4565b811461396057600080fd5b50565b61396c816138ce565b811461397757600080fd5b50565b613983816138d8565b811461398e57600080fd5b50565b61399a816138ec565b81146139a557600080fd5b5056fea365627a7a72315820d6ea31da6363ce9c4785a249a73b46672a2dd70d2098e24ed5332f1046df935b6c6578706572696d656e74616cf564736f6c63430005100040",
  "source": "pragma solidity 0.5.16;\r\npragma experimental ABIEncoderV2;\r\n\r\n\r\n\r\ncontract DecentOF{\r\n     \r\n    \r\n     string  name=\"DecentOF\";\r\n     struct Post{\r\n        uint256  date;\r\n        bytes32[] hash;\r\n        // bytes32 hash;\r\n        string description;\r\n        uint8 imageCount;\r\n        bool visibility;\r\n    }\r\n    struct Subscribe{\r\n        uint256 id;\r\n        uint256 date;\r\n        bool paid;\r\n    }\r\n    function getTime()public view returns(uint256){\r\n         uint256 chainStartTime =uint256( block.timestamp);\r\n         return chainStartTime;\r\n    }\r\n    struct Account{\r\n        uint256 countPosts;\r\n        uint256 priceSubcribe;\r\n        bytes32 avatarHash;\r\n        mapping(uint256=>Post) posts;\r\n        mapping(uint64=>Subscribe) subscription;\r\n        string login;\r\n        string status;\r\n        address payable author;\r\n        uint64  countsSubscription;\r\n    }\r\n    mapping(uint256=>Account) internal  accounts;\r\n    uint256 internal accountsCount;\r\n    event Subscribed(\r\n        string login\r\n       );\r\n    event UnSubscribed(\r\n        string login\r\n       );\r\n    \r\n    function isUniqueLogin(string memory _input) public view returns(bool){\r\n        for(uint256 i=0;i<accountsCount;i++){\r\n            if(keccak256(abi.encode(_input)) ==keccak256(abi.encode(accounts[i].login))){\r\n                return false;\r\n            }\r\n        }\r\n        return true;\r\n    }\r\n    modifier _isUniqueLogin(string memory input){\r\n        require(isUniqueLogin(input),\"this login is used\");\r\n        _;\r\n    }\r\n    modifier _loginIsUsed(string memory input){\r\n        require(!isUniqueLogin(input),\"this login dont exist\");\r\n        _;\r\n    }\r\n    \r\n    modifier isOwner(address id){\r\n        require(msg.sender==id,\"Caller is not owner\");\r\n        _;\r\n    }\r\n    function isRegistrated() public view returns(bool){\r\n        for(uint256 i=0;i<accountsCount;i++){\r\n            if(msg.sender==accounts[i].author){\r\n                return true;\r\n            }\r\n        }\r\n        return false;\r\n    }\r\n     modifier _isRegistrated(){\r\n         require(isRegistrated(),\"users haven\\'t account ,please register\");\r\n        _;\r\n    }\r\n    function getMyCountPost()\r\n    _isRegistrated public\r\n    view returns(uint256)\r\n    {\r\n        return accounts[findIdByAddress()].countPosts;\r\n    }\r\n    function getMyPostById(uint256 _index)\r\n    _isRegistrated public\r\n    view returns(uint8 ,\r\n        bytes32[] memory,\r\n        string memory,\r\n        uint256 \r\n        )\r\n    {\r\n        uint256 id =findIdByAddress();\r\n        require(accounts[id].countPosts>_index);\r\n        Post storage post =accounts[id].posts[_index];\r\n        return(post.imageCount,post.hash,post.description,post.date);\r\n    }\r\n    \r\n     function setVisiblePostById(uint256 _index)\r\n    _isRegistrated public\r\n    {\r\n        uint256 id =findIdByAddress();\r\n        require(accounts[id].countPosts>_index,\"dont exist this post\");\r\n        accounts[id].posts[_index].visibility=true;\r\n\r\n    }\r\n    \r\n    function setUnvisiblePostById(uint256 _index)\r\n    _isRegistrated public\r\n    {\r\n        uint256 id =findIdByAddress();\r\n        require(accounts[id].countPosts>_index,\"dont exist this post\");\r\n        accounts[id].posts[_index].visibility=true;\r\n\r\n    }\r\n   \r\n   \r\n     function findIdByAddress() \r\n     public _isRegistrated\r\n     view returns(uint256)\r\n     \r\n     {\r\n        for(uint256 i=0;i<accountsCount;i++){\r\n            if(msg.sender==accounts[i].author){\r\n                return i;\r\n            }\r\n        }\r\n        return uint256(0xFFFFFFFFFFFFFFFFFFFFFFFFFFFFFFFF);\r\n    }\r\n    function registration(string memory _login, bytes32 _avatarHash,string memory _status,uint256 _priceSubcribe) \r\n        public  \r\n        {\r\n        require(bytes(_login).length>0,\"_login's length must be bigger than 0\");\r\n        require((_avatarHash)!=\"\",\"_avatarHash's length must be bigger than 0\");\r\n        require(bytes(_status).length>0,\"_status's length must be bigger than 0\");\r\n        require(!isRegistrated(),\"this user is register\");\r\n        \r\n        Account storage c=accounts[accountsCount++];\r\n        c.login=_login;\r\n        c.avatarHash=_avatarHash;\r\n        c.countPosts=0;\r\n        c.status=_status;\r\n        c.author=(msg.sender);\r\n        c.priceSubcribe=_priceSubcribe;\r\n      \r\n    }\r\n    function newPost(string memory _description,uint8 _imageCount,bytes32[] memory   _hash)\r\n    public  _isRegistrated \r\n    {\r\n        \r\n        require(_imageCount==_hash.length,\"_imageCount dont\\'t equal _hash.length\");\r\n        uint256 id=findIdByAddress();\r\n        // console.log(accounts[findIdByAddress()])\r\n       \r\n        Post storage c=accounts[id].posts[accounts[id].countPosts];\r\n        accounts[id].countPosts++;\r\n        c.description =_description;\r\n        c.date=(uint256(block.timestamp));\r\n        c.visibility=true;\r\n        c.imageCount=_imageCount;\r\n       c.hash = new bytes32[](_imageCount);\r\n        // c.hash=_hash;\r\n        for(uint i = 0;i<_imageCount;i++){\r\n            c.hash[i]=_hash[i];\r\n        }\r\n      //  checkSubscription();\r\n    \r\n    }\r\n    \r\n    function getMyData()  _isRegistrated\r\n    public view returns(\r\n        string memory,\r\n       bytes32,\r\n        string memory,\r\n        address payable,\r\n        uint256\r\n        ) \r\n    {\r\n        Account  storage  buf= accounts[findIdByAddress()];\r\n        string memory login=buf.login;\r\n        bytes32 avatarHash=buf.avatarHash;\r\n        string memory status=buf.status;\r\n        address payable author=buf.author;\r\n        uint256 priceSubcribe=buf.priceSubcribe;\r\n        return (login,avatarHash,status,author,priceSubcribe);\r\n    }\r\n    \r\n    function setStatus(string memory input)\r\n    public _isRegistrated\r\n    {\r\n        accounts[findIdByAddress()].status=input;\r\n    }\r\n    function setAvatarHash(bytes32 input)\r\n    public _isRegistrated\r\n    {\r\n        accounts[findIdByAddress()].avatarHash=input;\r\n    }\r\n    function setLogin(string memory input)\r\n    public _isRegistrated _isUniqueLogin(input)\r\n    {\r\n        accounts[findIdByAddress()].login=input;\r\n    }\r\n    \r\n    \r\n    \r\n    function getSubscriptions(uint64 _index)_isRegistrated public \r\n    view returns( string memory,\r\n        bytes32,\r\n        string memory,\r\n       // address payable ,\r\n        uint256 ,\r\n       // uint256,\r\n        bool\r\n        )\r\n    {\r\n        string memory login;\r\n       bytes32 avatarHash;\r\n        string memory status;\r\n        {\r\n        uint256  id=findIdByAddress();\r\n        require(_index<accounts[id].countsSubscription,\r\n        \"id subscription bigger than count subscription\");\r\n        login=accounts[accounts[id].subscription[_index].id].login;\r\n        avatarHash=accounts[accounts[id].subscription[_index].id].avatarHash;\r\n        status=accounts[accounts[id].subscription[_index].id].status;\r\n        }\r\n        // address payable author=accounts[accounts[findIdByAddress()].subscription[_index].id].author;\r\n        uint256 priceSubcribe=accounts[accounts[findIdByAddress()].subscription[_index].id].priceSubcribe;\r\n       // uint256 subscribers=accounts[accounts[findIdByAddress()].subscription[_index].id].subscribers;\r\n        bool paid=accounts[findIdByAddress()].subscription[_index].paid;\r\n        return(login,avatarHash,status,priceSubcribe,paid);\r\n    }\r\n    \r\n    \r\n   /* \r\n    \r\n    function getLoginFilterBySubcribe(uint8 _count, uint256 _subscribe)\r\n    public\r\n    view returns(\r\n    string[] memory\r\n    )\r\n    {\r\n        uint8 j=0;\r\n        string[] memory memoryArray= new string[]( getCountAccountBySubcribe( _subscribe));\r\n        for(uint256 i = 0 ;i<accountsCount;i++){\r\n            if(accounts[i].subscribers>=_subscribe){\r\n                memoryArray[j++]=accounts[i].login;\r\n                if( _count<j ){\r\n                    return memoryArray;\r\n                }\r\n            }\r\n            \r\n        }\r\n        return memoryArray;\r\n    }\r\n  \r\n    function getCountAccountBySubcribe( uint256 _subscribe)\r\n    public\r\n    view returns(uint256)\r\n    {\r\n        uint256 sum=0;\r\n        \r\n        for(uint256 i = 0 ;i<accountsCount;i++){\r\n            if(accounts[i].subscribers>=_subscribe){\r\n                sum++;\r\n            }\r\n        }\r\n        return sum;\r\n    }\r\n    */\r\n    function findIdByLogin(string memory _login)\r\n    internal\r\n    view returns(uint256)\r\n    {\r\n        for(uint256 i =0 ;i<accountsCount;i++){\r\n            if(keccak256(abi.encode(accounts[i].login))==keccak256(abi.encode(_login))){\r\n                return i;\r\n            }\r\n        }\r\n        return uint256(0xFFFFFFFFFFFFFFFFFFFFFFFFFFFFFFFF);\r\n    }\r\n    \r\n    function unsubscribe()\r\n    public\r\n    {\r\n        uint256 id = findIdByAddress();\r\n        for(uint64 i = 0;i< accounts[id].countsSubscription;i++){\r\n            if((uint256(block.timestamp))>accounts[id].subscription[i].date){\r\n                accounts[id].subscription[i].paid=false;\r\n               // accounts[accounts[id].subscription[i].id].subscribers--;\r\n                emit UnSubscribed(accounts[accounts[id].subscription[i].id].login);\r\n            }\r\n        }\r\n    }\r\n    function getCountSubscriptions()\r\n    public _isRegistrated\r\n    view returns(uint64){\r\n        return accounts[findIdByAddress()].countsSubscription;\r\n    }\r\n    function checkSubscription()\r\n    public view _isRegistrated\r\n    returns(bool)\r\n    {\r\n        uint256 id =findIdByAddress();\r\n        for(uint64 i = 0;i< accounts[id].countsSubscription;i++){\r\n            if((uint256(block.timestamp))>accounts[id].subscription[i].date){\r\n                return false;\r\n            }\r\n        }\r\n        return true;\r\n    }\r\n    function getCountUnsubcribtion()\r\n    public view _isRegistrated\r\n    returns(uint64)\r\n    {  \r\n        uint256 id = findIdByAddress();\r\n        uint64 j=0;\r\n        for(uint64 i = 0;i< accounts[id].countsSubscription;i++){\r\n            if((uint256(block.timestamp))>accounts[id].subscription[i].date){\r\n                \r\n                j++;\r\n            }\r\n        }\r\n        return j;\r\n    }\r\n    function getIdUnsubscriptionByNumber(uint64 _number)\r\n    public view _isRegistrated\r\n    returns(uint64)\r\n    {\r\n        uint256 id =findIdByAddress();\r\n        uint64 j=0;\r\n        for(uint64 i = 0;i< accounts[id].countsSubscription;i++){\r\n            if((uint256(block.timestamp))>accounts[id].subscription[i].date){\r\n                if(_number==j)  {\r\n                    return i;\r\n                }\r\n                j++;\r\n            }\r\n        }\r\n       require(true,\"bad _number\");\r\n    }\r\n    function getSubscriptionCountPostByIdUser(uint64 _idUser)\r\n    public _isRegistrated \r\n    view returns(\r\n        uint256\r\n        )\r\n    {\r\n        uint256 count = accounts[accounts[findIdByAddress()].subscription[_idUser].id].countPosts;\r\n        return count;\r\n    }\r\n    \r\n    function getSubscriptionPostByIdUser(uint64 _idUser,uint256 _idPost)\r\n    public _isRegistrated \r\n    view returns(\r\n        uint8 ,\r\n        bytes32[] memory,\r\n        string memory,\r\n        uint256\r\n        )\r\n    {\r\n        \r\n        uint256 id=findIdByAddress();\r\n        require(_idUser<accounts[id].countsSubscription,\"don\\'t exist user\");\r\n        require(_idPost<accounts[accounts[id].subscription[_idUser].id].countPosts,\"don\\'t exist post \");\r\n        if(accounts[accounts[id].subscription[_idUser].id].posts[_idPost].visibility){\r\n        uint8 imageCount = accounts[accounts[id].subscription[_idUser].id].posts[_idPost].imageCount;\r\n        bytes32[] memory hash = accounts[accounts[id].subscription[_idUser].id].posts[_idPost].hash;\r\n        string memory  description = accounts[accounts[id].subscription[_idUser].id].posts[_idPost].description;\r\n        uint256 date = accounts[accounts[id].subscription[_idUser].id].posts[_idPost].date;\r\n        return(imageCount,hash,description,date);\r\n        }else{\r\n            bytes32[] memory hash = new bytes32[](1);\r\n            string memory  description =\"post delete\";\r\n            uint256 date = accounts[accounts[id].subscription[_idUser].id].posts[_idPost].date;\r\n            return(0,hash,description,date);\r\n        }\r\n    }\r\n    function subscribe(string memory _login,uint8 _count)\r\n    public payable _isRegistrated _loginIsUsed(_login)\r\n    {\r\n        \r\n        require(_count>0,\"_count must be bigger 0\");\r\n       \r\n        require((msg.value) >=(accounts[findIdByLogin(_login)].priceSubcribe*uint256(_count) ),\"need more money\");\r\n        uint256 subscriberId =findIdByAddress();\r\n        uint256 id=findIdByLogin(_login);\r\n        \r\n        require(id!=subscriberId,\"subscribe on myself is not accepted\");\r\n        accounts[subscriberId].subscription[accounts[subscriberId].countsSubscription].id=id;\r\n        accounts[subscriberId].subscription[accounts[subscriberId].countsSubscription].paid=true;\r\n        accounts[subscriberId].subscription[accounts[subscriberId].countsSubscription++].date=(uint256(block.timestamp))+30*24*60*60*_count;\r\n     \r\n        //accounts[id].subscribers++;\r\n        accounts[id].author.transfer(msg.value);\r\n        emit Subscribed(accounts[id].login);\r\n        checkSubscription();\r\n    }\r\n    function getName() public view returns(string memory)  {\r\n        return name;\r\n    }\r\n    \r\n    \r\n    // /** We don't want to accept payments without subscription selection */\r\n    // fallback()   external payable {\r\n    //     require(true,\"Plain payments not accepted\");\r\n    // }\r\n    \r\n}",
  "sourcePath": "C:/Users/ilau020203/Desktop/decentonly_fans/contracts/DecentOF.sol",
  "compiler": {
    "name": "solc",
    "version": "0.5.16+commit.9c3226ce.Emscripten.clang"
  },
  "schemaVersion": "3.4.1",
  "updatedAt": "2021-07-24T13:54:43.591Z",
  "networkType": "ethereum",
  "devdoc": {
    "methods": {}
  },
  "userdoc": {
    "methods": {}
  }
}