{
  "contractName": "DecentOF",
  "abi": [
    {
      "anonymous": false,
      "inputs": [
        {
          "indexed": false,
          "internalType": "string",
          "name": "login",
          "type": "string"
        }
      ],
      "name": "Subscribed",
      "type": "event"
    },
    {
      "anonymous": false,
      "inputs": [
        {
          "indexed": false,
          "internalType": "string",
          "name": "login",
          "type": "string"
        }
      ],
      "name": "UnSubscribed",
      "type": "event"
    },
    {
      "constant": true,
      "inputs": [],
      "name": "getTime",
      "outputs": [
        {
          "internalType": "uint256",
          "name": "",
          "type": "uint256"
        }
      ],
      "payable": false,
      "stateMutability": "view",
      "type": "function"
    },
    {
      "constant": true,
      "inputs": [
        {
          "internalType": "string",
          "name": "_input",
          "type": "string"
        }
      ],
      "name": "isUniqueLogin",
      "outputs": [
        {
          "internalType": "bool",
          "name": "",
          "type": "bool"
        }
      ],
      "payable": false,
      "stateMutability": "view",
      "type": "function"
    },
    {
      "constant": true,
      "inputs": [],
      "name": "isRegistrated",
      "outputs": [
        {
          "internalType": "bool",
          "name": "",
          "type": "bool"
        }
      ],
      "payable": false,
      "stateMutability": "view",
      "type": "function"
    },
    {
      "constant": true,
      "inputs": [],
      "name": "getMyCountPost",
      "outputs": [
        {
          "internalType": "uint256",
          "name": "",
          "type": "uint256"
        }
      ],
      "payable": false,
      "stateMutability": "view",
      "type": "function"
    },
    {
      "constant": true,
      "inputs": [
        {
          "internalType": "uint256",
          "name": "_index",
          "type": "uint256"
        }
      ],
      "name": "getMyPostById",
      "outputs": [
        {
          "internalType": "uint8",
          "name": "",
          "type": "uint8"
        },
        {
          "internalType": "bytes32[]",
          "name": "",
          "type": "bytes32[]"
        },
        {
          "internalType": "string",
          "name": "",
          "type": "string"
        },
        {
          "internalType": "uint256",
          "name": "",
          "type": "uint256"
        }
      ],
      "payable": false,
      "stateMutability": "view",
      "type": "function"
    },
    {
      "constant": false,
      "inputs": [
        {
          "internalType": "uint256",
          "name": "_index",
          "type": "uint256"
        }
      ],
      "name": "setVisiblePostById",
      "outputs": [],
      "payable": false,
      "stateMutability": "nonpayable",
      "type": "function"
    },
    {
      "constant": false,
      "inputs": [
        {
          "internalType": "uint256",
          "name": "_index",
          "type": "uint256"
        }
      ],
      "name": "setUnvisiblePostById",
      "outputs": [],
      "payable": false,
      "stateMutability": "nonpayable",
      "type": "function"
    },
    {
      "constant": true,
      "inputs": [],
      "name": "findIdByAddress",
      "outputs": [
        {
          "internalType": "uint256",
          "name": "",
          "type": "uint256"
        }
      ],
      "payable": false,
      "stateMutability": "view",
      "type": "function"
    },
    {
      "constant": false,
      "inputs": [
        {
          "internalType": "string",
          "name": "_login",
          "type": "string"
        },
        {
          "internalType": "bytes32",
          "name": "_avatarHash",
          "type": "bytes32"
        },
        {
          "internalType": "string",
          "name": "_status",
          "type": "string"
        },
        {
          "internalType": "uint256",
          "name": "_priceSubcribe",
          "type": "uint256"
        }
      ],
      "name": "registration",
      "outputs": [],
      "payable": false,
      "stateMutability": "nonpayable",
      "type": "function"
    },
    {
      "constant": false,
      "inputs": [
        {
          "internalType": "string",
          "name": "_description",
          "type": "string"
        },
        {
          "internalType": "uint8",
          "name": "_imageCount",
          "type": "uint8"
        },
        {
          "internalType": "bytes32[]",
          "name": "_hash",
          "type": "bytes32[]"
        }
      ],
      "name": "newPost",
      "outputs": [],
      "payable": false,
      "stateMutability": "nonpayable",
      "type": "function"
    },
    {
      "constant": true,
      "inputs": [],
      "name": "getMyData",
      "outputs": [
        {
          "internalType": "string",
          "name": "",
          "type": "string"
        },
        {
          "internalType": "bytes32",
          "name": "",
          "type": "bytes32"
        },
        {
          "internalType": "string",
          "name": "",
          "type": "string"
        },
        {
          "internalType": "uint256",
          "name": "",
          "type": "uint256"
        },
        {
          "internalType": "uint256",
          "name": "",
          "type": "uint256"
        }
      ],
      "payable": false,
      "stateMutability": "view",
      "type": "function"
    },
    {
      "constant": false,
      "inputs": [
        {
          "internalType": "string",
          "name": "input",
          "type": "string"
        }
      ],
      "name": "setStatus",
      "outputs": [],
      "payable": false,
      "stateMutability": "nonpayable",
      "type": "function"
    },
    {
      "constant": false,
      "inputs": [
        {
          "internalType": "bytes32",
          "name": "input",
          "type": "bytes32"
        }
      ],
      "name": "setAvatarHash",
      "outputs": [],
      "payable": false,
      "stateMutability": "nonpayable",
      "type": "function"
    },
    {
      "constant": false,
      "inputs": [
        {
          "internalType": "string",
          "name": "input",
          "type": "string"
        }
      ],
      "name": "setLogin",
      "outputs": [],
      "payable": false,
      "stateMutability": "nonpayable",
      "type": "function"
    },
    {
      "constant": false,
      "inputs": [
        {
          "internalType": "uint256",
          "name": "input",
          "type": "uint256"
        }
      ],
      "name": "setPriceSubcribe",
      "outputs": [],
      "payable": false,
      "stateMutability": "nonpayable",
      "type": "function"
    },
    {
      "constant": true,
      "inputs": [
        {
          "internalType": "uint64",
          "name": "_index",
          "type": "uint64"
        }
      ],
      "name": "getSubscriptions",
      "outputs": [
        {
          "internalType": "string",
          "name": "",
          "type": "string"
        },
        {
          "internalType": "bytes32",
          "name": "",
          "type": "bytes32"
        },
        {
          "internalType": "string",
          "name": "",
          "type": "string"
        },
        {
          "internalType": "uint256",
          "name": "",
          "type": "uint256"
        },
        {
          "internalType": "uint256",
          "name": "",
          "type": "uint256"
        },
        {
          "internalType": "bool",
          "name": "",
          "type": "bool"
        }
      ],
      "payable": false,
      "stateMutability": "view",
      "type": "function"
    },
    {
      "constant": true,
      "inputs": [
        {
          "internalType": "uint256",
          "name": "_id",
          "type": "uint256"
        },
        {
          "internalType": "uint256",
          "name": "_subscribe",
          "type": "uint256"
        }
      ],
      "name": "getLoginFilterBySubcribe",
      "outputs": [
        {
          "internalType": "string",
          "name": "",
          "type": "string"
        }
      ],
      "payable": false,
      "stateMutability": "view",
      "type": "function"
    },
    {
      "constant": true,
      "inputs": [
        {
          "internalType": "uint256",
          "name": "_subscribe",
          "type": "uint256"
        }
      ],
      "name": "getCountAccountBySubcribe",
      "outputs": [
        {
          "internalType": "uint256",
          "name": "",
          "type": "uint256"
        }
      ],
      "payable": false,
      "stateMutability": "view",
      "type": "function"
    },
    {
      "constant": false,
      "inputs": [],
      "name": "unsubscribe",
      "outputs": [],
      "payable": false,
      "stateMutability": "nonpayable",
      "type": "function"
    },
    {
      "constant": true,
      "inputs": [],
      "name": "getCountSubscriptions",
      "outputs": [
        {
          "internalType": "uint64",
          "name": "",
          "type": "uint64"
        }
      ],
      "payable": false,
      "stateMutability": "view",
      "type": "function"
    },
    {
      "constant": true,
      "inputs": [],
      "name": "checkSubscription",
      "outputs": [
        {
          "internalType": "bool",
          "name": "",
          "type": "bool"
        }
      ],
      "payable": false,
      "stateMutability": "view",
      "type": "function"
    },
    {
      "constant": true,
      "inputs": [],
      "name": "getCountUnsubcribtion",
      "outputs": [
        {
          "internalType": "uint64",
          "name": "",
          "type": "uint64"
        }
      ],
      "payable": false,
      "stateMutability": "view",
      "type": "function"
    },
    {
      "constant": true,
      "inputs": [
        {
          "internalType": "uint64",
          "name": "_number",
          "type": "uint64"
        }
      ],
      "name": "getIdUnsubscriptionByNumber",
      "outputs": [
        {
          "internalType": "uint64",
          "name": "",
          "type": "uint64"
        }
      ],
      "payable": false,
      "stateMutability": "view",
      "type": "function"
    },
    {
      "constant": true,
      "inputs": [
        {
          "internalType": "uint64",
          "name": "_idUser",
          "type": "uint64"
        }
      ],
      "name": "getSubscriptionCountPostByIdUser",
      "outputs": [
        {
          "internalType": "uint256",
          "name": "",
          "type": "uint256"
        }
      ],
      "payable": false,
      "stateMutability": "view",
      "type": "function"
    },
    {
      "constant": true,
      "inputs": [
        {
          "internalType": "uint64",
          "name": "_idUser",
          "type": "uint64"
        },
        {
          "internalType": "uint256",
          "name": "_idPost",
          "type": "uint256"
        }
      ],
      "name": "getSubscriptionPostByIdUser",
      "outputs": [
        {
          "internalType": "uint8",
          "name": "",
          "type": "uint8"
        },
        {
          "internalType": "bytes32[]",
          "name": "",
          "type": "bytes32[]"
        },
        {
          "internalType": "string",
          "name": "",
          "type": "string"
        },
        {
          "internalType": "uint256",
          "name": "",
          "type": "uint256"
        }
      ],
      "payable": false,
      "stateMutability": "view",
      "type": "function"
    },
    {
      "constant": false,
      "inputs": [
        {
          "internalType": "string",
          "name": "_login",
          "type": "string"
        },
        {
          "internalType": "uint8",
          "name": "_count",
          "type": "uint8"
        }
      ],
      "name": "subscribe",
      "outputs": [],
      "payable": true,
      "stateMutability": "payable",
      "type": "function"
    },
    {
      "constant": true,
      "inputs": [],
      "name": "getName",
      "outputs": [
        {
          "internalType": "string",
          "name": "",
          "type": "string"
        }
      ],
      "payable": false,
      "stateMutability": "view",
      "type": "function"
    }
  ],
  "bytecode": "0x60806040526040518060400160405280600881526020017f446563656e744f46000000000000000000000000000000000000000000000000815250600090805190602001906200005192919062000066565b503480156200005f57600080fd5b5062000115565b828054600181600116156101000203166002900490600052602060002090601f016020900481019282601f10620000a957805160ff1916838001178555620000da565b82800160010185558215620000da579182015b82811115620000d9578251825591602001919060010190620000bc565b5b509050620000e99190620000ed565b5090565b6200011291905b808211156200010e576000816000905550600101620000f4565b5090565b90565b613fe380620001256000396000f3fe60806040526004361061019c5760003560e01c8063850171f2116100ec578063d0ce47121161008a578063ebb67e3611610064578063ebb67e3614610f56578063f6eb619c14610fa5578063fcae4484146110b5578063ffa92d29146110cc5761019c565b8063d0ce471214610ccc578063d9c8a38b14610cfb578063e1942bac14610e0c5761019c565b8063936b6f78116100c6578063936b6f781461095857806397bb2d4d146109b15780639aeff4bd146109f0578063c605f11614610b595761019c565b8063850171f2146107ce5780638b55ca2d146107f957806392faec01146108345761019c565b80635aedf9ab116101595780636e2e9c18116101335780636e2e9c18146105bc5780637d2211d6146105eb5780637d2786e2146106b35780638374c60b146106ee5761019c565b80635aedf9ab146103f75780635f093dd1146104365780636895b290146104f45761019c565b806302edf6ad146101a157806314ac3d9c146101cc57806317d7de7c146102395780631e1f42dc146102c9578063278759cd14610304578063557ed1ba146103cc575b600080fd5b3480156101ad57600080fd5b506101b6611107565b6040518082815260200191505060405180910390f35b3480156101d857600080fd5b5061020f600480360360208110156101ef57600080fd5b81019080803567ffffffffffffffff169060200190929190505050611189565b604051808267ffffffffffffffff1667ffffffffffffffff16815260200191505060405180910390f35b34801561024557600080fd5b5061024e611345565b6040518080602001828103825283818151815260200191508051906020019080838360005b8381101561028e578082015181840152602081019050610273565b50505050905090810190601f1680156102bb5780820380516001836020036101000a031916815260200191505b509250505060405180910390f35b3480156102d557600080fd5b50610302600480360360208110156102ec57600080fd5b81019080803590602001909291905050506113e7565b005b34801561031057600080fd5b506103ca6004803603602081101561032757600080fd5b810190808035906020019064010000000081111561034457600080fd5b82018360208201111561035657600080fd5b8035906020019184600183028401116401000000008311171561037857600080fd5b91908080601f016020809104026020016040519081016040528093929190818152602001838380828437600081840152601f19601f820116905080830192505050505050509192919290505050611521565b005b3480156103d857600080fd5b506103e1611630565b6040518082815260200191505060405180910390f35b34801561040357600080fd5b5061040c61163d565b604051808267ffffffffffffffff1667ffffffffffffffff16815260200191505060405180910390f35b34801561044257600080fd5b506104796004803603604081101561045957600080fd5b8101908080359060200190929190803590602001909291905050506116d3565b6040518080602001828103825283818151815260200191508051906020019080838360005b838110156104b957808201518184015260208101905061049e565b50505050905090810190601f1680156104e65780820380516001836020036101000a031916815260200191505b509250505060405180910390f35b6105ba6004803603604081101561050a57600080fd5b810190808035906020019064010000000081111561052757600080fd5b82018360208201111561053957600080fd5b8035906020019184600183028401116401000000008311171561055b57600080fd5b91908080601f016020809104026020016040519081016040528093929190818152602001838380828437600081840152601f19601f820116905080830192505050505050509192919290803560ff1690602001909291905050506117e4565b005b3480156105c857600080fd5b506105d1611d5b565b604051808215151515815260200191505060405180910390f35b3480156105f757600080fd5b506106b16004803603602081101561060e57600080fd5b810190808035906020019064010000000081111561062b57600080fd5b82018360208201111561063d57600080fd5b8035906020019184600183028401116401000000008311171561065f57600080fd5b91908080601f016020809104026020016040519081016040528093929190818152602001838380828437600081840152601f19601f820116905080830192505050505050509192919290505050611e7a565b005b3480156106bf57600080fd5b506106ec600480360360208110156106d657600080fd5b8101908080359060200190929190505050611f0c565b005b3480156106fa57600080fd5b506107b46004803603602081101561071157600080fd5b810190808035906020019064010000000081111561072e57600080fd5b82018360208201111561074057600080fd5b8035906020019184600183028401116401000000008311171561076257600080fd5b91908080601f016020809104026020016040519081016040528093929190818152602001838380828437600081840152601f19601f820116905080830192505050505050509192919290505050611f8e565b604051808215151515815260200191505060405180910390f35b3480156107da57600080fd5b506107e3612112565b6040518082815260200191505060405180910390f35b34801561080557600080fd5b506108326004803603602081101561081c57600080fd5b8101908080359060200190929190505050612219565b005b34801561084057600080fd5b506108816004803603604081101561085757600080fd5b81019080803567ffffffffffffffff16906020019092919080359060200190929190505050612353565b604051808560ff1660ff1681526020018060200180602001848152602001838103835286818151815260200191508051906020019060200280838360005b838110156108da5780820151818401526020810190506108bf565b50505050905001838103825285818151815260200191508051906020019080838360005b838110156109195780820151818401526020810190506108fe565b50505050905090810190601f1680156109465780820380516001836020036101000a031916815260200191505b50965050505050505060405180910390f35b34801561096457600080fd5b5061099b6004803603602081101561097b57600080fd5b81019080803567ffffffffffffffff169060200190929190505050612971565b6040518082815260200191505060405180910390f35b3480156109bd57600080fd5b506109c6612a39565b604051808267ffffffffffffffff1667ffffffffffffffff16815260200191505060405180910390f35b3480156109fc57600080fd5b50610b5760048036036060811015610a1357600080fd5b8101908080359060200190640100000000811115610a3057600080fd5b820183602082011115610a4257600080fd5b80359060200191846001830284011164010000000083111715610a6457600080fd5b91908080601f016020809104026020016040519081016040528093929190818152602001838380828437600081840152601f19601f820116905080830192505050505050509192919290803560ff16906020019092919080359060200190640100000000811115610ad457600080fd5b820183602082011115610ae657600080fd5b80359060200191846020830284011164010000000083111715610b0857600080fd5b919080806020026020016040519081016040528093929190818152602001838360200280828437600081840152601f19601f820116905080830192505050505050509192919290505050612b5a565b005b348015610b6557600080fd5b50610cca60048036036080811015610b7c57600080fd5b8101908080359060200190640100000000811115610b9957600080fd5b820183602082011115610bab57600080fd5b80359060200191846001830284011164010000000083111715610bcd57600080fd5b91908080601f016020809104026020016040519081016040528093929190818152602001838380828437600081840152601f19601f8201169050808301925050505050505091929192908035906020019092919080359060200190640100000000811115610c3a57600080fd5b820183602082011115610c4c57600080fd5b80359060200191846001830284011164010000000083111715610c6e57600080fd5b91908080601f016020809104026020016040519081016040528093929190818152602001838380828437600081840152601f19601f82011690508083019250505050505050919291929080359060200190929190505050612d84565b005b348015610cd857600080fd5b50610ce1612fcc565b604051808215151515815260200191505060405180910390f35b348015610d0757600080fd5b50610d10613068565b604051808060200186815260200180602001858152602001848152602001838103835288818151815260200191508051906020019080838360005b83811015610d66578082015181840152602081019050610d4b565b50505050905090810190601f168015610d935780820380516001836020036101000a031916815260200191505b50838103825286818151815260200191508051906020019080838360005b83811015610dcc578082015181840152602081019050610db1565b50505050905090810190601f168015610df95780820380516001836020036101000a031916815260200191505b5097505050505050505060405180910390f35b348015610e1857600080fd5b50610e4f60048036036020811015610e2f57600080fd5b81019080803567ffffffffffffffff16906020019092919050505061324d565b60405180806020018781526020018060200186815260200185815260200184151515158152602001838103835289818151815260200191508051906020019080838360005b83811015610eaf578082015181840152602081019050610e94565b50505050905090810190601f168015610edc5780820380516001836020036101000a031916815260200191505b50838103825287818151815260200191508051906020019080838360005b83811015610f15578082015181840152602081019050610efa565b50505050905090810190601f168015610f425780820380516001836020036101000a031916815260200191505b509850505050505050505060405180910390f35b348015610f6257600080fd5b50610f8f60048036036020811015610f7957600080fd5b81019080803590602001909291905050506136cb565b6040518082815260200191505060405180910390f35b348015610fb157600080fd5b50610fde60048036036020811015610fc857600080fd5b810190808035906020019092919050505061371f565b604051808560ff1660ff1681526020018060200180602001848152602001838103835286818151815260200191508051906020019060200280838360005b8381101561103757808201518184015260208101905061101c565b50505050905001838103825285818151815260200191508051906020019080838360005b8381101561107657808201518184015260208101905061105b565b50505050905090810190601f1680156110a35780820380516001836020036101000a031916815260200191505b50965050505050505060405180910390f35b3480156110c157600080fd5b506110ca6138fa565b005b3480156110d857600080fd5b50611105600480360360208110156110ef57600080fd5b8101908080359060200190929190505050613b72565b005b6000611111612fcc565b611166576040517f08c379a0000000000000000000000000000000000000000000000000000000008152600401808060200182810382526026815260200180613f896026913960400191505060405180910390fd5b60016000611172612112565b815260200190815260200160002060000154905090565b6000611193612fcc565b6111e8576040517f08c379a0000000000000000000000000000000000000000000000000000000008152600401808060200182810382526026815260200180613f896026913960400191505060405180910390fd5b60006111f2612112565b9050600080905060008090505b6001600084815260200190815260200160002060080160149054906101000a900467ffffffffffffffff1667ffffffffffffffff168167ffffffffffffffff1610156112c8576001600084815260200190815260200160002060050160008267ffffffffffffffff1667ffffffffffffffff168152602001908152602001600020600101544211156112bb578167ffffffffffffffff168567ffffffffffffffff1614156112b257809350505050611340565b81806001019250505b80806001019150506111ff565b50600161133d576040517f08c379a000000000000000000000000000000000000000000000000000000000815260040180806020018281038252600b8152602001807f626164205f6e756d62657200000000000000000000000000000000000000000081525060200191505060405180910390fd5b50505b919050565b606060008054600181600116156101000203166002900480601f0160208091040260200160405190810160405280929190818152602001828054600181600116156101000203166002900480156113dd5780601f106113b2576101008083540402835291602001916113dd565b820191906000526020600020905b8154815290600101906020018083116113c057829003601f168201915b5050505050905090565b6113ef612fcc565b611444576040517f08c379a0000000000000000000000000000000000000000000000000000000008152600401808060200182810382526026815260200180613f896026913960400191505060405180910390fd5b600061144e612112565b9050816001600083815260200190815260200160002060000154116114db576040517f08c379a00000000000000000000000000000000000000000000000000000000081526004018080602001828103825260148152602001807f646f6e74206578697374207468697320706f737400000000000000000000000081525060200191505060405180910390fd5b6001806000838152602001908152602001600020600401600084815260200190815260200160002060030160016101000a81548160ff0219169083151502179055505050565b611529612fcc565b61157e576040517f08c379a0000000000000000000000000000000000000000000000000000000008152600401808060200182810382526026815260200180613f896026913960400191505060405180910390fd5b8061158881611f8e565b6115fa576040517f08c379a00000000000000000000000000000000000000000000000000000000081526004018080602001828103825260128152602001807f74686973206c6f67696e2069732075736564000000000000000000000000000081525060200191505060405180910390fd5b8160016000611607612112565b8152602001908152602001600020600601908051906020019061162b929190613d86565b505050565b6000804290508091505090565b6000611647612fcc565b61169c576040517f08c379a0000000000000000000000000000000000000000000000000000000008152600401808060200182810382526026815260200180613f896026913960400191505060405180910390fd5b600160006116a8612112565b815260200190815260200160002060080160149054906101000a900467ffffffffffffffff16905090565b6060600080905060008090505b6002548110156117db57836001600083815260200190815260200160002060020154106117ce57848280600101935014156117cd57600160008281526020019081526020016000206006018054600181600116156101000203166002900480601f0160208091040260200160405190810160405280929190818152602001828054600181600116156101000203166002900480156117bf5780601f10611794576101008083540402835291602001916117bf565b820191906000526020600020905b8154815290600101906020018083116117a257829003601f168201915b5050505050925050506117de565b5b80806001019150506116e0565b50505b92915050565b6117ec612fcc565b611841576040517f08c379a0000000000000000000000000000000000000000000000000000000008152600401808060200182810382526026815260200180613f896026913960400191505060405180910390fd5b8161184b81611f8e565b156118be576040517f08c379a00000000000000000000000000000000000000000000000000000000081526004018080602001828103825260158152602001807f74686973206c6f67696e20646f6e74206578697374000000000000000000000081525060200191505060405180910390fd5b60008260ff1611611937576040517f08c379a00000000000000000000000000000000000000000000000000000000081526004018080602001828103825260178152602001807f5f636f756e74206d75737420626520626967676572203000000000000000000081525060200191505060405180910390fd5b8160ff166001600061194886613bf4565b815260200190815260200160002060010154023410156119d0576040517f08c379a000000000000000000000000000000000000000000000000000000000815260040180806020018281038252600f8152602001807f6e656564206d6f7265206d6f6e6579000000000000000000000000000000000081525060200191505060405180910390fd5b60006119da612112565b905060006119e785613bf4565b905081811415611a42576040517f08c379a0000000000000000000000000000000000000000000000000000000008152600401808060200182810382526023815260200180613f666023913960400191505060405180910390fd5b806001600084815260200190815260200160002060050160006001600086815260200190815260200160002060080160149054906101000a900467ffffffffffffffff1667ffffffffffffffff1667ffffffffffffffff16815260200190815260200160002060000181905550600180600084815260200190815260200160002060050160006001600086815260200190815260200160002060080160149054906101000a900467ffffffffffffffff1667ffffffffffffffff1667ffffffffffffffff16815260200190815260200160002060020160006101000a81548160ff0219169083151502179055508360ff1662278d000262ffffff16420160016000848152602001908152602001600020600501600060016000868152602001908152602001600020600801601481819054906101000a900467ffffffffffffffff168092919060010191906101000a81548167ffffffffffffffff021916908367ffffffffffffffff16021790555067ffffffffffffffff1667ffffffffffffffff1681526020019081526020016000206001018190555060016000828152602001908152602001600020600201600081548092919060010191905055506001600082815260200190815260200160002060080160009054906101000a900473ffffffffffffffffffffffffffffffffffffffff1673ffffffffffffffffffffffffffffffffffffffff166108fc349081150290604051600060405180830381858888f19350505050158015611c7c573d6000803e3d6000fd5b507f3a25bf5bebe58dddd506ced2de5e3aecbcf21c77809a24e8705790311b448d02600160008381526020019081526020016000206006016040518080602001828103825283818154600181600116156101000203166002900481526020019150805460018160011615610100020316600290048015611d3d5780601f10611d1257610100808354040283529160200191611d3d565b820191906000526020600020905b815481529060010190602001808311611d2057829003601f168201915b50509250505060405180910390a1611d53611d5b565b505050505050565b6000611d65612fcc565b611dba576040517f08c379a0000000000000000000000000000000000000000000000000000000008152600401808060200182810382526026815260200180613f896026913960400191505060405180910390fd5b6000611dc4612112565b905060008090505b6001600083815260200190815260200160002060080160149054906101000a900467ffffffffffffffff1667ffffffffffffffff168167ffffffffffffffff161015611e70576001600083815260200190815260200160002060050160008267ffffffffffffffff1667ffffffffffffffff16815260200190815260200160002060010154421115611e6357600092505050611e77565b8080600101915050611dcc565b5060019150505b90565b611e82612fcc565b611ed7576040517f08c379a0000000000000000000000000000000000000000000000000000000008152600401808060200182810382526026815260200180613f896026913960400191505060405180910390fd5b8060016000611ee4612112565b81526020019081526020016000206007019080519060200190611f08929190613d86565b5050565b611f14612fcc565b611f69576040517f08c379a0000000000000000000000000000000000000000000000000000000008152600401808060200182810382526026815260200180613f896026913960400191505060405180910390fd5b8060016000611f76612112565b81526020019081526020016000206001018190555050565b600080600090505b600254811015612107576001600082815260200190815260200160002060060160405160200180806020018281038252838181546001816001161561010002031660029004815260200191508054600181600116156101000203166002900480156120425780601f1061201757610100808354040283529160200191612042565b820191906000526020600020905b81548152906001019060200180831161202557829003601f168201915b50509250505060405160208183030381529060405280519060200120836040516020018080602001828103825283818151815260200191508051906020019080838360005b838110156120a2578082015181840152602081019050612087565b50505050905090810190601f1680156120cf5780820380516001836020036101000a031916815260200191505b50925050506040516020818303038152906040528051906020012014156120fa57600091505061210d565b8080600101915050611f96565b50600190505b919050565b600061211c612fcc565b612171576040517f08c379a0000000000000000000000000000000000000000000000000000000008152600401808060200182810382526026815260200180613f896026913960400191505060405180910390fd5b60008090505b600254811015612201576001600082815260200190815260200160002060080160009054906101000a900473ffffffffffffffffffffffffffffffffffffffff1673ffffffffffffffffffffffffffffffffffffffff163373ffffffffffffffffffffffffffffffffffffffff1614156121f45780915050612216565b8080600101915050612177565b506fffffffffffffffffffffffffffffffff90505b90565b612221612fcc565b612276576040517f08c379a0000000000000000000000000000000000000000000000000000000008152600401808060200182810382526026815260200180613f896026913960400191505060405180910390fd5b6000612280612112565b90508160016000838152602001908152602001600020600001541161230d576040517f08c379a00000000000000000000000000000000000000000000000000000000081526004018080602001828103825260148152602001807f646f6e74206578697374207468697320706f737400000000000000000000000081525060200191505060405180910390fd5b6001806000838152602001908152602001600020600401600084815260200190815260200160002060030160016101000a81548160ff0219169083151502179055505050565b60006060806000612362612fcc565b6123b7576040517f08c379a0000000000000000000000000000000000000000000000000000000008152600401808060200182810382526026815260200180613f896026913960400191505060405180910390fd5b60006123c1612112565b90506001600082815260200190815260200160002060080160149054906101000a900467ffffffffffffffff1667ffffffffffffffff168767ffffffffffffffff1610612476576040517f08c379a00000000000000000000000000000000000000000000000000000000081526004018080602001828103825260108152602001807f646f6e277420657869737420757365720000000000000000000000000000000081525060200191505060405180910390fd5b600160006001600084815260200190815260200160002060050160008a67ffffffffffffffff1667ffffffffffffffff16815260200190815260200160002060000154815260200190815260200160002060000154861061253f576040517f08c379a00000000000000000000000000000000000000000000000000000000081526004018080602001828103825260118152602001807f646f6e277420657869737420706f73742000000000000000000000000000000081525060200191505060405180910390fd5b600160006001600084815260200190815260200160002060050160008a67ffffffffffffffff1667ffffffffffffffff168152602001908152602001600020600001548152602001908152602001600020600401600087815260200190815260200160002060030160019054906101000a900460ff1615612877576000600160006001600085815260200190815260200160002060050160008b67ffffffffffffffff1667ffffffffffffffff168152602001908152602001600020600001548152602001908152602001600020600401600088815260200190815260200160002060030160009054906101000a900460ff1690506060600160006001600086815260200190815260200160002060050160008c67ffffffffffffffff1667ffffffffffffffff16815260200190815260200160002060000154815260200190815260200160002060040160008981526020019081526020016000206001018054806020026020016040519081016040528092919081815260200182805480156126e857602002820191906000526020600020905b8154815260200190600101908083116126d4575b505050505090506060600160006001600087815260200190815260200160002060050160008d67ffffffffffffffff1667ffffffffffffffff16815260200190815260200160002060000154815260200190815260200160002060040160008a81526020019081526020016000206002018054600181600116156101000203166002900480601f0160208091040260200160405190810160405280929190818152602001828054600181600116156101000203166002900480156127ed5780601f106127c2576101008083540402835291602001916127ed565b820191906000526020600020905b8154815290600101906020018083116127d057829003601f168201915b505050505090506000600160006001600088815260200190815260200160002060050160008e67ffffffffffffffff1667ffffffffffffffff16815260200190815260200160002060000154815260200190815260200160002060040160008b81526020019081526020016000206000015490508383838398509850985098505050505050612968565b606060016040519080825280602002602001820160405280156128a95781602001602082028038833980820191505090505b50905060606040518060400160405280600b81526020017f706f73742064656c65746500000000000000000000000000000000000000000081525090506000600160006001600087815260200190815260200160002060050160008d67ffffffffffffffff1667ffffffffffffffff16815260200190815260200160002060000154815260200190815260200160002060040160008a815260200190815260200160002060000154905060008383838393509750975097509750505050505b92959194509250565b600061297b612fcc565b6129d0576040517f08c379a0000000000000000000000000000000000000000000000000000000008152600401808060200182810382526026815260200180613f896026913960400191505060405180910390fd5b600060016000600160006129e2612112565b815260200190815260200160002060050160008667ffffffffffffffff1667ffffffffffffffff16815260200190815260200160002060000154815260200190815260200160002060000154905080915050919050565b6000612a43612fcc565b612a98576040517f08c379a0000000000000000000000000000000000000000000000000000000008152600401808060200182810382526026815260200180613f896026913960400191505060405180910390fd5b6000612aa2612112565b9050600080905060008090505b6001600084815260200190815260200160002060080160149054906101000a900467ffffffffffffffff1667ffffffffffffffff168167ffffffffffffffff161015612b51576001600084815260200190815260200160002060050160008267ffffffffffffffff1667ffffffffffffffff16815260200190815260200160002060010154421115612b445781806001019250505b8080600101915050612aaf565b50809250505090565b612b62612fcc565b612bb7576040517f08c379a0000000000000000000000000000000000000000000000000000000008152600401808060200182810382526026815260200180613f896026913960400191505060405180910390fd5b80518260ff1614612c13576040517f08c379a0000000000000000000000000000000000000000000000000000000008152600401808060200182810382526025815260200180613e9e6025913960400191505060405180910390fd5b6000612c1d612112565b90506000600160008381526020019081526020016000206004016000600160008581526020019081526020016000206000015481526020019081526020016000209050600160008381526020019081526020016000206000016000815480929190600101919050555084816002019080519060200190612c9e929190613d86565b5042816000018190555060018160030160016101000a81548160ff021916908315150217905550838160030160006101000a81548160ff021916908360ff1602179055508360ff16604051908082528060200260200182016040528015612d145781602001602082028038833980820191505090505b50816001019080519060200190612d2c929190613e06565b5060008090505b8460ff16811015612d7c57838181518110612d4a57fe5b6020026020010151826001018281548110612d6157fe5b90600052602060002001819055508080600101915050612d33565b505050505050565b6000845111612dde576040517f08c379a0000000000000000000000000000000000000000000000000000000008152600401808060200182810382526025815260200180613f1b6025913960400191505060405180910390fd5b6000831415612e38576040517f08c379a000000000000000000000000000000000000000000000000000000000815260040180806020018281038252602a815260200180613ec3602a913960400191505060405180910390fd5b6000825111612e92576040517f08c379a0000000000000000000000000000000000000000000000000000000008152600401808060200182810382526026815260200180613f406026913960400191505060405180910390fd5b612e9a612fcc565b15612f0d576040517f08c379a00000000000000000000000000000000000000000000000000000000081526004018080602001828103825260158152602001807f746869732075736572206973207265676973746572000000000000000000000081525060200191505060405180910390fd5b60006001600060026000815480929190600101919050558152602001908152602001600020905084816006019080519060200190612f4c929190613d86565b508381600301819055506000816000018190555082816007019080519060200190612f78929190613d86565b50338160080160006101000a81548173ffffffffffffffffffffffffffffffffffffffff021916908373ffffffffffffffffffffffffffffffffffffffff1602179055508181600101819055505050505050565b600080600090505b60025481101561305f576001600082815260200190815260200160002060080160009054906101000a900473ffffffffffffffffffffffffffffffffffffffff1673ffffffffffffffffffffffffffffffffffffffff163373ffffffffffffffffffffffffffffffffffffffff161415613052576001915050613065565b8080600101915050612fd4565b50600090505b90565b606060006060600080613079612fcc565b6130ce576040517f08c379a0000000000000000000000000000000000000000000000000000000008152600401808060200182810382526026815260200180613f896026913960400191505060405180910390fd5b6000600160006130dc612112565b815260200190815260200160002090508060060181600301548260070183600101548460020154848054600181600116156101000203166002900480601f0160208091040260200160405190810160405280929190818152602001828054600181600116156101000203166002900480156131985780601f1061316d57610100808354040283529160200191613198565b820191906000526020600020905b81548152906001019060200180831161317b57829003601f168201915b50505050509450828054600181600116156101000203166002900480601f0160208091040260200160405190810160405280929190818152602001828054600181600116156101000203166002900480156132345780601f1061320957610100808354040283529160200191613234565b820191906000526020600020905b81548152906001019060200180831161321757829003601f168201915b5050505050925095509550955095509550509091929394565b6060600060606000806000613260612fcc565b6132b5576040517f08c379a0000000000000000000000000000000000000000000000000000000008152600401808060200182810382526026815260200180613f896026913960400191505060405180910390fd5b60606000606060006132c5612112565b90506001600082815260200190815260200160002060080160149054906101000a900467ffffffffffffffff1667ffffffffffffffff168b67ffffffffffffffff161061335d576040517f08c379a000000000000000000000000000000000000000000000000000000000815260040180806020018281038252602e815260200180613eed602e913960400191505060405180910390fd5b600160006001600084815260200190815260200160002060050160008e67ffffffffffffffff1667ffffffffffffffff1681526020019081526020016000206000015481526020019081526020016000206006018054600181600116156101000203166002900480601f0160208091040260200160405190810160405280929190818152602001828054600181600116156101000203166002900480156134455780601f1061341a57610100808354040283529160200191613445565b820191906000526020600020905b81548152906001019060200180831161342857829003601f168201915b50505050509350600160006001600084815260200190815260200160002060050160008e67ffffffffffffffff1667ffffffffffffffff168152602001908152602001600020600001548152602001908152602001600020600301549250600160006001600084815260200190815260200160002060050160008e67ffffffffffffffff1667ffffffffffffffff1681526020019081526020016000206000015481526020019081526020016000206007018054600181600116156101000203166002900480601f01602080910402602001604051908101604052809291908181526020018280546001816001161561010002031660029004801561358b5780601f106135605761010080835404028352916020019161358b565b820191906000526020600020905b81548152906001019060200180831161356e57829003601f168201915b5050505050915050600060016000600160006135a5612112565b815260200190815260200160002060050160008e67ffffffffffffffff1667ffffffffffffffff16815260200190815260200160002060000154815260200190815260200160002060010154905060006001600060016000613605612112565b815260200190815260200160002060050160008f67ffffffffffffffff1667ffffffffffffffff168152602001908152602001600020600001548152602001908152602001600020600201549050600060016000613661612112565b815260200190815260200160002060050160008e67ffffffffffffffff1667ffffffffffffffff16815260200190815260200160002060020160009054906101000a900460ff1690508585858585859b509b509b509b509b509b5050505050505091939550919395565b6000806000905060008090505b60025481101561371557836001600083815260200190815260200160002060020154106137085781806001019250505b80806001019150506136d8565b5080915050919050565b6000606080600061372e612fcc565b613783576040517f08c379a0000000000000000000000000000000000000000000000000000000008152600401808060200182810382526026815260200180613f896026913960400191505060405180910390fd5b600061378d612112565b9050856001600083815260200190815260200160002060000154116137b157600080fd5b600060016000838152602001908152602001600020600401600088815260200190815260200160002090508060030160009054906101000a900460ff16816001018260020183600001548280548060200260200160405190810160405280929190818152602001828054801561384657602002820191906000526020600020905b815481526020019060010190808311613832575b50505050509250818054600181600116156101000203166002900480601f0160208091040260200160405190810160405280929190818152602001828054600181600116156101000203166002900480156138e25780601f106138b7576101008083540402835291602001916138e2565b820191906000526020600020905b8154815290600101906020018083116138c557829003601f168201915b50505050509150955095509550955050509193509193565b6000613904612112565b905060008090505b6001600083815260200190815260200160002060080160149054906101000a900467ffffffffffffffff1667ffffffffffffffff168167ffffffffffffffff161015613b6e576001600083815260200190815260200160002060050160008267ffffffffffffffff1667ffffffffffffffff16815260200190815260200160002060010154421115613b615760006001600084815260200190815260200160002060050160008367ffffffffffffffff1667ffffffffffffffff16815260200190815260200160002060020160006101000a81548160ff021916908315150217905550600160006001600085815260200190815260200160002060050160008467ffffffffffffffff1667ffffffffffffffff16815260200190815260200160002060000154815260200190815260200160002060020160008154809291906001900391905055507f720e4be6adf903d12792c7c0719ca2db973c6a09e15268385f7601f22d67c0a0600160006001600086815260200190815260200160002060050160008567ffffffffffffffff1667ffffffffffffffff1681526020019081526020016000206000015481526020019081526020016000206006016040518080602001828103825283818154600181600116156101000203166002900481526020019150805460018160011615610100020316600290048015613b525780601f10613b2757610100808354040283529160200191613b52565b820191906000526020600020905b815481529060010190602001808311613b3557829003601f168201915b50509250505060405180910390a15b808060010191505061390c565b5050565b613b7a612fcc565b613bcf576040517f08c379a0000000000000000000000000000000000000000000000000000000008152600401808060200182810382526026815260200180613f896026913960400191505060405180910390fd5b8060016000613bdc612112565b81526020019081526020016000206003018190555050565b600080600090505b600254811015613d6c57826040516020018080602001828103825283818151815260200191508051906020019080838360005b83811015613c4a578082015181840152602081019050613c2f565b50505050905090810190601f168015613c775780820380516001836020036101000a031916815260200191505b509250505060405160208183030381529060405280519060200120600160008381526020019081526020016000206006016040516020018080602001828103825283818154600181600116156101000203166002900481526020019150805460018160011615610100020316600290048015613d345780601f10613d0957610100808354040283529160200191613d34565b820191906000526020600020905b815481529060010190602001808311613d1757829003601f168201915b505092505050604051602081830303815290604052805190602001201415613d5f5780915050613d81565b8080600101915050613bfc565b506fffffffffffffffffffffffffffffffff90505b919050565b828054600181600116156101000203166002900490600052602060002090601f016020900481019282601f10613dc757805160ff1916838001178555613df5565b82800160010185558215613df5579182015b82811115613df4578251825591602001919060010190613dd9565b5b509050613e029190613e53565b5090565b828054828255906000526020600020908101928215613e42579160200282015b82811115613e41578251825591602001919060010190613e26565b5b509050613e4f9190613e78565b5090565b613e7591905b80821115613e71576000816000905550600101613e59565b5090565b90565b613e9a91905b80821115613e96576000816000905550600101613e7e565b5090565b9056fe5f696d616765436f756e7420646f6e74277420657175616c205f686173682e6c656e6774685f617661746172486173682773206c656e677468206d75737420626520626967676572207468616e2030696420737562736372697074696f6e20626967676572207468616e20636f756e7420737562736372697074696f6e5f6c6f67696e2773206c656e677468206d75737420626520626967676572207468616e20305f7374617475732773206c656e677468206d75737420626520626967676572207468616e2030737562736372696265206f6e206d7973656c66206973206e6f74206163636570746564757365727320686176656e2774206163636f756e74202c706c65617365207265676973746572a265627a7a72315820cfa62a674d482ef57641a945ba4bc2e8403f4eee7a54a95b809dac88991e756664736f6c63430005100032",
  "source": "pragma solidity 0.5.16;\r\n\r\n\r\n\r\n\r\ncontract DecentOF{\r\n     \r\n    \r\n     string  name=\"DecentOF\";\r\n     struct Post{\r\n        uint256  date;\r\n        bytes32[] hash;\r\n        // bytes32 hash;\r\n        string description;\r\n        uint8 imageCount;\r\n        bool visibility;\r\n    }\r\n    struct Subscribe{\r\n        uint256 id;\r\n        uint256 date;\r\n        bool paid;\r\n    }\r\n    function getTime()public view returns(uint256){\r\n         uint256 chainStartTime =uint256( block.timestamp);\r\n         return chainStartTime;\r\n    }\r\n    struct Account{\r\n        uint256 countPosts;\r\n        uint256 priceSubcribe;\r\n        uint256 subscribers;\r\n        bytes32 avatarHash;\r\n        mapping(uint256=>Post) posts;\r\n        mapping(uint64=>Subscribe) subscription;\r\n        string login;\r\n        string status;\r\n        address payable author;\r\n        uint64  countsSubscription;\r\n    }\r\n    mapping(uint256=>Account) internal  accounts;\r\n    uint256 internal accountsCount;\r\n    event Subscribed(\r\n        string login\r\n       );\r\n    event UnSubscribed(\r\n        string login\r\n       );\r\n    \r\n    function isUniqueLogin(string memory _input) public view returns(bool){\r\n        for(uint256 i=0;i<accountsCount;i++){\r\n            if(keccak256(abi.encode(_input)) ==keccak256(abi.encode(accounts[i].login))){\r\n                return false;\r\n            }\r\n        }\r\n        return true;\r\n    }\r\n    modifier _isUniqueLogin(string memory input){\r\n        require(isUniqueLogin(input),\"this login is used\");\r\n        _;\r\n    }\r\n    modifier _loginIsUsed(string memory input){\r\n        require(!isUniqueLogin(input),\"this login dont exist\");\r\n        _;\r\n    }\r\n    \r\n    modifier isOwner(address id){\r\n        require(msg.sender==id,\"Caller is not owner\");\r\n        _;\r\n    }\r\n    function isRegistrated() public view returns(bool){\r\n        for(uint256 i=0;i<accountsCount;i++){\r\n            if(msg.sender==accounts[i].author){\r\n                return true;\r\n            }\r\n        }\r\n        return false;\r\n    }\r\n     modifier _isRegistrated(){\r\n         require(isRegistrated(),\"users haven\\'t account ,please register\");\r\n        _;\r\n    }\r\n    function getMyCountPost()\r\n    _isRegistrated public\r\n    view returns(uint256)\r\n    {\r\n        return accounts[findIdByAddress()].countPosts;\r\n    }\r\n    function getMyPostById(uint256 _index)\r\n    _isRegistrated public\r\n    view returns(uint8 ,\r\n        bytes32[] memory,\r\n        string memory,\r\n        uint256 \r\n        )\r\n    {\r\n        uint256 id =findIdByAddress();\r\n        require(accounts[id].countPosts>_index);\r\n        Post storage post =accounts[id].posts[_index];\r\n        return(post.imageCount,post.hash,post.description,post.date);\r\n    }\r\n    \r\n     function setVisiblePostById(uint256 _index)\r\n    _isRegistrated public\r\n    {\r\n        uint256 id =findIdByAddress();\r\n        require(accounts[id].countPosts>_index,\"dont exist this post\");\r\n        accounts[id].posts[_index].visibility=true;\r\n\r\n    }\r\n    \r\n    function setUnvisiblePostById(uint256 _index)\r\n    _isRegistrated public\r\n    {\r\n        uint256 id =findIdByAddress();\r\n        require(accounts[id].countPosts>_index,\"dont exist this post\");\r\n        accounts[id].posts[_index].visibility=true;\r\n\r\n    }\r\n   \r\n   \r\n     function findIdByAddress() \r\n     public _isRegistrated\r\n     view returns(uint256)\r\n     \r\n     {\r\n        for(uint256 i=0;i<accountsCount;i++){\r\n            if(msg.sender==accounts[i].author){\r\n                return i;\r\n            }\r\n        }\r\n        return uint256(0xFFFFFFFFFFFFFFFFFFFFFFFFFFFFFFFF);\r\n    }\r\n    function registration(string memory _login, bytes32 _avatarHash,string memory _status,uint256 _priceSubcribe) \r\n        public  \r\n        {\r\n        require(bytes(_login).length>0,\"_login's length must be bigger than 0\");\r\n        require((_avatarHash)!=\"\",\"_avatarHash's length must be bigger than 0\");\r\n        require(bytes(_status).length>0,\"_status's length must be bigger than 0\");\r\n        require(!isRegistrated(),\"this user is register\");\r\n        \r\n        Account storage c=accounts[accountsCount++];\r\n        c.login=_login;\r\n        c.avatarHash=_avatarHash;\r\n        c.countPosts=0;\r\n        c.status=_status;\r\n        c.author=(msg.sender);\r\n        c.priceSubcribe=_priceSubcribe;\r\n      \r\n    }\r\n    function newPost(string memory _description,uint8 _imageCount,bytes32[] memory   _hash)\r\n    public  _isRegistrated \r\n    {\r\n        \r\n        require(_imageCount==_hash.length,\"_imageCount dont\\'t equal _hash.length\");\r\n        uint256 id=findIdByAddress();\r\n        // console.log(accounts[findIdByAddress()])\r\n       \r\n        Post storage c=accounts[id].posts[accounts[id].countPosts];\r\n        accounts[id].countPosts++;\r\n        c.description =_description;\r\n        c.date=(uint256(block.timestamp));\r\n        c.visibility=true;\r\n        c.imageCount=_imageCount;\r\n       c.hash = new bytes32[](_imageCount);\r\n        // c.hash=_hash;\r\n        for(uint i = 0;i<_imageCount;i++){\r\n            c.hash[i]=_hash[i];\r\n        }\r\n      //  checkSubscription();\r\n    \r\n    }\r\n    \r\n    function getMyData()  _isRegistrated\r\n    public view returns(\r\n        string memory,\r\n       bytes32,\r\n        string memory,\r\n        uint256,\r\n        uint256\r\n        ) \r\n    {\r\n        Account  storage  buf= accounts[findIdByAddress()];\r\n      \r\n        return (buf.login,buf.avatarHash,buf.status,buf.priceSubcribe,buf.subscribers);\r\n    }\r\n    \r\n    function setStatus(string memory input)\r\n    public _isRegistrated\r\n    {\r\n        accounts[findIdByAddress()].status=input;\r\n    }\r\n    function setAvatarHash(bytes32 input)\r\n    public _isRegistrated\r\n    {\r\n        accounts[findIdByAddress()].avatarHash=input;\r\n    }\r\n    function setLogin(string memory input)\r\n    public _isRegistrated _isUniqueLogin(input)\r\n    {\r\n        accounts[findIdByAddress()].login=input;\r\n    }\r\n\r\n    function setPriceSubcribe(uint256 input)\r\n    public _isRegistrated \r\n    {\r\n        accounts[findIdByAddress()].priceSubcribe=input;\r\n    }\r\n    \r\n    \r\n    function getSubscriptions(uint64 _index)_isRegistrated public \r\n    view returns( string memory,\r\n        bytes32,\r\n        string memory,\r\n       // address payable ,\r\n        uint256 ,\r\n        uint256,\r\n        bool\r\n        )\r\n    {\r\n        string memory login;\r\n       bytes32 avatarHash;\r\n        string memory status;\r\n        {\r\n        uint256  id=findIdByAddress();\r\n        require(_index<accounts[id].countsSubscription,\r\n        \"id subscription bigger than count subscription\");\r\n        login=accounts[accounts[id].subscription[_index].id].login;\r\n        avatarHash=accounts[accounts[id].subscription[_index].id].avatarHash;\r\n        status=accounts[accounts[id].subscription[_index].id].status;\r\n        }\r\n        // address payable author=accounts[accounts[findIdByAddress()].subscription[_index].id].author;\r\n        uint256 priceSubcribe=accounts[accounts[findIdByAddress()].subscription[_index].id].priceSubcribe;\r\n        uint256 subscribers=accounts[accounts[findIdByAddress()].subscription[_index].id].subscribers;\r\n        bool paid=accounts[findIdByAddress()].subscription[_index].paid;\r\n        return(login,avatarHash,status,priceSubcribe,subscribers,paid);\r\n    }\r\n    \r\n    \r\n \r\n    \r\n    function getLoginFilterBySubcribe(uint256 _id, uint256 _subscribe)\r\n    public\r\n    view returns(\r\n    string memory\r\n    )\r\n    {\r\n        uint256 j=0;\r\n       \r\n        for(uint256 i = 0 ;i<accountsCount;i++){\r\n            if(accounts[i].subscribers>=_subscribe){\r\n               if(j++==_id){\r\n                   return accounts[i].login;\r\n               }\r\n            }\r\n            \r\n        }\r\n        \r\n    }\r\n  \r\n    function getCountAccountBySubcribe( uint256 _subscribe)\r\n    public\r\n    view returns(uint256)\r\n    {\r\n        uint256 sum=0;\r\n        \r\n        for(uint256 i = 0 ;i<accountsCount;i++){\r\n            if(accounts[i].subscribers>=_subscribe){\r\n                sum++;\r\n            }\r\n        }\r\n        return sum;\r\n    }\r\n  \r\n    function findIdByLogin(string memory _login)\r\n    internal\r\n    view returns(uint256)\r\n    {\r\n        for(uint256 i =0 ;i<accountsCount;i++){\r\n            if(keccak256(abi.encode(accounts[i].login))==keccak256(abi.encode(_login))){\r\n                return i;\r\n            }\r\n        }\r\n        return uint256(0xFFFFFFFFFFFFFFFFFFFFFFFFFFFFFFFF);\r\n    }\r\n    \r\n    function unsubscribe()\r\n    public\r\n    {\r\n        uint256 id = findIdByAddress();\r\n        for(uint64 i = 0;i< accounts[id].countsSubscription;i++){\r\n            if((uint256(block.timestamp))>accounts[id].subscription[i].date){\r\n                accounts[id].subscription[i].paid=false;\r\n                accounts[accounts[id].subscription[i].id].subscribers--;\r\n                emit UnSubscribed(accounts[accounts[id].subscription[i].id].login);\r\n            }\r\n        }\r\n    }\r\n    function getCountSubscriptions()\r\n    public _isRegistrated\r\n    view returns(uint64){\r\n        return accounts[findIdByAddress()].countsSubscription;\r\n    }\r\n    function checkSubscription()\r\n    public view _isRegistrated\r\n    returns(bool)\r\n    {\r\n        uint256 id =findIdByAddress();\r\n        for(uint64 i = 0;i< accounts[id].countsSubscription;i++){\r\n            if((uint256(block.timestamp))>accounts[id].subscription[i].date){\r\n                return false;\r\n            }\r\n        }\r\n        return true;\r\n    }\r\n    function getCountUnsubcribtion()\r\n    public view _isRegistrated\r\n    returns(uint64)\r\n    {  \r\n        uint256 id = findIdByAddress();\r\n        uint64 j=0;\r\n        for(uint64 i = 0;i< accounts[id].countsSubscription;i++){\r\n            if((uint256(block.timestamp))>accounts[id].subscription[i].date){\r\n                \r\n                j++;\r\n            }\r\n        }\r\n        return j;\r\n    }\r\n    function getIdUnsubscriptionByNumber(uint64 _number)\r\n    public view _isRegistrated\r\n    returns(uint64)\r\n    {\r\n        uint256 id =findIdByAddress();\r\n        uint64 j=0;\r\n        for(uint64 i = 0;i< accounts[id].countsSubscription;i++){\r\n            if((uint256(block.timestamp))>accounts[id].subscription[i].date){\r\n                if(_number==j)  {\r\n                    return i;\r\n                }\r\n                j++;\r\n            }\r\n        }\r\n       require(true,\"bad _number\");\r\n    }\r\n    function getSubscriptionCountPostByIdUser(uint64 _idUser)\r\n    public _isRegistrated \r\n    view returns(\r\n        uint256\r\n        )\r\n    {\r\n        uint256 count = accounts[accounts[findIdByAddress()].subscription[_idUser].id].countPosts;\r\n        return count;\r\n    }\r\n    \r\n    function getSubscriptionPostByIdUser(uint64 _idUser,uint256 _idPost)\r\n    public _isRegistrated \r\n    view returns(\r\n        uint8 ,\r\n        bytes32[] memory,\r\n        string memory,\r\n        uint256\r\n        )\r\n    {\r\n        \r\n        uint256 id=findIdByAddress();\r\n        require(_idUser<accounts[id].countsSubscription,\"don\\'t exist user\");\r\n        require(_idPost<accounts[accounts[id].subscription[_idUser].id].countPosts,\"don\\'t exist post \");\r\n        if(accounts[accounts[id].subscription[_idUser].id].posts[_idPost].visibility){\r\n        uint8 imageCount = accounts[accounts[id].subscription[_idUser].id].posts[_idPost].imageCount;\r\n        bytes32[] memory hash = accounts[accounts[id].subscription[_idUser].id].posts[_idPost].hash;\r\n        string memory  description = accounts[accounts[id].subscription[_idUser].id].posts[_idPost].description;\r\n        uint256 date = accounts[accounts[id].subscription[_idUser].id].posts[_idPost].date;\r\n        return(imageCount,hash,description,date);\r\n        }else{\r\n            bytes32[] memory hash = new bytes32[](1);\r\n            string memory  description =\"post delete\";\r\n            uint256 date = accounts[accounts[id].subscription[_idUser].id].posts[_idPost].date;\r\n            return(0,hash,description,date);\r\n        }\r\n    }\r\n    function subscribe(string memory _login,uint8 _count)\r\n    public payable _isRegistrated _loginIsUsed(_login)\r\n    {\r\n        \r\n        require(_count>0,\"_count must be bigger 0\");\r\n       \r\n        require((msg.value) >=(accounts[findIdByLogin(_login)].priceSubcribe*uint256(_count) ),\"need more money\");\r\n        uint256 subscriberId =findIdByAddress();\r\n        uint256 id=findIdByLogin(_login);\r\n        \r\n        require(id!=subscriberId,\"subscribe on myself is not accepted\");\r\n        accounts[subscriberId].subscription[accounts[subscriberId].countsSubscription].id=id;\r\n        accounts[subscriberId].subscription[accounts[subscriberId].countsSubscription].paid=true;\r\n        accounts[subscriberId].subscription[accounts[subscriberId].countsSubscription++].date=(uint256(block.timestamp))+30*24*60*60*_count;\r\n     \r\n        accounts[id].subscribers++;\r\n        accounts[id].author.transfer(msg.value);\r\n        emit Subscribed(accounts[id].login);\r\n        checkSubscription();\r\n    }\r\n    function getName() public view returns(string memory)  {\r\n        return name;\r\n    }\r\n    \r\n    \r\n    // /** We don't want to accept payments without subscription selection */\r\n    // fallback()   external payable {\r\n    //     require(true,\"Plain payments not accepted\");\r\n    // }\r\n    \r\n}",
  "sourcePath": "C:/Users/ilau020203/Desktop/decentonly_fans/contracts/DecentOF.sol",
  "compiler": {
    "name": "solc",
    "version": "0.5.16+commit.9c3226ce.Emscripten.clang"
  },
  "schemaVersion": "3.4.1",
  "updatedAt": "2021-07-29T11:04:33.645Z",
  "networkType": "ethereum",
  "devdoc": {
    "methods": {}
  },
  "userdoc": {
    "methods": {}
  }
}