{
  "contractName": "DecentOF",
  "abi": [
    {
      "anonymous": false,
      "inputs": [
        {
          "indexed": false,
          "internalType": "string",
          "name": "login",
          "type": "string"
        }
      ],
      "name": "Subscribed",
      "type": "event"
    },
    {
      "anonymous": false,
      "inputs": [
        {
          "indexed": false,
          "internalType": "string",
          "name": "login",
          "type": "string"
        }
      ],
      "name": "UnSubscribed",
      "type": "event"
    },
    {
      "constant": true,
      "inputs": [],
      "name": "getTime",
      "outputs": [
        {
          "internalType": "uint256",
          "name": "",
          "type": "uint256"
        }
      ],
      "payable": false,
      "stateMutability": "view",
      "type": "function"
    },
    {
      "constant": true,
      "inputs": [
        {
          "internalType": "string",
          "name": "_input",
          "type": "string"
        }
      ],
      "name": "isUniqueLogin",
      "outputs": [
        {
          "internalType": "bool",
          "name": "",
          "type": "bool"
        }
      ],
      "payable": false,
      "stateMutability": "view",
      "type": "function"
    },
    {
      "constant": true,
      "inputs": [],
      "name": "isRegistrated",
      "outputs": [
        {
          "internalType": "bool",
          "name": "",
          "type": "bool"
        }
      ],
      "payable": false,
      "stateMutability": "view",
      "type": "function"
    },
    {
      "constant": true,
      "inputs": [],
      "name": "getMyCountPost",
      "outputs": [
        {
          "internalType": "uint256",
          "name": "",
          "type": "uint256"
        }
      ],
      "payable": false,
      "stateMutability": "view",
      "type": "function"
    },
    {
      "constant": true,
      "inputs": [
        {
          "internalType": "uint256",
          "name": "_index",
          "type": "uint256"
        }
      ],
      "name": "getMyPostById",
      "outputs": [
        {
          "internalType": "uint8",
          "name": "",
          "type": "uint8"
        },
        {
          "internalType": "bytes32[]",
          "name": "",
          "type": "bytes32[]"
        },
        {
          "internalType": "string",
          "name": "",
          "type": "string"
        },
        {
          "internalType": "uint256",
          "name": "",
          "type": "uint256"
        }
      ],
      "payable": false,
      "stateMutability": "view",
      "type": "function"
    },
    {
      "constant": false,
      "inputs": [
        {
          "internalType": "uint256",
          "name": "_index",
          "type": "uint256"
        }
      ],
      "name": "setVisiblePostById",
      "outputs": [],
      "payable": false,
      "stateMutability": "nonpayable",
      "type": "function"
    },
    {
      "constant": false,
      "inputs": [
        {
          "internalType": "uint256",
          "name": "_index",
          "type": "uint256"
        }
      ],
      "name": "setUnvisiblePostById",
      "outputs": [],
      "payable": false,
      "stateMutability": "nonpayable",
      "type": "function"
    },
    {
      "constant": true,
      "inputs": [],
      "name": "findIdByAddress",
      "outputs": [
        {
          "internalType": "uint256",
          "name": "",
          "type": "uint256"
        }
      ],
      "payable": false,
      "stateMutability": "view",
      "type": "function"
    },
    {
      "constant": false,
      "inputs": [
        {
          "internalType": "string",
          "name": "_login",
          "type": "string"
        },
        {
          "internalType": "bytes32",
          "name": "_avatarHash",
          "type": "bytes32"
        },
        {
          "internalType": "string",
          "name": "_status",
          "type": "string"
        },
        {
          "internalType": "uint256",
          "name": "_priceSubcribe",
          "type": "uint256"
        }
      ],
      "name": "registration",
      "outputs": [],
      "payable": false,
      "stateMutability": "nonpayable",
      "type": "function"
    },
    {
      "constant": false,
      "inputs": [
        {
          "internalType": "string",
          "name": "_description",
          "type": "string"
        },
        {
          "internalType": "uint8",
          "name": "_imageCount",
          "type": "uint8"
        },
        {
          "internalType": "bytes32[]",
          "name": "_hash",
          "type": "bytes32[]"
        }
      ],
      "name": "newPost",
      "outputs": [],
      "payable": false,
      "stateMutability": "nonpayable",
      "type": "function"
    },
    {
      "constant": true,
      "inputs": [
        {
          "internalType": "string",
          "name": "_login",
          "type": "string"
        }
      ],
      "name": "isSubucriberByLogin",
      "outputs": [
        {
          "internalType": "bool",
          "name": "",
          "type": "bool"
        }
      ],
      "payable": false,
      "stateMutability": "view",
      "type": "function"
    },
    {
      "constant": true,
      "inputs": [
        {
          "internalType": "string",
          "name": "_login",
          "type": "string"
        }
      ],
      "name": "getIdByLogin",
      "outputs": [
        {
          "internalType": "uint64",
          "name": "",
          "type": "uint64"
        }
      ],
      "payable": false,
      "stateMutability": "view",
      "type": "function"
    },
    {
      "constant": true,
      "inputs": [],
      "name": "getMyData",
      "outputs": [
        {
          "internalType": "string",
          "name": "",
          "type": "string"
        },
        {
          "internalType": "bytes32",
          "name": "",
          "type": "bytes32"
        },
        {
          "internalType": "string",
          "name": "",
          "type": "string"
        },
        {
          "internalType": "uint256",
          "name": "",
          "type": "uint256"
        },
        {
          "internalType": "uint256",
          "name": "",
          "type": "uint256"
        }
      ],
      "payable": false,
      "stateMutability": "view",
      "type": "function"
    },
    {
      "constant": true,
      "inputs": [
        {
          "internalType": "string",
          "name": "_login",
          "type": "string"
        }
      ],
      "name": "getDataByLogin",
      "outputs": [
        {
          "internalType": "string",
          "name": "",
          "type": "string"
        },
        {
          "internalType": "bytes32",
          "name": "",
          "type": "bytes32"
        },
        {
          "internalType": "string",
          "name": "",
          "type": "string"
        },
        {
          "internalType": "uint256",
          "name": "",
          "type": "uint256"
        },
        {
          "internalType": "uint256",
          "name": "",
          "type": "uint256"
        }
      ],
      "payable": false,
      "stateMutability": "view",
      "type": "function"
    },
    {
      "constant": false,
      "inputs": [
        {
          "internalType": "string",
          "name": "input",
          "type": "string"
        }
      ],
      "name": "setStatus",
      "outputs": [],
      "payable": false,
      "stateMutability": "nonpayable",
      "type": "function"
    },
    {
      "constant": false,
      "inputs": [
        {
          "internalType": "bytes32",
          "name": "input",
          "type": "bytes32"
        }
      ],
      "name": "setAvatarHash",
      "outputs": [],
      "payable": false,
      "stateMutability": "nonpayable",
      "type": "function"
    },
    {
      "constant": false,
      "inputs": [
        {
          "internalType": "string",
          "name": "input",
          "type": "string"
        }
      ],
      "name": "setLogin",
      "outputs": [],
      "payable": false,
      "stateMutability": "nonpayable",
      "type": "function"
    },
    {
      "constant": false,
      "inputs": [
        {
          "internalType": "uint256",
          "name": "input",
          "type": "uint256"
        }
      ],
      "name": "setPriceSubcribe",
      "outputs": [],
      "payable": false,
      "stateMutability": "nonpayable",
      "type": "function"
    },
    {
      "constant": true,
      "inputs": [
        {
          "internalType": "uint64",
          "name": "_index",
          "type": "uint64"
        }
      ],
      "name": "getSubscriptions",
      "outputs": [
        {
          "internalType": "string",
          "name": "",
          "type": "string"
        },
        {
          "internalType": "bytes32",
          "name": "",
          "type": "bytes32"
        },
        {
          "internalType": "string",
          "name": "",
          "type": "string"
        },
        {
          "internalType": "uint256",
          "name": "",
          "type": "uint256"
        },
        {
          "internalType": "uint256",
          "name": "",
          "type": "uint256"
        },
        {
          "internalType": "bool",
          "name": "",
          "type": "bool"
        }
      ],
      "payable": false,
      "stateMutability": "view",
      "type": "function"
    },
    {
      "constant": true,
      "inputs": [
        {
          "internalType": "uint256",
          "name": "_id",
          "type": "uint256"
        },
        {
          "internalType": "uint256",
          "name": "_subscribe",
          "type": "uint256"
        }
      ],
      "name": "getLoginFilterBySubcribe",
      "outputs": [
        {
          "internalType": "string",
          "name": "",
          "type": "string"
        }
      ],
      "payable": false,
      "stateMutability": "view",
      "type": "function"
    },
    {
      "constant": true,
      "inputs": [
        {
          "internalType": "uint256",
          "name": "_subscribe",
          "type": "uint256"
        }
      ],
      "name": "getCountAccountBySubcribe",
      "outputs": [
        {
          "internalType": "uint256",
          "name": "",
          "type": "uint256"
        }
      ],
      "payable": false,
      "stateMutability": "view",
      "type": "function"
    },
    {
      "constant": false,
      "inputs": [],
      "name": "unsubscribe",
      "outputs": [],
      "payable": false,
      "stateMutability": "nonpayable",
      "type": "function"
    },
    {
      "constant": true,
      "inputs": [],
      "name": "getCountSubscriptions",
      "outputs": [
        {
          "internalType": "uint64",
          "name": "",
          "type": "uint64"
        }
      ],
      "payable": false,
      "stateMutability": "view",
      "type": "function"
    },
    {
      "constant": true,
      "inputs": [],
      "name": "checkSubscription",
      "outputs": [
        {
          "internalType": "bool",
          "name": "",
          "type": "bool"
        }
      ],
      "payable": false,
      "stateMutability": "view",
      "type": "function"
    },
    {
      "constant": true,
      "inputs": [],
      "name": "getCountUnsubcribtion",
      "outputs": [
        {
          "internalType": "uint64",
          "name": "",
          "type": "uint64"
        }
      ],
      "payable": false,
      "stateMutability": "view",
      "type": "function"
    },
    {
      "constant": true,
      "inputs": [
        {
          "internalType": "uint64",
          "name": "_number",
          "type": "uint64"
        }
      ],
      "name": "getIdUnsubscriptionByNumber",
      "outputs": [
        {
          "internalType": "uint64",
          "name": "",
          "type": "uint64"
        }
      ],
      "payable": false,
      "stateMutability": "view",
      "type": "function"
    },
    {
      "constant": true,
      "inputs": [
        {
          "internalType": "uint64",
          "name": "_idUser",
          "type": "uint64"
        }
      ],
      "name": "getSubscriptionCountPostByIdUser",
      "outputs": [
        {
          "internalType": "uint256",
          "name": "",
          "type": "uint256"
        }
      ],
      "payable": false,
      "stateMutability": "view",
      "type": "function"
    },
    {
      "constant": true,
      "inputs": [
        {
          "internalType": "uint64",
          "name": "_idUser",
          "type": "uint64"
        },
        {
          "internalType": "uint256",
          "name": "_idPost",
          "type": "uint256"
        }
      ],
      "name": "getSubscriptionPostByIdUser",
      "outputs": [
        {
          "internalType": "uint8",
          "name": "",
          "type": "uint8"
        },
        {
          "internalType": "bytes32[]",
          "name": "",
          "type": "bytes32[]"
        },
        {
          "internalType": "string",
          "name": "",
          "type": "string"
        },
        {
          "internalType": "uint256",
          "name": "",
          "type": "uint256"
        }
      ],
      "payable": false,
      "stateMutability": "view",
      "type": "function"
    },
    {
      "constant": false,
      "inputs": [
        {
          "internalType": "string",
          "name": "_login",
          "type": "string"
        },
        {
          "internalType": "uint8",
          "name": "_count",
          "type": "uint8"
        }
      ],
      "name": "subscribe",
      "outputs": [],
      "payable": true,
      "stateMutability": "payable",
      "type": "function"
    },
    {
      "constant": true,
      "inputs": [],
      "name": "getName",
      "outputs": [
        {
          "internalType": "string",
          "name": "",
          "type": "string"
        }
      ],
      "payable": false,
      "stateMutability": "view",
      "type": "function"
    }
  ],
  "bytecode": "0x60806040526040518060400160405280600881526020017f446563656e744f46000000000000000000000000000000000000000000000000815250600090805190602001906200005192919062000066565b503480156200005f57600080fd5b5062000115565b828054600181600116156101000203166002900490600052602060002090601f016020900481019282601f10620000a957805160ff1916838001178555620000da565b82800160010185558215620000da579182015b82811115620000d9578251825591602001919060010190620000bc565b5b509050620000e99190620000ed565b5090565b6200011291905b808211156200010e576000816000905550600101620000f4565b5090565b90565b614a9b80620001256000396000f3fe6080604052600436106101cd5760003560e01c80638b55ca2d116100f7578063d0ce471211610095578063ebb67e3611610064578063ebb67e3614611319578063f6eb619c14611368578063fcae448414611478578063ffa92d291461148f576101cd565b8063d0ce471214610f9f578063d1f3d09214610fce578063d9c8a38b146110be578063e1942bac146111cf576101cd565b8063936b6f78116100d1578063936b6f7814610c2b57806397bb2d4d14610c845780639aeff4bd14610cc3578063c605f11614610e2c576101cd565b80638b55ca2d1461090a578063900fd1ed1461094557806392faec0114610b07576101cd565b80635aedf9ab1161016f5780637d2211d61161013e5780637d2211d6146106fc5780637d2786e2146107c45780638374c60b146107ff578063850171f2146108df576101cd565b80635aedf9ab146105085780635f093dd1146105475780636895b290146106055780636e2e9c18146106cd576101cd565b806317d7de7c116101ab57806317d7de7c1461034a5780631e1f42dc146103da578063278759cd14610415578063557ed1ba146104dd576101cd565b806302edf6ad146101d257806302f98784146101fd57806314ac3d9c146102dd575b600080fd5b3480156101de57600080fd5b506101e76114ca565b6040518082815260200191505060405180910390f35b34801561020957600080fd5b506102c36004803603602081101561022057600080fd5b810190808035906020019064010000000081111561023d57600080fd5b82018360208201111561024f57600080fd5b8035906020019184600183028401116401000000008311171561027157600080fd5b91908080601f016020809104026020016040519081016040528093929190818152602001838380828437600081840152601f19601f82011690508083019250505050505050919291929050505061154c565b604051808215151515815260200191505060405180910390f35b3480156102e957600080fd5b506103206004803603602081101561030057600080fd5b81019080803567ffffffffffffffff1690602001909291905050506117fe565b604051808267ffffffffffffffff1667ffffffffffffffff16815260200191505060405180910390f35b34801561035657600080fd5b5061035f6119ba565b6040518080602001828103825283818151815260200191508051906020019080838360005b8381101561039f578082015181840152602081019050610384565b50505050905090810190601f1680156103cc5780820380516001836020036101000a031916815260200191505b509250505060405180910390f35b3480156103e657600080fd5b50610413600480360360208110156103fd57600080fd5b8101908080359060200190929190505050611a5c565b005b34801561042157600080fd5b506104db6004803603602081101561043857600080fd5b810190808035906020019064010000000081111561045557600080fd5b82018360208201111561046757600080fd5b8035906020019184600183028401116401000000008311171561048957600080fd5b91908080601f016020809104026020016040519081016040528093929190818152602001838380828437600081840152601f19601f820116905080830192505050505050509192919290505050611b96565b005b3480156104e957600080fd5b506104f2611ca5565b6040518082815260200191505060405180910390f35b34801561051457600080fd5b5061051d611cb2565b604051808267ffffffffffffffff1667ffffffffffffffff16815260200191505060405180910390f35b34801561055357600080fd5b5061058a6004803603604081101561056a57600080fd5b810190808035906020019092919080359060200190929190505050611d48565b6040518080602001828103825283818151815260200191508051906020019080838360005b838110156105ca5780820151818401526020810190506105af565b50505050905090810190601f1680156105f75780820380516001836020036101000a031916815260200191505b509250505060405180910390f35b6106cb6004803603604081101561061b57600080fd5b810190808035906020019064010000000081111561063857600080fd5b82018360208201111561064a57600080fd5b8035906020019184600183028401116401000000008311171561066c57600080fd5b91908080601f016020809104026020016040519081016040528093929190818152602001838380828437600081840152601f19601f820116905080830192505050505050509192919290803560ff169060200190929190505050611e59565b005b3480156106d957600080fd5b506106e26123d0565b604051808215151515815260200191505060405180910390f35b34801561070857600080fd5b506107c26004803603602081101561071f57600080fd5b810190808035906020019064010000000081111561073c57600080fd5b82018360208201111561074e57600080fd5b8035906020019184600183028401116401000000008311171561077057600080fd5b91908080601f016020809104026020016040519081016040528093929190818152602001838380828437600081840152601f19601f8201169050808301925050505050505091929192905050506124ef565b005b3480156107d057600080fd5b506107fd600480360360208110156107e757600080fd5b8101908080359060200190929190505050612581565b005b34801561080b57600080fd5b506108c56004803603602081101561082257600080fd5b810190808035906020019064010000000081111561083f57600080fd5b82018360208201111561085157600080fd5b8035906020019184600183028401116401000000008311171561087357600080fd5b91908080601f016020809104026020016040519081016040528093929190818152602001838380828437600081840152601f19601f820116905080830192505050505050509192919290505050612603565b604051808215151515815260200191505060405180910390f35b3480156108eb57600080fd5b506108f4612787565b6040518082815260200191505060405180910390f35b34801561091657600080fd5b506109436004803603602081101561092d57600080fd5b810190808035906020019092919050505061288e565b005b34801561095157600080fd5b50610a0b6004803603602081101561096857600080fd5b810190808035906020019064010000000081111561098557600080fd5b82018360208201111561099757600080fd5b803590602001918460018302840111640100000000831117156109b957600080fd5b91908080601f016020809104026020016040519081016040528093929190818152602001838380828437600081840152601f19601f8201169050808301925050505050505091929192905050506129c8565b604051808060200186815260200180602001858152602001848152602001838103835288818151815260200191508051906020019080838360005b83811015610a61578082015181840152602081019050610a46565b50505050905090810190601f168015610a8e5780820380516001836020036101000a031916815260200191505b50838103825286818151815260200191508051906020019080838360005b83811015610ac7578082015181840152602081019050610aac565b50505050905090810190601f168015610af45780820380516001836020036101000a031916815260200191505b5097505050505050505060405180910390f35b348015610b1357600080fd5b50610b5460048036036040811015610b2a57600080fd5b81019080803567ffffffffffffffff16906020019092919080359060200190929190505050612b53565b604051808560ff1660ff1681526020018060200180602001848152602001838103835286818151815260200191508051906020019060200280838360005b83811015610bad578082015181840152602081019050610b92565b50505050905001838103825285818151815260200191508051906020019080838360005b83811015610bec578082015181840152602081019050610bd1565b50505050905090810190601f168015610c195780820380516001836020036101000a031916815260200191505b50965050505050505060405180910390f35b348015610c3757600080fd5b50610c6e60048036036020811015610c4e57600080fd5b81019080803567ffffffffffffffff169060200190929190505050613171565b6040518082815260200191505060405180910390f35b348015610c9057600080fd5b50610c99613239565b604051808267ffffffffffffffff1667ffffffffffffffff16815260200191505060405180910390f35b348015610ccf57600080fd5b50610e2a60048036036060811015610ce657600080fd5b8101908080359060200190640100000000811115610d0357600080fd5b820183602082011115610d1557600080fd5b80359060200191846001830284011164010000000083111715610d3757600080fd5b91908080601f016020809104026020016040519081016040528093929190818152602001838380828437600081840152601f19601f820116905080830192505050505050509192919290803560ff16906020019092919080359060200190640100000000811115610da757600080fd5b820183602082011115610db957600080fd5b80359060200191846020830284011164010000000083111715610ddb57600080fd5b919080806020026020016040519081016040528093929190818152602001838360200280828437600081840152601f19601f82011690508083019250505050505050919291929050505061335a565b005b348015610e3857600080fd5b50610f9d60048036036080811015610e4f57600080fd5b8101908080359060200190640100000000811115610e6c57600080fd5b820183602082011115610e7e57600080fd5b80359060200191846001830284011164010000000083111715610ea057600080fd5b91908080601f016020809104026020016040519081016040528093929190818152602001838380828437600081840152601f19601f8201169050808301925050505050505091929192908035906020019092919080359060200190640100000000811115610f0d57600080fd5b820183602082011115610f1f57600080fd5b80359060200191846001830284011164010000000083111715610f4157600080fd5b91908080601f016020809104026020016040519081016040528093929190818152602001838380828437600081840152601f19601f82011690508083019250505050505050919291929080359060200190929190505050613584565b005b348015610fab57600080fd5b50610fb46137cc565b604051808215151515815260200191505060405180910390f35b348015610fda57600080fd5b5061109460048036036020811015610ff157600080fd5b810190808035906020019064010000000081111561100e57600080fd5b82018360208201111561102057600080fd5b8035906020019184600183028401116401000000008311171561104257600080fd5b91908080601f016020809104026020016040519081016040528093929190818152602001838380828437600081840152601f19601f820116905080830192505050505050509192919290505050613868565b604051808267ffffffffffffffff1667ffffffffffffffff16815260200191505060405180910390f35b3480156110ca57600080fd5b506110d3613b20565b604051808060200186815260200180602001858152602001848152602001838103835288818151815260200191508051906020019080838360005b8381101561112957808201518184015260208101905061110e565b50505050905090810190601f1680156111565780820380516001836020036101000a031916815260200191505b50838103825286818151815260200191508051906020019080838360005b8381101561118f578082015181840152602081019050611174565b50505050905090810190601f1680156111bc5780820380516001836020036101000a031916815260200191505b5097505050505050505060405180910390f35b3480156111db57600080fd5b50611212600480360360208110156111f257600080fd5b81019080803567ffffffffffffffff169060200190929190505050613d05565b60405180806020018781526020018060200186815260200185815260200184151515158152602001838103835289818151815260200191508051906020019080838360005b83811015611272578082015181840152602081019050611257565b50505050905090810190601f16801561129f5780820380516001836020036101000a031916815260200191505b50838103825287818151815260200191508051906020019080838360005b838110156112d85780820151818401526020810190506112bd565b50505050905090810190601f1680156113055780820380516001836020036101000a031916815260200191505b509850505050505050505060405180910390f35b34801561132557600080fd5b506113526004803603602081101561133c57600080fd5b8101908080359060200190929190505050614183565b6040518082815260200191505060405180910390f35b34801561137457600080fd5b506113a16004803603602081101561138b57600080fd5b81019080803590602001909291905050506141d7565b604051808560ff1660ff1681526020018060200180602001848152602001838103835286818151815260200191508051906020019060200280838360005b838110156113fa5780820151818401526020810190506113df565b50505050905001838103825285818151815260200191508051906020019080838360005b8381101561143957808201518184015260208101905061141e565b50505050905090810190601f1680156114665780820380516001836020036101000a031916815260200191505b50965050505050505060405180910390f35b34801561148457600080fd5b5061148d6143b2565b005b34801561149b57600080fd5b506114c8600480360360208110156114b257600080fd5b810190808035906020019092919050505061462a565b005b60006114d46137cc565b611529576040517f08c379a0000000000000000000000000000000000000000000000000000000008152600401808060200182810382526026815260200180614a416026913960400191505060405180910390fd5b60016000611535612787565b815260200190815260200160002060000154905090565b60006115566137cc565b6115ab576040517f08c379a0000000000000000000000000000000000000000000000000000000008152600401808060200182810382526026815260200180614a416026913960400191505060405180910390fd5b60006115b5612787565b905060008090505b6001600083815260200190815260200160002060080160149054906101000a900467ffffffffffffffff1667ffffffffffffffff168167ffffffffffffffff1610156117f257836040516020018080602001828103825283818151815260200191508051906020019080838360005b8381101561164757808201518184015260208101905061162c565b50505050905090810190601f1680156116745780820380516001836020036101000a031916815260200191505b509250505060405160208183030381529060405280519060200120600160006001600086815260200190815260200160002060050160008567ffffffffffffffff1667ffffffffffffffff168152602001908152602001600020600001548152602001908152602001600020600601604051602001808060200182810382528381815460018160011615610100020316600290048152602001915080546001816001161561010002031660029004801561176f5780601f106117445761010080835404028352916020019161176f565b820191906000526020600020905b81548152906001019060200180831161175257829003601f168201915b505092505050604051602081830303815290604052805190602001201480156117d557506001600083815260200190815260200160002060050160008267ffffffffffffffff1667ffffffffffffffff1681526020019081526020016000206001015442105b156117e5576001925050506117f9565b80806001019150506115bd565b5060009150505b919050565b60006118086137cc565b61185d576040517f08c379a0000000000000000000000000000000000000000000000000000000008152600401808060200182810382526026815260200180614a416026913960400191505060405180910390fd5b6000611867612787565b9050600080905060008090505b6001600084815260200190815260200160002060080160149054906101000a900467ffffffffffffffff1667ffffffffffffffff168167ffffffffffffffff16101561193d576001600084815260200190815260200160002060050160008267ffffffffffffffff1667ffffffffffffffff16815260200190815260200160002060010154421115611930578167ffffffffffffffff168567ffffffffffffffff161415611927578093505050506119b5565b81806001019250505b8080600101915050611874565b5060016119b2576040517f08c379a000000000000000000000000000000000000000000000000000000000815260040180806020018281038252600b8152602001807f626164205f6e756d62657200000000000000000000000000000000000000000081525060200191505060405180910390fd5b50505b919050565b606060008054600181600116156101000203166002900480601f016020809104026020016040519081016040528092919081815260200182805460018160011615610100020316600290048015611a525780601f10611a2757610100808354040283529160200191611a52565b820191906000526020600020905b815481529060010190602001808311611a3557829003601f168201915b5050505050905090565b611a646137cc565b611ab9576040517f08c379a0000000000000000000000000000000000000000000000000000000008152600401808060200182810382526026815260200180614a416026913960400191505060405180910390fd5b6000611ac3612787565b905081600160008381526020019081526020016000206000015411611b50576040517f08c379a00000000000000000000000000000000000000000000000000000000081526004018080602001828103825260148152602001807f646f6e74206578697374207468697320706f737400000000000000000000000081525060200191505060405180910390fd5b6001806000838152602001908152602001600020600401600084815260200190815260200160002060030160016101000a81548160ff0219169083151502179055505050565b611b9e6137cc565b611bf3576040517f08c379a0000000000000000000000000000000000000000000000000000000008152600401808060200182810382526026815260200180614a416026913960400191505060405180910390fd5b80611bfd81612603565b611c6f576040517f08c379a00000000000000000000000000000000000000000000000000000000081526004018080602001828103825260128152602001807f74686973206c6f67696e2069732075736564000000000000000000000000000081525060200191505060405180910390fd5b8160016000611c7c612787565b81526020019081526020016000206006019080519060200190611ca092919061483e565b505050565b6000804290508091505090565b6000611cbc6137cc565b611d11576040517f08c379a0000000000000000000000000000000000000000000000000000000008152600401808060200182810382526026815260200180614a416026913960400191505060405180910390fd5b60016000611d1d612787565b815260200190815260200160002060080160149054906101000a900467ffffffffffffffff16905090565b6060600080905060008090505b600254811015611e505783600160008381526020019081526020016000206002015410611e435784828060010193501415611e4257600160008281526020019081526020016000206006018054600181600116156101000203166002900480601f016020809104026020016040519081016040528092919081815260200182805460018160011615610100020316600290048015611e345780601f10611e0957610100808354040283529160200191611e34565b820191906000526020600020905b815481529060010190602001808311611e1757829003601f168201915b505050505092505050611e53565b5b8080600101915050611d55565b50505b92915050565b611e616137cc565b611eb6576040517f08c379a0000000000000000000000000000000000000000000000000000000008152600401808060200182810382526026815260200180614a416026913960400191505060405180910390fd5b81611ec081612603565b15611f33576040517f08c379a00000000000000000000000000000000000000000000000000000000081526004018080602001828103825260158152602001807f74686973206c6f67696e20646f6e74206578697374000000000000000000000081525060200191505060405180910390fd5b60008260ff1611611fac576040517f08c379a00000000000000000000000000000000000000000000000000000000081526004018080602001828103825260178152602001807f5f636f756e74206d75737420626520626967676572203000000000000000000081525060200191505060405180910390fd5b8160ff1660016000611fbd866146ac565b81526020019081526020016000206001015402341015612045576040517f08c379a000000000000000000000000000000000000000000000000000000000815260040180806020018281038252600f8152602001807f6e656564206d6f7265206d6f6e6579000000000000000000000000000000000081525060200191505060405180910390fd5b600061204f612787565b9050600061205c856146ac565b9050818114156120b7576040517f08c379a0000000000000000000000000000000000000000000000000000000008152600401808060200182810382526023815260200180614a1e6023913960400191505060405180910390fd5b806001600084815260200190815260200160002060050160006001600086815260200190815260200160002060080160149054906101000a900467ffffffffffffffff1667ffffffffffffffff1667ffffffffffffffff16815260200190815260200160002060000181905550600180600084815260200190815260200160002060050160006001600086815260200190815260200160002060080160149054906101000a900467ffffffffffffffff1667ffffffffffffffff1667ffffffffffffffff16815260200190815260200160002060020160006101000a81548160ff0219169083151502179055508360ff1662278d000262ffffff16420160016000848152602001908152602001600020600501600060016000868152602001908152602001600020600801601481819054906101000a900467ffffffffffffffff168092919060010191906101000a81548167ffffffffffffffff021916908367ffffffffffffffff16021790555067ffffffffffffffff1667ffffffffffffffff1681526020019081526020016000206001018190555060016000828152602001908152602001600020600201600081548092919060010191905055506001600082815260200190815260200160002060080160009054906101000a900473ffffffffffffffffffffffffffffffffffffffff1673ffffffffffffffffffffffffffffffffffffffff166108fc349081150290604051600060405180830381858888f193505050501580156122f1573d6000803e3d6000fd5b507f3a25bf5bebe58dddd506ced2de5e3aecbcf21c77809a24e8705790311b448d026001600083815260200190815260200160002060060160405180806020018281038252838181546001816001161561010002031660029004815260200191508054600181600116156101000203166002900480156123b25780601f10612387576101008083540402835291602001916123b2565b820191906000526020600020905b81548152906001019060200180831161239557829003601f168201915b50509250505060405180910390a16123c86123d0565b505050505050565b60006123da6137cc565b61242f576040517f08c379a0000000000000000000000000000000000000000000000000000000008152600401808060200182810382526026815260200180614a416026913960400191505060405180910390fd5b6000612439612787565b905060008090505b6001600083815260200190815260200160002060080160149054906101000a900467ffffffffffffffff1667ffffffffffffffff168167ffffffffffffffff1610156124e5576001600083815260200190815260200160002060050160008267ffffffffffffffff1667ffffffffffffffff168152602001908152602001600020600101544211156124d8576000925050506124ec565b8080600101915050612441565b5060019150505b90565b6124f76137cc565b61254c576040517f08c379a0000000000000000000000000000000000000000000000000000000008152600401808060200182810382526026815260200180614a416026913960400191505060405180910390fd5b8060016000612559612787565b8152602001908152602001600020600701908051906020019061257d92919061483e565b5050565b6125896137cc565b6125de576040517f08c379a0000000000000000000000000000000000000000000000000000000008152600401808060200182810382526026815260200180614a416026913960400191505060405180910390fd5b80600160006125eb612787565b81526020019081526020016000206001018190555050565b600080600090505b60025481101561277c576001600082815260200190815260200160002060060160405160200180806020018281038252838181546001816001161561010002031660029004815260200191508054600181600116156101000203166002900480156126b75780601f1061268c576101008083540402835291602001916126b7565b820191906000526020600020905b81548152906001019060200180831161269a57829003601f168201915b50509250505060405160208183030381529060405280519060200120836040516020018080602001828103825283818151815260200191508051906020019080838360005b838110156127175780820151818401526020810190506126fc565b50505050905090810190601f1680156127445780820380516001836020036101000a031916815260200191505b509250505060405160208183030381529060405280519060200120141561276f576000915050612782565b808060010191505061260b565b50600190505b919050565b60006127916137cc565b6127e6576040517f08c379a0000000000000000000000000000000000000000000000000000000008152600401808060200182810382526026815260200180614a416026913960400191505060405180910390fd5b60008090505b600254811015612876576001600082815260200190815260200160002060080160009054906101000a900473ffffffffffffffffffffffffffffffffffffffff1673ffffffffffffffffffffffffffffffffffffffff163373ffffffffffffffffffffffffffffffffffffffff161415612869578091505061288b565b80806001019150506127ec565b506fffffffffffffffffffffffffffffffff90505b90565b6128966137cc565b6128eb576040517f08c379a0000000000000000000000000000000000000000000000000000000008152600401808060200182810382526026815260200180614a416026913960400191505060405180910390fd5b60006128f5612787565b905081600160008381526020019081526020016000206000015411612982576040517f08c379a00000000000000000000000000000000000000000000000000000000081526004018080602001828103825260148152602001807f646f6e74206578697374207468697320706f737400000000000000000000000081525060200191505060405180910390fd5b6001806000838152602001908152602001600020600401600084815260200190815260200160002060030160016101000a81548160ff0219169083151502179055505050565b6060600060606000806000600160006129e0896146ac565b815260200190815260200160002090508060060181600301548260070183600101548460020154848054600181600116156101000203166002900480601f016020809104026020016040519081016040528092919081815260200182805460018160011615610100020316600290048015612a9c5780601f10612a7157610100808354040283529160200191612a9c565b820191906000526020600020905b815481529060010190602001808311612a7f57829003601f168201915b50505050509450828054600181600116156101000203166002900480601f016020809104026020016040519081016040528092919081815260200182805460018160011615610100020316600290048015612b385780601f10612b0d57610100808354040283529160200191612b38565b820191906000526020600020905b815481529060010190602001808311612b1b57829003601f168201915b50505050509250955095509550955095505091939590929450565b60006060806000612b626137cc565b612bb7576040517f08c379a0000000000000000000000000000000000000000000000000000000008152600401808060200182810382526026815260200180614a416026913960400191505060405180910390fd5b6000612bc1612787565b90506001600082815260200190815260200160002060080160149054906101000a900467ffffffffffffffff1667ffffffffffffffff168767ffffffffffffffff1610612c76576040517f08c379a00000000000000000000000000000000000000000000000000000000081526004018080602001828103825260108152602001807f646f6e277420657869737420757365720000000000000000000000000000000081525060200191505060405180910390fd5b600160006001600084815260200190815260200160002060050160008a67ffffffffffffffff1667ffffffffffffffff168152602001908152602001600020600001548152602001908152602001600020600001548610612d3f576040517f08c379a00000000000000000000000000000000000000000000000000000000081526004018080602001828103825260118152602001807f646f6e277420657869737420706f73742000000000000000000000000000000081525060200191505060405180910390fd5b600160006001600084815260200190815260200160002060050160008a67ffffffffffffffff1667ffffffffffffffff168152602001908152602001600020600001548152602001908152602001600020600401600087815260200190815260200160002060030160019054906101000a900460ff1615613077576000600160006001600085815260200190815260200160002060050160008b67ffffffffffffffff1667ffffffffffffffff168152602001908152602001600020600001548152602001908152602001600020600401600088815260200190815260200160002060030160009054906101000a900460ff1690506060600160006001600086815260200190815260200160002060050160008c67ffffffffffffffff1667ffffffffffffffff1681526020019081526020016000206000015481526020019081526020016000206004016000898152602001908152602001600020600101805480602002602001604051908101604052809291908181526020018280548015612ee857602002820191906000526020600020905b815481526020019060010190808311612ed4575b505050505090506060600160006001600087815260200190815260200160002060050160008d67ffffffffffffffff1667ffffffffffffffff16815260200190815260200160002060000154815260200190815260200160002060040160008a81526020019081526020016000206002018054600181600116156101000203166002900480601f016020809104026020016040519081016040528092919081815260200182805460018160011615610100020316600290048015612fed5780601f10612fc257610100808354040283529160200191612fed565b820191906000526020600020905b815481529060010190602001808311612fd057829003601f168201915b505050505090506000600160006001600088815260200190815260200160002060050160008e67ffffffffffffffff1667ffffffffffffffff16815260200190815260200160002060000154815260200190815260200160002060040160008b81526020019081526020016000206000015490508383838398509850985098505050505050613168565b606060016040519080825280602002602001820160405280156130a95781602001602082028038833980820191505090505b50905060606040518060400160405280600b81526020017f706f73742064656c65746500000000000000000000000000000000000000000081525090506000600160006001600087815260200190815260200160002060050160008d67ffffffffffffffff1667ffffffffffffffff16815260200190815260200160002060000154815260200190815260200160002060040160008a815260200190815260200160002060000154905060008383838393509750975097509750505050505b92959194509250565b600061317b6137cc565b6131d0576040517f08c379a0000000000000000000000000000000000000000000000000000000008152600401808060200182810382526026815260200180614a416026913960400191505060405180910390fd5b600060016000600160006131e2612787565b815260200190815260200160002060050160008667ffffffffffffffff1667ffffffffffffffff16815260200190815260200160002060000154815260200190815260200160002060000154905080915050919050565b60006132436137cc565b613298576040517f08c379a0000000000000000000000000000000000000000000000000000000008152600401808060200182810382526026815260200180614a416026913960400191505060405180910390fd5b60006132a2612787565b9050600080905060008090505b6001600084815260200190815260200160002060080160149054906101000a900467ffffffffffffffff1667ffffffffffffffff168167ffffffffffffffff161015613351576001600084815260200190815260200160002060050160008267ffffffffffffffff1667ffffffffffffffff168152602001908152602001600020600101544211156133445781806001019250505b80806001019150506132af565b50809250505090565b6133626137cc565b6133b7576040517f08c379a0000000000000000000000000000000000000000000000000000000008152600401808060200182810382526026815260200180614a416026913960400191505060405180910390fd5b80518260ff1614613413576040517f08c379a00000000000000000000000000000000000000000000000000000000081526004018080602001828103825260258152602001806149566025913960400191505060405180910390fd5b600061341d612787565b9050600060016000838152602001908152602001600020600401600060016000858152602001908152602001600020600001548152602001908152602001600020905060016000838152602001908152602001600020600001600081548092919060010191905055508481600201908051906020019061349e92919061483e565b5042816000018190555060018160030160016101000a81548160ff021916908315150217905550838160030160006101000a81548160ff021916908360ff1602179055508360ff166040519080825280602002602001820160405280156135145781602001602082028038833980820191505090505b5081600101908051906020019061352c9291906148be565b5060008090505b8460ff1681101561357c5783818151811061354a57fe5b602002602001015182600101828154811061356157fe5b90600052602060002001819055508080600101915050613533565b505050505050565b60008451116135de576040517f08c379a00000000000000000000000000000000000000000000000000000000081526004018080602001828103825260258152602001806149d36025913960400191505060405180910390fd5b6000831415613638576040517f08c379a000000000000000000000000000000000000000000000000000000000815260040180806020018281038252602a81526020018061497b602a913960400191505060405180910390fd5b6000825111613692576040517f08c379a00000000000000000000000000000000000000000000000000000000081526004018080602001828103825260268152602001806149f86026913960400191505060405180910390fd5b61369a6137cc565b1561370d576040517f08c379a00000000000000000000000000000000000000000000000000000000081526004018080602001828103825260158152602001807f746869732075736572206973207265676973746572000000000000000000000081525060200191505060405180910390fd5b6000600160006002600081548092919060010191905055815260200190815260200160002090508481600601908051906020019061374c92919061483e565b50838160030181905550600081600001819055508281600701908051906020019061377892919061483e565b50338160080160006101000a81548173ffffffffffffffffffffffffffffffffffffffff021916908373ffffffffffffffffffffffffffffffffffffffff1602179055508181600101819055505050505050565b600080600090505b60025481101561385f576001600082815260200190815260200160002060080160009054906101000a900473ffffffffffffffffffffffffffffffffffffffff1673ffffffffffffffffffffffffffffffffffffffff163373ffffffffffffffffffffffffffffffffffffffff161415613852576001915050613865565b80806001019150506137d4565b50600090505b90565b60006138726137cc565b6138c7576040517f08c379a0000000000000000000000000000000000000000000000000000000008152600401808060200182810382526026815260200180614a416026913960400191505060405180910390fd5b60006138d1612787565b905060008090505b6001600083815260200190815260200160002060080160149054906101000a900467ffffffffffffffff1667ffffffffffffffff168167ffffffffffffffff161015613b0d57836040516020018080602001828103825283818151815260200191508051906020019080838360005b83811015613963578082015181840152602081019050613948565b50505050905090810190601f1680156139905780820380516001836020036101000a031916815260200191505b509250505060405160208183030381529060405280519060200120600160006001600086815260200190815260200160002060050160008567ffffffffffffffff1667ffffffffffffffff1681526020019081526020016000206000015481526020019081526020016000206006016040516020018080602001828103825283818154600181600116156101000203166002900481526020019150805460018160011615610100020316600290048015613a8b5780601f10613a6057610100808354040283529160200191613a8b565b820191906000526020600020905b815481529060010190602001808311613a6e57829003601f168201915b50509250505060405160208183030381529060405280519060200120148015613af157506001600083815260200190815260200160002060050160008267ffffffffffffffff1667ffffffffffffffff1681526020019081526020016000206001015442105b15613b00578092505050613b1b565b80806001019150506138d9565b5067ffffffffffffffff9150505b919050565b606060006060600080613b316137cc565b613b86576040517f08c379a0000000000000000000000000000000000000000000000000000000008152600401808060200182810382526026815260200180614a416026913960400191505060405180910390fd5b600060016000613b94612787565b815260200190815260200160002090508060060181600301548260070183600101548460020154848054600181600116156101000203166002900480601f016020809104026020016040519081016040528092919081815260200182805460018160011615610100020316600290048015613c505780601f10613c2557610100808354040283529160200191613c50565b820191906000526020600020905b815481529060010190602001808311613c3357829003601f168201915b50505050509450828054600181600116156101000203166002900480601f016020809104026020016040519081016040528092919081815260200182805460018160011615610100020316600290048015613cec5780601f10613cc157610100808354040283529160200191613cec565b820191906000526020600020905b815481529060010190602001808311613ccf57829003601f168201915b5050505050925095509550955095509550509091929394565b6060600060606000806000613d186137cc565b613d6d576040517f08c379a0000000000000000000000000000000000000000000000000000000008152600401808060200182810382526026815260200180614a416026913960400191505060405180910390fd5b6060600060606000613d7d612787565b90506001600082815260200190815260200160002060080160149054906101000a900467ffffffffffffffff1667ffffffffffffffff168b67ffffffffffffffff1610613e15576040517f08c379a000000000000000000000000000000000000000000000000000000000815260040180806020018281038252602e8152602001806149a5602e913960400191505060405180910390fd5b600160006001600084815260200190815260200160002060050160008e67ffffffffffffffff1667ffffffffffffffff1681526020019081526020016000206000015481526020019081526020016000206006018054600181600116156101000203166002900480601f016020809104026020016040519081016040528092919081815260200182805460018160011615610100020316600290048015613efd5780601f10613ed257610100808354040283529160200191613efd565b820191906000526020600020905b815481529060010190602001808311613ee057829003601f168201915b50505050509350600160006001600084815260200190815260200160002060050160008e67ffffffffffffffff1667ffffffffffffffff168152602001908152602001600020600001548152602001908152602001600020600301549250600160006001600084815260200190815260200160002060050160008e67ffffffffffffffff1667ffffffffffffffff1681526020019081526020016000206000015481526020019081526020016000206007018054600181600116156101000203166002900480601f0160208091040260200160405190810160405280929190818152602001828054600181600116156101000203166002900480156140435780601f1061401857610100808354040283529160200191614043565b820191906000526020600020905b81548152906001019060200180831161402657829003601f168201915b50505050509150506000600160006001600061405d612787565b815260200190815260200160002060050160008e67ffffffffffffffff1667ffffffffffffffff168152602001908152602001600020600001548152602001908152602001600020600101549050600060016000600160006140bd612787565b815260200190815260200160002060050160008f67ffffffffffffffff1667ffffffffffffffff168152602001908152602001600020600001548152602001908152602001600020600201549050600060016000614119612787565b815260200190815260200160002060050160008e67ffffffffffffffff1667ffffffffffffffff16815260200190815260200160002060020160009054906101000a900460ff1690508585858585859b509b509b509b509b509b5050505050505091939550919395565b6000806000905060008090505b6002548110156141cd57836001600083815260200190815260200160002060020154106141c05781806001019250505b8080600101915050614190565b5080915050919050565b600060608060006141e66137cc565b61423b576040517f08c379a0000000000000000000000000000000000000000000000000000000008152600401808060200182810382526026815260200180614a416026913960400191505060405180910390fd5b6000614245612787565b90508560016000838152602001908152602001600020600001541161426957600080fd5b600060016000838152602001908152602001600020600401600088815260200190815260200160002090508060030160009054906101000a900460ff1681600101826002018360000154828054806020026020016040519081016040528092919081815260200182805480156142fe57602002820191906000526020600020905b8154815260200190600101908083116142ea575b50505050509250818054600181600116156101000203166002900480601f01602080910402602001604051908101604052809291908181526020018280546001816001161561010002031660029004801561439a5780601f1061436f5761010080835404028352916020019161439a565b820191906000526020600020905b81548152906001019060200180831161437d57829003601f168201915b50505050509150955095509550955050509193509193565b60006143bc612787565b905060008090505b6001600083815260200190815260200160002060080160149054906101000a900467ffffffffffffffff1667ffffffffffffffff168167ffffffffffffffff161015614626576001600083815260200190815260200160002060050160008267ffffffffffffffff1667ffffffffffffffff168152602001908152602001600020600101544211156146195760006001600084815260200190815260200160002060050160008367ffffffffffffffff1667ffffffffffffffff16815260200190815260200160002060020160006101000a81548160ff021916908315150217905550600160006001600085815260200190815260200160002060050160008467ffffffffffffffff1667ffffffffffffffff16815260200190815260200160002060000154815260200190815260200160002060020160008154809291906001900391905055507f720e4be6adf903d12792c7c0719ca2db973c6a09e15268385f7601f22d67c0a0600160006001600086815260200190815260200160002060050160008567ffffffffffffffff1667ffffffffffffffff168152602001908152602001600020600001548152602001908152602001600020600601604051808060200182810382528381815460018160011615610100020316600290048152602001915080546001816001161561010002031660029004801561460a5780601f106145df5761010080835404028352916020019161460a565b820191906000526020600020905b8154815290600101906020018083116145ed57829003601f168201915b50509250505060405180910390a15b80806001019150506143c4565b5050565b6146326137cc565b614687576040517f08c379a0000000000000000000000000000000000000000000000000000000008152600401808060200182810382526026815260200180614a416026913960400191505060405180910390fd5b8060016000614694612787565b81526020019081526020016000206003018190555050565b600080600090505b60025481101561482457826040516020018080602001828103825283818151815260200191508051906020019080838360005b838110156147025780820151818401526020810190506146e7565b50505050905090810190601f16801561472f5780820380516001836020036101000a031916815260200191505b5092505050604051602081830303815290604052805190602001206001600083815260200190815260200160002060060160405160200180806020018281038252838181546001816001161561010002031660029004815260200191508054600181600116156101000203166002900480156147ec5780601f106147c1576101008083540402835291602001916147ec565b820191906000526020600020905b8154815290600101906020018083116147cf57829003601f168201915b5050925050506040516020818303038152906040528051906020012014156148175780915050614839565b80806001019150506146b4565b506fffffffffffffffffffffffffffffffff90505b919050565b828054600181600116156101000203166002900490600052602060002090601f016020900481019282601f1061487f57805160ff19168380011785556148ad565b828001600101855582156148ad579182015b828111156148ac578251825591602001919060010190614891565b5b5090506148ba919061490b565b5090565b8280548282559060005260206000209081019282156148fa579160200282015b828111156148f95782518255916020019190600101906148de565b5b5090506149079190614930565b5090565b61492d91905b80821115614929576000816000905550600101614911565b5090565b90565b61495291905b8082111561494e576000816000905550600101614936565b5090565b9056fe5f696d616765436f756e7420646f6e74277420657175616c205f686173682e6c656e6774685f617661746172486173682773206c656e677468206d75737420626520626967676572207468616e2030696420737562736372697074696f6e20626967676572207468616e20636f756e7420737562736372697074696f6e5f6c6f67696e2773206c656e677468206d75737420626520626967676572207468616e20305f7374617475732773206c656e677468206d75737420626520626967676572207468616e2030737562736372696265206f6e206d7973656c66206973206e6f74206163636570746564757365727320686176656e2774206163636f756e74202c706c65617365207265676973746572a265627a7a723158204184f7dcb0a42912eb754dad68d98c76ff62db6054713e8471f93b6184c9840364736f6c63430005100032",
  "source": "pragma solidity 0.5.16;\r\n\r\n\r\n\r\n\r\ncontract DecentOF{\r\n     \r\n    \r\n     string  name=\"DecentOF\";\r\n     struct Post{\r\n        uint256  date;\r\n        bytes32[] hash;\r\n        // bytes32 hash;\r\n        string description;\r\n        uint8 imageCount;\r\n        bool visibility;\r\n    }\r\n    struct Subscribe{\r\n        uint256 id;\r\n        uint256 date;\r\n        bool paid;\r\n    }\r\n    function getTime()public view returns(uint256){\r\n         uint256 chainStartTime =uint256( block.timestamp);\r\n         return chainStartTime;\r\n    }\r\n    struct Account{\r\n        uint256 countPosts;\r\n        uint256 priceSubcribe;\r\n        uint256 subscribers;\r\n        bytes32 avatarHash;\r\n        mapping(uint256=>Post) posts;\r\n        mapping(uint64=>Subscribe) subscription;\r\n        string login;\r\n        string status;\r\n        address payable author;\r\n        uint64  countsSubscription;\r\n    }\r\n    mapping(uint256=>Account) internal  accounts;\r\n    uint256 internal accountsCount;\r\n    event Subscribed(\r\n        string login\r\n       );\r\n    event UnSubscribed(\r\n        string login\r\n       );\r\n    \r\n    function isUniqueLogin(string memory _input) public view returns(bool){\r\n        for(uint256 i=0;i<accountsCount;i++){\r\n            if(keccak256(abi.encode(_input)) ==keccak256(abi.encode(accounts[i].login))){\r\n                return false;\r\n            }\r\n        }\r\n        return true;\r\n    }\r\n    modifier _isUniqueLogin(string memory input){\r\n        require(isUniqueLogin(input),\"this login is used\");\r\n        _;\r\n    }\r\n    modifier _loginIsUsed(string memory input){\r\n        require(!isUniqueLogin(input),\"this login dont exist\");\r\n        _;\r\n    }\r\n    \r\n    modifier isOwner(address id){\r\n        require(msg.sender==id,\"Caller is not owner\");\r\n        _;\r\n    }\r\n    function isRegistrated() public view returns(bool){\r\n        for(uint256 i=0;i<accountsCount;i++){\r\n            if(msg.sender==accounts[i].author){\r\n                return true;\r\n            }\r\n        }\r\n        return false;\r\n    }\r\n     modifier _isRegistrated(){\r\n         require(isRegistrated(),\"users haven\\'t account ,please register\");\r\n        _;\r\n    }\r\n    function getMyCountPost()\r\n    _isRegistrated public\r\n    view returns(uint256)\r\n    {\r\n        return accounts[findIdByAddress()].countPosts;\r\n    }\r\n    function getMyPostById(uint256 _index)\r\n    _isRegistrated public\r\n    view returns(uint8 ,\r\n        bytes32[] memory,\r\n        string memory,\r\n        uint256 \r\n        )\r\n    {\r\n        uint256 id =findIdByAddress();\r\n        require(accounts[id].countPosts>_index);\r\n        Post storage post =accounts[id].posts[_index];\r\n        return(post.imageCount,post.hash,post.description,post.date);\r\n    }\r\n    \r\n     function setVisiblePostById(uint256 _index)\r\n    _isRegistrated public\r\n    {\r\n        uint256 id =findIdByAddress();\r\n        require(accounts[id].countPosts>_index,\"dont exist this post\");\r\n        accounts[id].posts[_index].visibility=true;\r\n\r\n    }\r\n    \r\n    function setUnvisiblePostById(uint256 _index)\r\n    _isRegistrated public\r\n    {\r\n        uint256 id =findIdByAddress();\r\n        require(accounts[id].countPosts>_index,\"dont exist this post\");\r\n        accounts[id].posts[_index].visibility=true;\r\n\r\n    }\r\n   \r\n   \r\n     function findIdByAddress() \r\n     public _isRegistrated\r\n     view returns(uint256)\r\n     \r\n     {\r\n        for(uint256 i=0;i<accountsCount;i++){\r\n            if(msg.sender==accounts[i].author){\r\n                return i;\r\n            }\r\n        }\r\n        return uint256(0xFFFFFFFFFFFFFFFFFFFFFFFFFFFFFFFF);\r\n    }\r\n    function registration(string memory _login, bytes32 _avatarHash,string memory _status,uint256 _priceSubcribe) \r\n        public  \r\n        {\r\n        require(bytes(_login).length>0,\"_login's length must be bigger than 0\");\r\n        require((_avatarHash)!=\"\",\"_avatarHash's length must be bigger than 0\");\r\n        require(bytes(_status).length>0,\"_status's length must be bigger than 0\");\r\n        require(!isRegistrated(),\"this user is register\");\r\n        \r\n        Account storage c=accounts[accountsCount++];\r\n        c.login=_login;\r\n        c.avatarHash=_avatarHash;\r\n        c.countPosts=0;\r\n        c.status=_status;\r\n        c.author=(msg.sender);\r\n        c.priceSubcribe=_priceSubcribe;\r\n      \r\n    }\r\n    function newPost(string memory _description,uint8 _imageCount,bytes32[] memory   _hash)\r\n    public  _isRegistrated \r\n    {\r\n        \r\n        require(_imageCount==_hash.length,\"_imageCount dont\\'t equal _hash.length\");\r\n        uint256 id=findIdByAddress();\r\n        // console.log(accounts[findIdByAddress()])\r\n       \r\n        Post storage c=accounts[id].posts[accounts[id].countPosts];\r\n        accounts[id].countPosts++;\r\n        c.description =_description;\r\n        c.date=(uint256(block.timestamp));\r\n        c.visibility=true;\r\n        c.imageCount=_imageCount;\r\n       c.hash = new bytes32[](_imageCount);\r\n        // c.hash=_hash;\r\n        for(uint i = 0;i<_imageCount;i++){\r\n            c.hash[i]=_hash[i];\r\n        }\r\n      //  checkSubscription();\r\n    \r\n    }\r\n     function isSubucriberByLogin(string memory _login)\r\n    public view _isRegistrated\r\n    returns(bool)\r\n    {  \r\n        uint256 id = findIdByAddress();\r\n        \r\n        for(uint64 i = 0;i< accounts[id].countsSubscription;i++){\r\n            if((keccak256(abi.encode(accounts[accounts[id].subscription[i].id].login))==keccak256(abi.encode(_login)))&&(((uint256(block.timestamp))<accounts[id].subscription[i].date)))\r\n                return true;\r\n        }\r\n        return false;\r\n    }\r\n    function getIdByLogin(string memory _login)\r\n    public view _isRegistrated\r\n    returns(uint64)\r\n    {  \r\n        uint256 id = findIdByAddress();\r\n        \r\n        for(uint64 i = 0;i< accounts[id].countsSubscription;i++){\r\n            if((keccak256(abi.encode(accounts[accounts[id].subscription[i].id].login))==keccak256(abi.encode(_login)))&&(((uint256(block.timestamp))<accounts[id].subscription[i].date)))\r\n                return i;\r\n        }\r\n       return uint64(0xFFFFFFFFFFFFFFFF);\r\n    }\r\n    function getMyData()  _isRegistrated\r\n    public view returns(\r\n        string memory,\r\n       bytes32,\r\n        string memory,\r\n        uint256,\r\n        uint256\r\n        ) \r\n    {\r\n        Account  storage  buf= accounts[findIdByAddress()];\r\n      \r\n        return (buf.login,buf.avatarHash,buf.status,buf.priceSubcribe,buf.subscribers);\r\n    }\r\n    \r\n    function getDataByLogin(string memory _login)  \r\n    public view returns(\r\n        string memory,\r\n       bytes32,\r\n        string memory,\r\n        uint256,\r\n        uint256\r\n        ) \r\n    {\r\n        Account  storage  buf= accounts[findIdByLogin(_login)];\r\n      \r\n        return (buf.login,buf.avatarHash,buf.status,buf.priceSubcribe,buf.subscribers);\r\n    }\r\n    function setStatus(string memory input)\r\n    public _isRegistrated\r\n    {\r\n        accounts[findIdByAddress()].status=input;\r\n    }\r\n    function setAvatarHash(bytes32 input)\r\n    public _isRegistrated\r\n    {\r\n        accounts[findIdByAddress()].avatarHash=input;\r\n    }\r\n    function setLogin(string memory input)\r\n    public _isRegistrated _isUniqueLogin(input)\r\n    {\r\n        accounts[findIdByAddress()].login=input;\r\n    }\r\n\r\n    function setPriceSubcribe(uint256 input)\r\n    public _isRegistrated \r\n    {\r\n        accounts[findIdByAddress()].priceSubcribe=input;\r\n    }\r\n    \r\n    \r\n    function getSubscriptions(uint64 _index)_isRegistrated public \r\n    view returns( string memory,\r\n        bytes32,\r\n        string memory,\r\n       // address payable ,\r\n        uint256 ,\r\n        uint256,\r\n        bool\r\n        )\r\n    {\r\n        string memory login;\r\n       bytes32 avatarHash;\r\n        string memory status;\r\n        {\r\n        uint256  id=findIdByAddress();\r\n        require(_index<accounts[id].countsSubscription,\r\n        \"id subscription bigger than count subscription\");\r\n        login=accounts[accounts[id].subscription[_index].id].login;\r\n        avatarHash=accounts[accounts[id].subscription[_index].id].avatarHash;\r\n        status=accounts[accounts[id].subscription[_index].id].status;\r\n        }\r\n        // address payable author=accounts[accounts[findIdByAddress()].subscription[_index].id].author;\r\n        uint256 priceSubcribe=accounts[accounts[findIdByAddress()].subscription[_index].id].priceSubcribe;\r\n        uint256 subscribers=accounts[accounts[findIdByAddress()].subscription[_index].id].subscribers;\r\n        bool paid=accounts[findIdByAddress()].subscription[_index].paid;\r\n        return(login,avatarHash,status,priceSubcribe,subscribers,paid);\r\n    }\r\n    \r\n    \r\n \r\n    \r\n    function getLoginFilterBySubcribe(uint256 _id, uint256 _subscribe)\r\n    public\r\n    view returns(\r\n    string memory\r\n    )\r\n    {\r\n        uint256 j=0;\r\n       \r\n        for(uint256 i = 0 ;i<accountsCount;i++){\r\n            if(accounts[i].subscribers>=_subscribe){\r\n               if(j++==_id){\r\n                   return accounts[i].login;\r\n               }\r\n            }\r\n            \r\n        }\r\n        \r\n    }\r\n  \r\n    function getCountAccountBySubcribe( uint256 _subscribe)\r\n    public\r\n    view returns(uint256)\r\n    {\r\n        uint256 sum=0;\r\n        \r\n        for(uint256 i = 0 ;i<accountsCount;i++){\r\n            if(accounts[i].subscribers>=_subscribe){\r\n                sum++;\r\n            }\r\n        }\r\n        return sum;\r\n    }\r\n  \r\n    function findIdByLogin(string memory _login)\r\n    internal\r\n    view returns(uint256)\r\n    {\r\n        for(uint256 i =0 ;i<accountsCount;i++){\r\n            if(keccak256(abi.encode(accounts[i].login))==keccak256(abi.encode(_login))){\r\n                return i;\r\n            }\r\n        }\r\n        return uint256(0xFFFFFFFFFFFFFFFFFFFFFFFFFFFFFFFF);\r\n    }\r\n    \r\n    function unsubscribe()\r\n    public\r\n    {\r\n        uint256 id = findIdByAddress();\r\n        for(uint64 i = 0;i< accounts[id].countsSubscription;i++){\r\n            if((uint256(block.timestamp))>accounts[id].subscription[i].date){\r\n                accounts[id].subscription[i].paid=false;\r\n                accounts[accounts[id].subscription[i].id].subscribers--;\r\n                emit UnSubscribed(accounts[accounts[id].subscription[i].id].login);\r\n            }\r\n        }\r\n    }\r\n    function getCountSubscriptions()\r\n    public _isRegistrated\r\n    view returns(uint64){\r\n        return accounts[findIdByAddress()].countsSubscription;\r\n    }\r\n    function checkSubscription()\r\n    public view _isRegistrated\r\n    returns(bool)\r\n    {\r\n        uint256 id =findIdByAddress();\r\n        for(uint64 i = 0;i< accounts[id].countsSubscription;i++){\r\n            if((uint256(block.timestamp))>accounts[id].subscription[i].date){\r\n                return false;\r\n            }\r\n        }\r\n        return true;\r\n    }\r\n    function getCountUnsubcribtion()\r\n    public view _isRegistrated\r\n    returns(uint64)\r\n    {  \r\n        uint256 id = findIdByAddress();\r\n        uint64 j=0;\r\n        for(uint64 i = 0;i< accounts[id].countsSubscription;i++){\r\n            if((uint256(block.timestamp))>accounts[id].subscription[i].date){\r\n                \r\n                j++;\r\n            }\r\n        }\r\n        return j;\r\n    }\r\n    function getIdUnsubscriptionByNumber(uint64 _number)\r\n    public view _isRegistrated\r\n    returns(uint64)\r\n    {\r\n        uint256 id =findIdByAddress();\r\n        uint64 j=0;\r\n        for(uint64 i = 0;i< accounts[id].countsSubscription;i++){\r\n            if((uint256(block.timestamp))>accounts[id].subscription[i].date){\r\n                if(_number==j)  {\r\n                    return i;\r\n                }\r\n                j++;\r\n            }\r\n        }\r\n       require(true,\"bad _number\");\r\n    }\r\n    function getSubscriptionCountPostByIdUser(uint64 _idUser)\r\n    public _isRegistrated \r\n    view returns(\r\n        uint256\r\n        )\r\n    {\r\n        uint256 count = accounts[accounts[findIdByAddress()].subscription[_idUser].id].countPosts;\r\n        return count;\r\n    }\r\n    \r\n    function getSubscriptionPostByIdUser(uint64 _idUser,uint256 _idPost)\r\n    public _isRegistrated \r\n    view returns(\r\n        uint8 ,\r\n        bytes32[] memory,\r\n        string memory,\r\n        uint256\r\n        )\r\n    {\r\n        \r\n        uint256 id=findIdByAddress();\r\n        require(_idUser<accounts[id].countsSubscription,\"don\\'t exist user\");\r\n        require(_idPost<accounts[accounts[id].subscription[_idUser].id].countPosts,\"don\\'t exist post \");\r\n        if(accounts[accounts[id].subscription[_idUser].id].posts[_idPost].visibility){\r\n        uint8 imageCount = accounts[accounts[id].subscription[_idUser].id].posts[_idPost].imageCount;\r\n        bytes32[] memory hash = accounts[accounts[id].subscription[_idUser].id].posts[_idPost].hash;\r\n        string memory  description = accounts[accounts[id].subscription[_idUser].id].posts[_idPost].description;\r\n        uint256 date = accounts[accounts[id].subscription[_idUser].id].posts[_idPost].date;\r\n        return(imageCount,hash,description,date);\r\n        }else{\r\n            bytes32[] memory hash = new bytes32[](1);\r\n            string memory  description =\"post delete\";\r\n            uint256 date = accounts[accounts[id].subscription[_idUser].id].posts[_idPost].date;\r\n            return(0,hash,description,date);\r\n        }\r\n    }\r\n    function subscribe(string memory _login,uint8 _count)\r\n    public payable _isRegistrated _loginIsUsed(_login)\r\n    {\r\n        \r\n        require(_count>0,\"_count must be bigger 0\");\r\n       \r\n        require((msg.value) >=(accounts[findIdByLogin(_login)].priceSubcribe*uint256(_count) ),\"need more money\");\r\n        uint256 subscriberId =findIdByAddress();\r\n        uint256 id=findIdByLogin(_login);\r\n        \r\n        require(id!=subscriberId,\"subscribe on myself is not accepted\");\r\n        accounts[subscriberId].subscription[accounts[subscriberId].countsSubscription].id=id;\r\n        accounts[subscriberId].subscription[accounts[subscriberId].countsSubscription].paid=true;\r\n        accounts[subscriberId].subscription[accounts[subscriberId].countsSubscription++].date=(uint256(block.timestamp))+30*24*60*60*_count;\r\n     \r\n        accounts[id].subscribers++;\r\n        accounts[id].author.transfer(msg.value);\r\n        emit Subscribed(accounts[id].login);\r\n        checkSubscription();\r\n    }\r\n    function getName() public view returns(string memory)  {\r\n        return name;\r\n    }\r\n    \r\n    \r\n    // /** We don't want to accept payments without subscription selection */\r\n    // fallback()   external payable {\r\n    //     require(true,\"Plain payments not accepted\");\r\n    // }\r\n    \r\n}",
  "sourcePath": "C:/Users/ilau020203/Desktop/decentonly_fans/contracts/DecentOF.sol",
  "compiler": {
    "name": "solc",
    "version": "0.5.16+commit.9c3226ce.Emscripten.clang"
  },
  "schemaVersion": "3.4.1",
  "updatedAt": "2021-07-30T09:23:52.236Z",
  "networkType": "ethereum",
  "devdoc": {
    "methods": {}
  },
  "userdoc": {
    "methods": {}
  }
}