{
  "contractName": "DecentOF",
  "abi": [
    {
      "anonymous": false,
      "inputs": [
        {
          "indexed": false,
          "internalType": "string",
          "name": "login",
          "type": "string"
        }
      ],
      "name": "Subscribed",
      "type": "event"
    },
    {
      "anonymous": false,
      "inputs": [
        {
          "indexed": false,
          "internalType": "string",
          "name": "login",
          "type": "string"
        }
      ],
      "name": "UnSubscribed",
      "type": "event"
    },
    {
      "constant": true,
      "inputs": [
        {
          "internalType": "string",
          "name": "_input",
          "type": "string"
        }
      ],
      "name": "isUniqueLogin",
      "outputs": [
        {
          "internalType": "bool",
          "name": "",
          "type": "bool"
        }
      ],
      "payable": false,
      "stateMutability": "view",
      "type": "function"
    },
    {
      "constant": true,
      "inputs": [],
      "name": "isRegistrated",
      "outputs": [
        {
          "internalType": "bool",
          "name": "",
          "type": "bool"
        }
      ],
      "payable": false,
      "stateMutability": "view",
      "type": "function"
    },
    {
      "constant": true,
      "inputs": [],
      "name": "getMyCountPost",
      "outputs": [
        {
          "internalType": "uint256",
          "name": "",
          "type": "uint256"
        }
      ],
      "payable": false,
      "stateMutability": "view",
      "type": "function"
    },
    {
      "constant": true,
      "inputs": [
        {
          "internalType": "uint256",
          "name": "_index",
          "type": "uint256"
        }
      ],
      "name": "getMyPostById",
      "outputs": [
        {
          "internalType": "uint8",
          "name": "",
          "type": "uint8"
        },
        {
          "internalType": "string[]",
          "name": "",
          "type": "string[]"
        },
        {
          "internalType": "string",
          "name": "",
          "type": "string"
        },
        {
          "internalType": "uint256",
          "name": "",
          "type": "uint256"
        }
      ],
      "payable": false,
      "stateMutability": "view",
      "type": "function"
    },
    {
      "constant": true,
      "inputs": [],
      "name": "findIdByAddress",
      "outputs": [
        {
          "internalType": "uint256",
          "name": "",
          "type": "uint256"
        }
      ],
      "payable": false,
      "stateMutability": "view",
      "type": "function"
    },
    {
      "constant": false,
      "inputs": [
        {
          "internalType": "string",
          "name": "_login",
          "type": "string"
        },
        {
          "internalType": "string",
          "name": "_avatarHash",
          "type": "string"
        },
        {
          "internalType": "string",
          "name": "_status",
          "type": "string"
        },
        {
          "internalType": "uint256",
          "name": "_priceSubcribe",
          "type": "uint256"
        }
      ],
      "name": "registration",
      "outputs": [],
      "payable": false,
      "stateMutability": "nonpayable",
      "type": "function"
    },
    {
      "constant": false,
      "inputs": [
        {
          "internalType": "string",
          "name": "_description",
          "type": "string"
        },
        {
          "internalType": "uint8",
          "name": "_imageCount",
          "type": "uint8"
        },
        {
          "internalType": "string[]",
          "name": "_hash",
          "type": "string[]"
        }
      ],
      "name": "newPost",
      "outputs": [],
      "payable": false,
      "stateMutability": "nonpayable",
      "type": "function"
    },
    {
      "constant": true,
      "inputs": [],
      "name": "getMyData",
      "outputs": [
        {
          "internalType": "string",
          "name": "",
          "type": "string"
        },
        {
          "internalType": "string",
          "name": "",
          "type": "string"
        },
        {
          "internalType": "string",
          "name": "",
          "type": "string"
        },
        {
          "internalType": "address payable",
          "name": "",
          "type": "address"
        },
        {
          "internalType": "uint256",
          "name": "",
          "type": "uint256"
        }
      ],
      "payable": false,
      "stateMutability": "view",
      "type": "function"
    },
    {
      "constant": false,
      "inputs": [
        {
          "internalType": "string",
          "name": "input",
          "type": "string"
        }
      ],
      "name": "setStatus",
      "outputs": [],
      "payable": false,
      "stateMutability": "nonpayable",
      "type": "function"
    },
    {
      "constant": false,
      "inputs": [
        {
          "internalType": "string",
          "name": "input",
          "type": "string"
        }
      ],
      "name": "setAvatarHash",
      "outputs": [],
      "payable": false,
      "stateMutability": "nonpayable",
      "type": "function"
    },
    {
      "constant": false,
      "inputs": [
        {
          "internalType": "string",
          "name": "input",
          "type": "string"
        }
      ],
      "name": "setLogin",
      "outputs": [],
      "payable": false,
      "stateMutability": "nonpayable",
      "type": "function"
    },
    {
      "constant": true,
      "inputs": [
        {
          "internalType": "bool",
          "name": "reverse",
          "type": "bool"
        }
      ],
      "name": "getMyAllPosts",
      "outputs": [
        {
          "components": [
            {
              "internalType": "uint8",
              "name": "imageCount",
              "type": "uint8"
            },
            {
              "internalType": "string[]",
              "name": "hash",
              "type": "string[]"
            },
            {
              "internalType": "string",
              "name": "description",
              "type": "string"
            },
            {
              "internalType": "uint256",
              "name": "tipAmount",
              "type": "uint256"
            },
            {
              "internalType": "bool",
              "name": "visibility",
              "type": "bool"
            },
            {
              "internalType": "uint256",
              "name": "date",
              "type": "uint256"
            },
            {
              "internalType": "address payable",
              "name": "author",
              "type": "address"
            }
          ],
          "internalType": "struct DecentOF.Post[]",
          "name": "",
          "type": "tuple[]"
        }
      ],
      "payable": false,
      "stateMutability": "view",
      "type": "function"
    },
    {
      "constant": true,
      "inputs": [
        {
          "internalType": "uint64",
          "name": "_index",
          "type": "uint64"
        }
      ],
      "name": "getSubscriptions",
      "outputs": [
        {
          "internalType": "string",
          "name": "",
          "type": "string"
        },
        {
          "internalType": "string",
          "name": "",
          "type": "string"
        },
        {
          "internalType": "string",
          "name": "",
          "type": "string"
        },
        {
          "internalType": "uint256",
          "name": "",
          "type": "uint256"
        },
        {
          "internalType": "uint256",
          "name": "",
          "type": "uint256"
        },
        {
          "internalType": "bool",
          "name": "",
          "type": "bool"
        }
      ],
      "payable": false,
      "stateMutability": "view",
      "type": "function"
    },
    {
      "constant": true,
      "inputs": [
        {
          "internalType": "uint8",
          "name": "_count",
          "type": "uint8"
        },
        {
          "internalType": "uint256",
          "name": "_subscribe",
          "type": "uint256"
        }
      ],
      "name": "getLoginFilterBySubcribe",
      "outputs": [
        {
          "internalType": "string[]",
          "name": "",
          "type": "string[]"
        }
      ],
      "payable": false,
      "stateMutability": "view",
      "type": "function"
    },
    {
      "constant": true,
      "inputs": [
        {
          "internalType": "uint256",
          "name": "_subscribe",
          "type": "uint256"
        }
      ],
      "name": "getCountAccountBySubcribe",
      "outputs": [
        {
          "internalType": "uint256",
          "name": "",
          "type": "uint256"
        }
      ],
      "payable": false,
      "stateMutability": "view",
      "type": "function"
    },
    {
      "constant": true,
      "inputs": [],
      "name": "getCountSubscriptions",
      "outputs": [
        {
          "internalType": "uint64",
          "name": "",
          "type": "uint64"
        }
      ],
      "payable": false,
      "stateMutability": "view",
      "type": "function"
    },
    {
      "constant": true,
      "inputs": [
        {
          "internalType": "uint64",
          "name": "_idUser",
          "type": "uint64"
        }
      ],
      "name": "getSubscriptionCountPostByIdUser",
      "outputs": [
        {
          "internalType": "uint256",
          "name": "",
          "type": "uint256"
        }
      ],
      "payable": false,
      "stateMutability": "view",
      "type": "function"
    },
    {
      "constant": true,
      "inputs": [
        {
          "internalType": "uint64",
          "name": "_idUser",
          "type": "uint64"
        },
        {
          "internalType": "uint256",
          "name": "_idPost",
          "type": "uint256"
        }
      ],
      "name": "getSubscriptionPostByIdUser",
      "outputs": [
        {
          "internalType": "uint8",
          "name": "",
          "type": "uint8"
        },
        {
          "internalType": "string[]",
          "name": "",
          "type": "string[]"
        },
        {
          "internalType": "string",
          "name": "",
          "type": "string"
        },
        {
          "internalType": "uint256",
          "name": "",
          "type": "uint256"
        }
      ],
      "payable": false,
      "stateMutability": "view",
      "type": "function"
    },
    {
      "constant": false,
      "inputs": [
        {
          "internalType": "string",
          "name": "_login",
          "type": "string"
        },
        {
          "internalType": "uint8",
          "name": "_count",
          "type": "uint8"
        }
      ],
      "name": "subscribe",
      "outputs": [],
      "payable": true,
      "stateMutability": "payable",
      "type": "function"
    },
    {
      "constant": true,
      "inputs": [],
      "name": "getName",
      "outputs": [
        {
          "internalType": "string",
          "name": "",
          "type": "string"
        }
      ],
      "payable": false,
      "stateMutability": "view",
      "type": "function"
    }
  ],
  "bytecode": "0x60806040526040518060400160405280600881526020017f446563656e744f46000000000000000000000000000000000000000000000000815250600090805190602001906200005192919062000066565b503480156200005f57600080fd5b5062000115565b828054600181600116156101000203166002900490600052602060002090601f016020900481019282601f10620000a957805160ff1916838001178555620000da565b82800160010185558215620000da579182015b82811115620000d9578251825591602001919060010190620000bc565b5b509050620000e99190620000ed565b5090565b6200011291905b808211156200010e576000816000905550600101620000f4565b5090565b90565b61439680620001256000396000f3fe60806040526004361061011f5760003560e01c8063850171f2116100a0578063d484026d11610064578063d484026d146103ef578063d9c8a38b14610418578063e1942bac14610447578063ebb67e3614610489578063f6eb619c146104c65761011f565b8063850171f2146102f357806392faec011461031e578063936b6f781461035e578063cb7de5711461039b578063d0ce4712146103c45761011f565b80636895b290116100e75780636895b2901461020b578063735f249d146102275780637d2211d6146102645780637dbef2621461028d5780638374c60b146102b65761011f565b806302edf6ad1461012457806317d7de7c1461014f578063278759cd1461017a5780635a704332146101a35780635aedf9ab146101e0575b600080fd5b34801561013057600080fd5b50610139610506565b6040516101469190613ffc565b60405180910390f35b34801561015b57600080fd5b50610164610572565b6040516101719190613d03565b60405180910390f35b34801561018657600080fd5b506101a1600480360361019c91908101906131e6565b610614565b005b3480156101af57600080fd5b506101ca60048036036101c59190810190613194565b6106da565b6040516101d79190613cc6565b60405180910390f35b3480156101ec57600080fd5b506101f5610d07565b6040516102029190614017565b60405180910390f35b610225600480360361022091908101906132d2565b610d87565b005b34801561023357600080fd5b5061024e60048036036102499190810190613433565b6111d7565b60405161025b9190613ca4565b60405180910390f35b34801561027057600080fd5b5061028b600480360361028691908101906131e6565b61134f565b005b34801561029957600080fd5b506102b460048036036102af9190810190613326565b6113cb565b005b3480156102c257600080fd5b506102dd60048036036102d891908101906131e6565b611644565b6040516102ea9190613ce8565b60405180910390f35b3480156102ff57600080fd5b506103086116e1565b6040516103159190613ffc565b60405180910390f35b34801561032a57600080fd5b50610345600480360361034091908101906133f7565b61178b565b6040516103559493929190614032565b60405180910390f35b34801561036a57600080fd5b50610385600480360361038091908101906133ce565b611bcd565b6040516103929190613ffc565b60405180910390f35b3480156103a757600080fd5b506103c260048036036103bd9190810190613227565b611c7f565b005b3480156103d057600080fd5b506103d9611e6c565b6040516103e69190613ce8565b60405180910390f35b3480156103fb57600080fd5b50610416600480360361041191908101906131e6565b611f08565b005b34801561042457600080fd5b5061042d611f84565b60405161043e959493929190613d5c565b60405180910390f35b34801561045357600080fd5b5061046e600480360361046991908101906133ce565b612222565b60405161048096959493929190613dc4565b60405180910390f35b34801561049557600080fd5b506104b060048036036104ab91908101906133a5565b61270a565b6040516104bd9190613ffc565b60405180910390f35b3480156104d257600080fd5b506104ed60048036036104e891908101906133a5565b61275e565b6040516104fd9493929190614032565b60405180910390f35b6000610510611e6c565b61054f576040517f08c379a000000000000000000000000000000000000000000000000000000000815260040161054690613fbc565b60405180910390fd5b6001600061055b6116e1565b815260200190815260200160002060000154905090565b606060008054600181600116156101000203166002900480601f01602080910402602001604051908101604052809291908181526020018280546001816001161561010002031660029004801561060a5780601f106105df5761010080835404028352916020019161060a565b820191906000526020600020905b8154815290600101906020018083116105ed57829003601f168201915b5050505050905090565b61061c611e6c565b61065b576040517f08c379a000000000000000000000000000000000000000000000000000000000815260040161065290613fbc565b60405180910390fd5b8061066581611644565b6106a4576040517f08c379a000000000000000000000000000000000000000000000000000000000815260040161069b90613f5c565b60405180910390fd5b81600160006106b16116e1565b815260200190815260200160002060040190805190602001906106d5929190612dbe565b505050565b60606106e4611e6c565b610723576040517f08c379a000000000000000000000000000000000000000000000000000000000815260040161071a90613fbc565b60405180910390fd5b600061072d6116e1565b90506060600160008381526020019081526020016000206000015460405190808252806020026020018201604052801561078157816020015b61076e612e3e565b8152602001906001900390816107665790505b5090508315610a54576000600160008481526020019081526020016000206000015490505b6000811115610a4e576001600084815260200190815260200160002060010160006001830381526020019081526020016000206040518060e00160405290816000820160009054906101000a900460ff1660ff1660ff16815260200160018201805480602002602001604051908101604052809291908181526020016000905b828210156108e2578382906000526020600020018054600181600116156101000203166002900480601f0160208091040260200160405190810160405280929190818152602001828054600181600116156101000203166002900480156108ce5780601f106108a3576101008083540402835291602001916108ce565b820191906000526020600020905b8154815290600101906020018083116108b157829003601f168201915b505050505081526020019060010190610826565b505050508152602001600282018054600181600116156101000203166002900480601f0160208091040260200160405190810160405280929190818152602001828054600181600116156101000203166002900480156109835780601f1061095857610100808354040283529160200191610983565b820191906000526020600020905b81548152906001019060200180831161096657829003601f168201915b50505050508152602001600382015481526020016004820160009054906101000a900460ff16151515158152602001600582015481526020016006820160009054906101000a900473ffffffffffffffffffffffffffffffffffffffff1673ffffffffffffffffffffffffffffffffffffffff1673ffffffffffffffffffffffffffffffffffffffff1681525050828260016000878152602001908152602001600020600001540381518110610a3557fe5b60200260200101819052508080600190039150506107a6565b50610cfd565b60008090505b6001600084815260200190815260200160002060000154811015610cfb576001600084815260200190815260200160002060010160008281526020019081526020016000206040518060e00160405290816000820160009054906101000a900460ff1660ff1660ff16815260200160018201805480602002602001604051908101604052809291908181526020016000905b82821015610ba8578382906000526020600020018054600181600116156101000203166002900480601f016020809104026020016040519081016040528092919081815260200182805460018160011615610100020316600290048015610b945780601f10610b6957610100808354040283529160200191610b94565b820191906000526020600020905b815481529060010190602001808311610b7757829003601f168201915b505050505081526020019060010190610aec565b505050508152602001600282018054600181600116156101000203166002900480601f016020809104026020016040519081016040528092919081815260200182805460018160011615610100020316600290048015610c495780601f10610c1e57610100808354040283529160200191610c49565b820191906000526020600020905b815481529060010190602001808311610c2c57829003601f168201915b50505050508152602001600382015481526020016004820160009054906101000a900460ff16151515158152602001600582015481526020016006820160009054906101000a900473ffffffffffffffffffffffffffffffffffffffff1673ffffffffffffffffffffffffffffffffffffffff1673ffffffffffffffffffffffffffffffffffffffff1681525050828281518110610ce357fe5b60200260200101819052508080600101915050610a5a565b505b8092505050919050565b6000610d11611e6c565b610d50576040517f08c379a0000000000000000000000000000000000000000000000000000000008152600401610d4790613fbc565b60405180910390fd5b60016000610d5c6116e1565b815260200190815260200160002060030160009054906101000a900467ffffffffffffffff16905090565b610d8f611e6c565b610dce576040517f08c379a0000000000000000000000000000000000000000000000000000000008152600401610dc590613fbc565b60405180910390fd5b81610dd881611644565b15610e18576040517f08c379a0000000000000000000000000000000000000000000000000000000008152600401610e0f90613efc565b60405180910390fd5b600042905060008360ff1611610e63576040517f08c379a0000000000000000000000000000000000000000000000000000000008152600401610e5a90613f1c565b60405180910390fd5b8260ff1660016000610e7487612a32565b81526020019081526020016000206009015402341015610ec9576040517f08c379a0000000000000000000000000000000000000000000000000000000008152600401610ec090613f3c565b60405180910390fd5b6000610ed36116e1565b90506000610ee086612a32565b905081811415610f25576040517f08c379a0000000000000000000000000000000000000000000000000000000008152600401610f1c90613f9c565b60405180910390fd5b806001600084815260200190815260200160002060020160006001600086815260200190815260200160002060030160009054906101000a900467ffffffffffffffff1667ffffffffffffffff1667ffffffffffffffff16815260200190815260200160002060000181905550600180600084815260200190815260200160002060020160006001600086815260200190815260200160002060030160009054906101000a900467ffffffffffffffff1667ffffffffffffffff1667ffffffffffffffff16815260200190815260200160002060020160006101000a81548160ff0219169083151502179055508460ff1662278d000262ffffff16830160016000848152602001908152602001600020600201600060016000868152602001908152602001600020600301600081819054906101000a900467ffffffffffffffff168092919060010191906101000a81548167ffffffffffffffff021916908367ffffffffffffffff16021790555067ffffffffffffffff1667ffffffffffffffff168152602001908152602001600020600101819055508260016000848152602001908152602001600020600a018190555060016000828152602001908152602001600020600701600081548092919060010191905055506001600082815260200190815260200160002060080160009054906101000a900473ffffffffffffffffffffffffffffffffffffffff1673ffffffffffffffffffffffffffffffffffffffff166108fc349081150290604051600060405180830381858888f1935050505015801561117a573d6000803e3d6000fd5b507f3a25bf5bebe58dddd506ced2de5e3aecbcf21c77809a24e8705790311b448d02600160008381526020019081526020016000206004016040516111bf9190613e3a565b60405180910390a16111cf612bb2565b505050505050565b6060600080905060606111e98461270a565b60405190808252806020026020018201604052801561121c57816020015b60608152602001906001900390816112075790505b50905060008090505b600254811015611342578460016000838152602001908152602001600020600701541061133557600160008281526020019081526020016000206004018054600181600116156101000203166002900480601f0160208091040260200160405190810160405280929190818152602001828054600181600116156101000203166002900480156112f65780601f106112cb576101008083540402835291602001916112f6565b820191906000526020600020905b8154815290600101906020018083116112d957829003601f168201915b5050505050828480600101955060ff168151811061131057fe5b60200260200101819052508260ff168660ff16101561133457819350505050611349565b5b8080600101915050611225565b5080925050505b92915050565b611357611e6c565b611396576040517f08c379a000000000000000000000000000000000000000000000000000000000815260040161138d90613fbc565b60405180910390fd5b80600160006113a36116e1565b815260200190815260200160002060060190805190602001906113c7929190612dbe565b5050565b6113d3611e6c565b611412576040517f08c379a000000000000000000000000000000000000000000000000000000000815260040161140990613fbc565b60405180910390fd5b80518260ff1614611458576040517f08c379a000000000000000000000000000000000000000000000000000000000815260040161144f90613e5c565b60405180910390fd5b60006114626116e1565b90504260016000838152602001908152602001600020600a018190555060006001600083815260200190815260200160002060010160006001600085815260200190815260200160002060000154815260200190815260200160002090506001600083815260200190815260200160002060000160008154809291906001019190505550848160020190805190602001906114fe929190612dbe565b5042816005018190555060018160040160006101000a81548160ff021916908315150217905550338160060160006101000a81548173ffffffffffffffffffffffffffffffffffffffff021916908373ffffffffffffffffffffffffffffffffffffffff160217905550838160000160006101000a81548160ff021916908360ff1602179055508360ff166040519080825280602002602001820160405280156115bc57816020015b60608152602001906001900390816115a75790505b508160010190805190602001906115d4929190612e96565b5060008090505b8460ff16811015611634578381815181106115f257fe5b602002602001015182600101828154811061160957fe5b906000526020600020019080519060200190611626929190612dbe565b5080806001019150506115db565b5061163d612bb2565b5050505050565b600080600090505b6002548110156116d6576001600082815260200190815260200160002060040160405160200161167c9190613e3a565b60405160208183030381529060405280519060200120836040516020016116a39190613d03565b6040516020818303038152906040528051906020012014156116c95760009150506116dc565b808060010191505061164c565b50600190505b919050565b600080600090505b600254811015611773576001600082815260200190815260200160002060080160009054906101000a900473ffffffffffffffffffffffffffffffffffffffff1673ffffffffffffffffffffffffffffffffffffffff163373ffffffffffffffffffffffffffffffffffffffff1614156117665780915050611788565b80806001019150506116e9565b506fffffffffffffffffffffffffffffffff90505b90565b6000606080600061179a611e6c565b6117d9576040517f08c379a00000000000000000000000000000000000000000000000000000000081526004016117d090613fbc565b60405180910390fd5b60006117e36116e1565b9050600160006001600084815260200190815260200160002060020160008a67ffffffffffffffff1667ffffffffffffffff16815260200190815260200160002060000154815260200190815260200160002060000154861061187b576040517f08c379a000000000000000000000000000000000000000000000000000000000815260040161187290613fdc565b60405180910390fd5b6000600160006001600085815260200190815260200160002060020160008b67ffffffffffffffff1667ffffffffffffffff168152602001908152602001600020600001548152602001908152602001600020600101600088815260200190815260200160002060000160009054906101000a900460ff1690506060600160006001600086815260200190815260200160002060020160008c67ffffffffffffffff1667ffffffffffffffff1681526020019081526020016000206000015481526020019081526020016000206001016000898152602001908152602001600020600101805480602002602001604051908101604052809291908181526020016000905b82821015611a3b578382906000526020600020018054600181600116156101000203166002900480601f016020809104026020016040519081016040528092919081815260200182805460018160011615610100020316600290048015611a275780601f106119fc57610100808354040283529160200191611a27565b820191906000526020600020905b815481529060010190602001808311611a0a57829003601f168201915b50505050508152602001906001019061197f565b5050505090506060600160006001600087815260200190815260200160002060020160008d67ffffffffffffffff1667ffffffffffffffff16815260200190815260200160002060000154815260200190815260200160002060010160008a81526020019081526020016000206002018054600181600116156101000203166002900480601f016020809104026020016040519081016040528092919081815260200182805460018160011615610100020316600290048015611b3f5780601f10611b1457610100808354040283529160200191611b3f565b820191906000526020600020905b815481529060010190602001808311611b2257829003601f168201915b505050505090506000600160006001600088815260200190815260200160002060020160008e67ffffffffffffffff1667ffffffffffffffff16815260200190815260200160002060000154815260200190815260200160002060010160008b8152602001908152602001600020600501549050838383839850985098509850505050505092959194509250565b6000611bd7611e6c565b611c16576040517f08c379a0000000000000000000000000000000000000000000000000000000008152600401611c0d90613fbc565b60405180910390fd5b60006001600060016000611c286116e1565b815260200190815260200160002060020160008667ffffffffffffffff1667ffffffffffffffff16815260200190815260200160002060000154815260200190815260200160002060000154905080915050919050565b6000845111611cc3576040517f08c379a0000000000000000000000000000000000000000000000000000000008152600401611cba90613ebc565b60405180910390fd5b6000835111611d07576040517f08c379a0000000000000000000000000000000000000000000000000000000008152600401611cfe90613e7c565b60405180910390fd5b6000825111611d4b576040517f08c379a0000000000000000000000000000000000000000000000000000000008152600401611d4290613edc565b60405180910390fd5b611d53611e6c565b15611d93576040517f08c379a0000000000000000000000000000000000000000000000000000000008152600401611d8a90613f7c565b60405180910390fd5b60006001600060026000815480929190600101919050558152602001908152602001600020905084816004019080519060200190611dd2929190612dbe565b5083816005019080519060200190611deb929190612dbe565b506000816000018190555082816006019080519060200190611e0e929190612dbe565b50338160080160006101000a81548173ffffffffffffffffffffffffffffffffffffffff021916908373ffffffffffffffffffffffffffffffffffffffff160217905550600081600701819055508181600901819055505050505050565b600080600090505b600254811015611eff576001600082815260200190815260200160002060080160009054906101000a900473ffffffffffffffffffffffffffffffffffffffff1673ffffffffffffffffffffffffffffffffffffffff163373ffffffffffffffffffffffffffffffffffffffff161415611ef2576001915050611f05565b8080600101915050611e74565b50600090505b90565b611f10611e6c565b611f4f576040517f08c379a0000000000000000000000000000000000000000000000000000000008152600401611f4690613fbc565b60405180910390fd5b8060016000611f5c6116e1565b81526020019081526020016000206005019080519060200190611f80929190612dbe565b5050565b6060806060600080611f94611e6c565b611fd3576040517f08c379a0000000000000000000000000000000000000000000000000000000008152600401611fca90613fbc565b60405180910390fd5b600060016000611fe16116e1565b815260200190815260200160002090506060816004018054600181600116156101000203166002900480601f01602080910402602001604051908101604052809291908181526020018280546001816001161561010002031660029004801561208b5780601f106120605761010080835404028352916020019161208b565b820191906000526020600020905b81548152906001019060200180831161206e57829003601f168201915b505050505090506060826005018054600181600116156101000203166002900480601f01602080910402602001604051908101604052809291908181526020018280546001816001161561010002031660029004801561212c5780601f106121015761010080835404028352916020019161212c565b820191906000526020600020905b81548152906001019060200180831161210f57829003601f168201915b505050505090506060836006018054600181600116156101000203166002900480601f0160208091040260200160405190810160405280929190818152602001828054600181600116156101000203166002900480156121cd5780601f106121a2576101008083540402835291602001916121cd565b820191906000526020600020905b8154815290600101906020018083116121b057829003601f168201915b5050505050905060008460080160009054906101000a900473ffffffffffffffffffffffffffffffffffffffff16905060008560090154905084848484849a509a509a509a509a505050505050509091929394565b60608060606000806000612234611e6c565b612273576040517f08c379a000000000000000000000000000000000000000000000000000000000815260040161226a90613fbc565b60405180910390fd5b606080606060006122826116e1565b90506001600082815260200190815260200160002060030160009054906101000a900467ffffffffffffffff1667ffffffffffffffff168b67ffffffffffffffff1610612304576040517f08c379a00000000000000000000000000000000000000000000000000000000081526004016122fb90613e9c565b60405180910390fd5b600160006001600084815260200190815260200160002060020160008e67ffffffffffffffff1667ffffffffffffffff1681526020019081526020016000206000015481526020019081526020016000206004018054600181600116156101000203166002900480601f0160208091040260200160405190810160405280929190818152602001828054600181600116156101000203166002900480156123ec5780601f106123c1576101008083540402835291602001916123ec565b820191906000526020600020905b8154815290600101906020018083116123cf57829003601f168201915b50505050509350600160006001600084815260200190815260200160002060020160008e67ffffffffffffffff1667ffffffffffffffff1681526020019081526020016000206000015481526020019081526020016000206005018054600181600116156101000203166002900480601f0160208091040260200160405190810160405280929190818152602001828054600181600116156101000203166002900480156124db5780601f106124b0576101008083540402835291602001916124db565b820191906000526020600020905b8154815290600101906020018083116124be57829003601f168201915b50505050509250600160006001600084815260200190815260200160002060020160008e67ffffffffffffffff1667ffffffffffffffff1681526020019081526020016000206000015481526020019081526020016000206006018054600181600116156101000203166002900480601f0160208091040260200160405190810160405280929190818152602001828054600181600116156101000203166002900480156125ca5780601f1061259f576101008083540402835291602001916125ca565b820191906000526020600020905b8154815290600101906020018083116125ad57829003601f168201915b5050505050915050600060016000600160006125e46116e1565b815260200190815260200160002060020160008e67ffffffffffffffff1667ffffffffffffffff168152602001908152602001600020600001548152602001908152602001600020600901549050600060016000600160006126446116e1565b815260200190815260200160002060020160008f67ffffffffffffffff1667ffffffffffffffff1681526020019081526020016000206000015481526020019081526020016000206007015490506000600160006126a06116e1565b815260200190815260200160002060020160008e67ffffffffffffffff1667ffffffffffffffff16815260200190815260200160002060020160009054906101000a900460ff1690508585858585859b509b509b509b509b509b5050505050505091939550919395565b6000806000905060008090505b60025481101561275457836001600083815260200190815260200160002060070154106127475781806001019250505b8080600101915050612717565b5080915050919050565b6000606080600061276d611e6c565b6127ac576040517f08c379a00000000000000000000000000000000000000000000000000000000081526004016127a390613fbc565b60405180910390fd5b60006127b66116e1565b9050856001600083815260200190815260200160002060000154116127da57600080fd5b600060016000838152602001908152602001600020600101600088815260200190815260200160002060000160009054906101000a900460ff1690506060600160008481526020019081526020016000206001016000898152602001908152602001600020600101805480602002602001604051908101604052809291908181526020016000905b8282101561291e578382906000526020600020018054600181600116156101000203166002900480601f01602080910402602001604051908101604052809291908181526020018280546001816001161561010002031660029004801561290a5780601f106128df5761010080835404028352916020019161290a565b820191906000526020600020905b8154815290600101906020018083116128ed57829003601f168201915b505050505081526020019060010190612862565b50505050905060606001600085815260200190815260200160002060010160008a81526020019081526020016000206002018054600181600116156101000203166002900480601f0160208091040260200160405190810160405280929190818152602001828054600181600116156101000203166002900480156129e45780601f106129b9576101008083540402835291602001916129e4565b820191906000526020600020905b8154815290600101906020018083116129c757829003601f168201915b5050505050905060006001600086815260200190815260200160002060010160008b815260200190815260200160002060050154905083838383985098509850985050505050509193509193565b600080600090505b600254811015612b9857600160008281526020019081526020016000206004018054600181600116156101000203166002900480601f016020809104026020016040519081016040528092919081815260200182805460018160011615610100020316600290048015612aee5780601f10612ac357610100808354040283529160200191612aee565b820191906000526020600020905b815481529060010190602001808311612ad157829003601f168201915b505050505073__StringUtils___________________________6346bdca9a9091856040518363ffffffff1660e01b8152600401612b2d929190613d25565b60206040518083038186803b158015612b4557600080fd5b505af4158015612b59573d6000803e3d6000fd5b505050506040513d601f19601f82011682018060405250612b7d91908101906131bd565b15612b8b5780915050612bad565b8080600101915050612a3a565b506fffffffffffffffffffffffffffffffff90505b919050565b6000612bbc6116e1565b905060008090505b6001600083815260200190815260200160002060030160009054906101000a900467ffffffffffffffff1667ffffffffffffffff168167ffffffffffffffff161015612dba576001600083815260200190815260200160002060020160008267ffffffffffffffff1667ffffffffffffffff1681526020019081526020016000206001015460016000848152602001908152602001600020600a01541115612dad5760006001600084815260200190815260200160002060020160008367ffffffffffffffff1667ffffffffffffffff16815260200190815260200160002060020160006101000a81548160ff021916908315150217905550600160006001600085815260200190815260200160002060020160008467ffffffffffffffff1667ffffffffffffffff16815260200190815260200160002060000154815260200190815260200160002060070160008154809291906001900391905055507f720e4be6adf903d12792c7c0719ca2db973c6a09e15268385f7601f22d67c0a0600160006001600086815260200190815260200160002060020160008567ffffffffffffffff1667ffffffffffffffff168152602001908152602001600020600001548152602001908152602001600020600401604051612da49190613e3a565b60405180910390a15b8080600101915050612bc4565b5050565b828054600181600116156101000203166002900490600052602060002090601f016020900481019282601f10612dff57805160ff1916838001178555612e2d565b82800160010185558215612e2d579182015b82811115612e2c578251825591602001919060010190612e11565b5b509050612e3a9190612ef6565b5090565b6040518060e00160405280600060ff16815260200160608152602001606081526020016000815260200160001515815260200160008152602001600073ffffffffffffffffffffffffffffffffffffffff1681525090565b828054828255906000526020600020908101928215612ee5579160200282015b82811115612ee4578251829080519060200190612ed4929190612f1b565b5091602001919060010190612eb6565b5b509050612ef29190612f9b565b5090565b612f1891905b80821115612f14576000816000905550600101612efc565b5090565b90565b828054600181600116156101000203166002900490600052602060002090601f016020900481019282601f10612f5c57805160ff1916838001178555612f8a565b82800160010185558215612f8a579182015b82811115612f89578251825591602001919060010190612f6e565b5b509050612f979190612ef6565b5090565b612fc491905b80821115612fc05760008181612fb79190612fc7565b50600101612fa1565b5090565b90565b50805460018160011615610100020316600290046000825580601f10612fed575061300c565b601f01602090049060005260206000209081019061300b9190612ef6565b5b50565b600082601f83011261302057600080fd5b813561303361302e826140b2565b614085565b9150818183526020840193506020810190508360005b83811015613079578135860161305f88826130ad565b845260208401935060208301925050600181019050613049565b5050505092915050565b600081359050613092816142f7565b92915050565b6000815190506130a7816142f7565b92915050565b600082601f8301126130be57600080fd5b81356130d16130cc826140da565b614085565b915080825260208301602083018583830111156130ed57600080fd5b6130f88382846142a4565b50505092915050565b600082601f83011261311257600080fd5b813561312561312082614106565b614085565b9150808252602083016020830185838301111561314157600080fd5b61314c8382846142a4565b50505092915050565b6000813590506131648161430e565b92915050565b60008135905061317981614325565b92915050565b60008135905061318e8161433c565b92915050565b6000602082840312156131a657600080fd5b60006131b484828501613083565b91505092915050565b6000602082840312156131cf57600080fd5b60006131dd84828501613098565b91505092915050565b6000602082840312156131f857600080fd5b600082013567ffffffffffffffff81111561321257600080fd5b61321e84828501613101565b91505092915050565b6000806000806080858703121561323d57600080fd5b600085013567ffffffffffffffff81111561325757600080fd5b61326387828801613101565b945050602085013567ffffffffffffffff81111561328057600080fd5b61328c87828801613101565b935050604085013567ffffffffffffffff8111156132a957600080fd5b6132b587828801613101565b92505060606132c687828801613155565b91505092959194509250565b600080604083850312156132e557600080fd5b600083013567ffffffffffffffff8111156132ff57600080fd5b61330b85828601613101565b925050602061331c8582860161317f565b9150509250929050565b60008060006060848603121561333b57600080fd5b600084013567ffffffffffffffff81111561335557600080fd5b61336186828701613101565b93505060206133728682870161317f565b925050604084013567ffffffffffffffff81111561338f57600080fd5b61339b8682870161300f565b9150509250925092565b6000602082840312156133b757600080fd5b60006133c584828501613155565b91505092915050565b6000602082840312156133e057600080fd5b60006133ee8482850161316a565b91505092915050565b6000806040838503121561340a57600080fd5b60006134188582860161316a565b925050602061342985828601613155565b9150509250929050565b6000806040838503121561344657600080fd5b60006134548582860161317f565b925050602061346585828601613155565b9150509250929050565b600061347b83836136a4565b905092915050565b600061348f8383613bb6565b905092915050565b6134a08161423b565b82525050565b6134af8161423b565b82525050565b60006134c082614182565b6134ca81856141e6565b9350836020820285016134dc85614142565b8060005b8581101561351857848403895281516134f9858261346f565b9450613504836141bb565b925060208a019950506001810190506134e0565b50829750879550505050505092915050565b600061353582614177565b61353f81856141d5565b93508360208202850161355185614132565b8060005b8581101561358d578484038952815161356e858261346f565b9450613579836141ae565b925060208a01995050600181019050613555565b50829750879550505050505092915050565b60006135aa8261418d565b6135b481856141f7565b9350836020820285016135c685614152565b8060005b8581101561360257848403895281516135e38582613483565b94506135ee836141c8565b925060208a019950506001810190506135ca565b50829750879550505050505092915050565b61361d8161424d565b82525050565b61362c8161424d565b82525050565b600061363d826141a3565b6136478185614219565b93506136578185602086016142b3565b613660816142e6565b840191505092915050565b6000613676826141a3565b613680818561422a565b93506136908185602086016142b3565b613699816142e6565b840191505092915050565b60006136af82614198565b6136b98185614208565b93506136c98185602086016142b3565b6136d2816142e6565b840191505092915050565b6000815460018116600081146136fa576001811461372057613764565b607f600283041661370b8187614219565b955060ff198316865260208601935050613764565b6002820461372e8187614219565b955061373985614162565b60005b8281101561375b5781548189015260018201915060208101905061373c565b80880195505050505b505092915050565b6000613779602583614219565b91507f5f696d616765436f756e7420646f6e74277420657175616c205f686173682e6c60008301527f656e6774680000000000000000000000000000000000000000000000000000006020830152604082019050919050565b60006137df602a83614219565b91507f5f617661746172486173682773206c656e677468206d7573742062652062696760008301527f676572207468616e2030000000000000000000000000000000000000000000006020830152604082019050919050565b6000613845602e83614219565b91507f696420737562736372697074696f6e20626967676572207468616e20636f756e60008301527f7420737562736372697074696f6e0000000000000000000000000000000000006020830152604082019050919050565b60006138ab602583614219565b91507f5f6c6f67696e2773206c656e677468206d75737420626520626967676572207460008301527f68616e20300000000000000000000000000000000000000000000000000000006020830152604082019050919050565b6000613911602683614219565b91507f5f7374617475732773206c656e677468206d757374206265206269676765722060008301527f7468616e203000000000000000000000000000000000000000000000000000006020830152604082019050919050565b6000613977601583614219565b91507f74686973206c6f67696e20646f6e7420657869737400000000000000000000006000830152602082019050919050565b60006139b7601783614219565b91507f5f636f756e74206d7573742062652062696767657220300000000000000000006000830152602082019050919050565b60006139f7600f83614219565b91507f6e656564206d6f7265206d6f6e657900000000000000000000000000000000006000830152602082019050919050565b6000613a37601283614219565b91507f74686973206c6f67696e206973207573656400000000000000000000000000006000830152602082019050919050565b6000613a77601583614219565b91507f74686973207573657220697320726567697374657200000000000000000000006000830152602082019050919050565b6000613ab7602383614219565b91507f737562736372696265206f6e206d7973656c66206973206e6f7420616363657060008301527f74656400000000000000000000000000000000000000000000000000000000006020830152604082019050919050565b6000613b1d602683614219565b91507f757365727320686176656e2774206163636f756e74202c706c6561736520726560008301527f67697374657200000000000000000000000000000000000000000000000000006020830152604082019050919050565b6000613b83601183614219565b91507f646f6e277420657869737420706f7374200000000000000000000000000000006000830152602082019050919050565b600060e083016000830151613bce6000860182613c86565b5060208301518482036020860152613be6828261352a565b91505060408301518482036040860152613c0082826136a4565b9150506060830151613c156060860182613c59565b506080830151613c286080860182613614565b5060a0830151613c3b60a0860182613c59565b5060c0830151613c4e60c0860182613497565b508091505092915050565b613c6281614279565b82525050565b613c7181614279565b82525050565b613c8081614283565b82525050565b613c8f81614297565b82525050565b613c9e81614297565b82525050565b60006020820190508181036000830152613cbe81846134b5565b905092915050565b60006020820190508181036000830152613ce0818461359f565b905092915050565b6000602082019050613cfd6000830184613623565b92915050565b60006020820190508181036000830152613d1d8184613632565b905092915050565b60006040820190508181036000830152613d3f818561366b565b90508181036020830152613d53818461366b565b90509392505050565b600060a0820190508181036000830152613d768188613632565b90508181036020830152613d8a8187613632565b90508181036040830152613d9e8186613632565b9050613dad60608301856134a6565b613dba6080830184613c68565b9695505050505050565b600060c0820190508181036000830152613dde8189613632565b90508181036020830152613df28188613632565b90508181036040830152613e068187613632565b9050613e156060830186613c68565b613e226080830185613c68565b613e2f60a0830184613623565b979650505050505050565b60006020820190508181036000830152613e5481846136dd565b905092915050565b60006020820190508181036000830152613e758161376c565b9050919050565b60006020820190508181036000830152613e95816137d2565b9050919050565b60006020820190508181036000830152613eb581613838565b9050919050565b60006020820190508181036000830152613ed58161389e565b9050919050565b60006020820190508181036000830152613ef581613904565b9050919050565b60006020820190508181036000830152613f158161396a565b9050919050565b60006020820190508181036000830152613f35816139aa565b9050919050565b60006020820190508181036000830152613f55816139ea565b9050919050565b60006020820190508181036000830152613f7581613a2a565b9050919050565b60006020820190508181036000830152613f9581613a6a565b9050919050565b60006020820190508181036000830152613fb581613aaa565b9050919050565b60006020820190508181036000830152613fd581613b10565b9050919050565b60006020820190508181036000830152613ff581613b76565b9050919050565b60006020820190506140116000830184613c68565b92915050565b600060208201905061402c6000830184613c77565b92915050565b60006080820190506140476000830187613c95565b818103602083015261405981866134b5565b9050818103604083015261406d8185613632565b905061407c6060830184613c68565b95945050505050565b6000604051905081810181811067ffffffffffffffff821117156140a857600080fd5b8060405250919050565b600067ffffffffffffffff8211156140c957600080fd5b602082029050602081019050919050565b600067ffffffffffffffff8211156140f157600080fd5b601f19601f8301169050602081019050919050565b600067ffffffffffffffff82111561411d57600080fd5b601f19601f8301169050602081019050919050565b6000819050602082019050919050565b6000819050602082019050919050565b6000819050602082019050919050565b60008190508160005260206000209050919050565b600081519050919050565b600081519050919050565b600081519050919050565b600081519050919050565b600081519050919050565b6000602082019050919050565b6000602082019050919050565b6000602082019050919050565b600082825260208201905092915050565b600082825260208201905092915050565b600082825260208201905092915050565b600082825260208201905092915050565b600082825260208201905092915050565b600082825260208201905092915050565b600061424682614259565b9050919050565b60008115159050919050565b600073ffffffffffffffffffffffffffffffffffffffff82169050919050565b6000819050919050565b600067ffffffffffffffff82169050919050565b600060ff82169050919050565b82818337600083830152505050565b60005b838110156142d15780820151818401526020810190506142b6565b838111156142e0576000848401525b50505050565b6000601f19601f8301169050919050565b6143008161424d565b811461430b57600080fd5b50565b61431781614279565b811461432257600080fd5b50565b61432e81614283565b811461433957600080fd5b50565b61434581614297565b811461435057600080fd5b5056fea365627a7a7231582078c4c5ec3d40a90382300774d77bcb06435a1442a832c940f89d8dd22207987e6c6578706572696d656e74616cf564736f6c63430005100040",
  "source": "pragma solidity 0.5.16;\r\npragma experimental ABIEncoderV2;\r\n\r\nimport \"./library/stringUtils.sol\";\r\n\r\n\r\ncontract DecentOF{\r\n     using StringUtils for string;\r\n    string  name=\"DecentOF\";\r\n    struct Post{\r\n        uint8 imageCount;\r\n        string[] hash;\r\n        string description;\r\n        uint tipAmount;\r\n        bool visibility;\r\n        uint256 date;\r\n        address payable author;\r\n    }\r\n    struct Subscribe{\r\n        uint256 id;\r\n        uint256 date;\r\n        bool paid;\r\n    }\r\n    struct Account{\r\n        uint256 countPosts;\r\n        mapping(uint256=>Post) posts;\r\n        mapping(uint64=>Subscribe) subscription;\r\n        uint64  countsSubscription;\r\n        string login;\r\n        string avatarHash;\r\n        string status;\r\n        uint256 subscribers;\r\n        address payable author;\r\n        uint256 priceSubcribe;\r\n        uint256 date;\r\n    }\r\n    mapping(uint256=>Account) internal  accounts;\r\n    uint256 internal accountsCount;\r\n    event Subscribed(\r\n        string login\r\n       );\r\n    event UnSubscribed(\r\n        string login\r\n       );\r\n    \r\n    function isUniqueLogin(string memory _input) public view returns(bool){\r\n        for(uint256 i=0;i<accountsCount;i++){\r\n            if(keccak256(abi.encode(_input)) ==keccak256(abi.encode(accounts[i].login))){\r\n                return false;\r\n            }\r\n        }\r\n        return true;\r\n    }\r\n    modifier _isUniqueLogin(string memory input){\r\n        require(isUniqueLogin(input),\"this login is used\");\r\n        _;\r\n    }\r\n    modifier _loginIsUsed(string memory input){\r\n        require(!isUniqueLogin(input),\"this login dont exist\");\r\n        _;\r\n    }\r\n    \r\n    modifier isOwner(address id){\r\n        require(msg.sender==id,\"Caller is not owner\");\r\n        _;\r\n    }\r\n    function isRegistrated() public view returns(bool){\r\n        for(uint256 i=0;i<accountsCount;i++){\r\n            if(msg.sender==accounts[i].author){\r\n                return true;\r\n            }\r\n        }\r\n        return false;\r\n    }\r\n     modifier _isRegistrated(){\r\n         require(isRegistrated(),\"users haven\\'t account ,please register\");\r\n        _;\r\n    }\r\n   \r\n   function getMyCountPost()\r\n    _isRegistrated public\r\n    view returns(uint256)\r\n    {\r\n        return accounts[findIdByAddress()].countPosts;\r\n    }\r\n\r\n    function getMyPostById(uint256 _index)\r\n    _isRegistrated public\r\n    view returns(uint8 ,\r\n        string[] memory,\r\n        string memory,\r\n        uint256 \r\n        )\r\n    {\r\n        uint256 id =findIdByAddress();\r\n        require(accounts[id].countPosts>_index);\r\n        uint8 imageCount = accounts[id].posts[_index].imageCount;\r\n        string[] memory hash = accounts[id].posts[_index].hash;\r\n        string memory  description = accounts[id].posts[_index].description;\r\n        uint256 date = accounts[id].posts[_index].date;\r\n        return(imageCount,hash,description,date);\r\n    }\r\n     function findIdByAddress() \r\n     public view returns(uint256)\r\n     {\r\n        for(uint256 i=0;i<accountsCount;i++){\r\n            if(msg.sender==accounts[i].author){\r\n                return i;\r\n            }\r\n        }\r\n        return uint256(0xFFFFFFFFFFFFFFFFFFFFFFFFFFFFFFFF);\r\n    }\r\n    function registration(string memory _login,string memory _avatarHash,string memory _status,uint256 _priceSubcribe) \r\n        public  \r\n        {\r\n        require(bytes(_login).length>0,\"_login's length must be bigger than 0\");\r\n        require(bytes(_avatarHash).length>0,\"_avatarHash's length must be bigger than 0\");\r\n        require(bytes(_status).length>0,\"_status's length must be bigger than 0\");\r\n        require(!isRegistrated(),\"this user is register\");\r\n        \r\n        Account storage c=accounts[accountsCount++];\r\n        c.login=_login;\r\n        c.avatarHash=_avatarHash;\r\n        c.countPosts=0;\r\n        c.status=_status;\r\n        c.author=(msg.sender);\r\n        c.subscribers=0;\r\n        c.priceSubcribe=_priceSubcribe;\r\n    }\r\n    function newPost(string memory _description,uint8 _imageCount,string[] memory _hash)\r\n    public  _isRegistrated \r\n    {\r\n        require(_imageCount==_hash.length,\"_imageCount dont\\'t equal _hash.length\");\r\n        uint256 id=findIdByAddress();\r\n        \r\n        // console.log(accounts[findIdByAddress()])\r\n         \r\n        accounts[id].date=(uint256(block.timestamp));\r\n        Post storage c=accounts[id].posts[accounts[id].countPosts];\r\n        accounts[id].countPosts++;\r\n        c.description =_description;\r\n        c.date=(uint256(block.timestamp));\r\n        c.visibility=true;\r\n        c.author=(msg.sender);\r\n        c.imageCount=_imageCount;\r\n        c.hash = new string[](_imageCount);\r\n        for(uint i =0;i<_imageCount;i++){\r\n            c.hash[i]=_hash[i];\r\n        }\r\n        checkSubscription();\r\n    }\r\n    \r\n    function getMyData()  _isRegistrated\r\n    public view returns(\r\n        string memory,\r\n        string memory,\r\n        string memory,\r\n        address payable,\r\n        uint256\r\n        ) \r\n    {\r\n        Account  storage  buf= accounts[findIdByAddress()];\r\n        string memory login=buf.login;\r\n        string memory avatarHash=buf.avatarHash;\r\n        string memory status=buf.status;\r\n        address payable author=buf.author;\r\n        uint256 priceSubcribe=buf.priceSubcribe;\r\n        return (login,avatarHash,status,author,priceSubcribe);\r\n    }\r\n    \r\n    function setStatus(string memory input)\r\n    public _isRegistrated\r\n    {\r\n        accounts[findIdByAddress()].status=input;\r\n    }\r\n    function setAvatarHash(string memory input)\r\n    public _isRegistrated\r\n    {\r\n        accounts[findIdByAddress()].avatarHash=input;\r\n    }\r\n    function setLogin(string memory input)\r\n    public _isRegistrated _isUniqueLogin(input)\r\n    {\r\n        accounts[findIdByAddress()].login=input;\r\n    }\r\n    \r\n    //to do that\r\n    function getMyAllPosts(bool reverse )\r\n    public  _isRegistrated \r\n    view returns(Post[] memory )  \r\n    {\r\n        uint256  id = findIdByAddress();\r\n        // require(accounts[id].countPosts!=0,\"account haven't post\")\r\n        Post[] memory memoryArray = new Post[](accounts[id].countPosts);\r\n        if(reverse){\r\n            for(uint256  i =  accounts[id].countPosts;i>0;i--){\r\n                memoryArray[accounts[id].countPosts-i] = accounts[id].posts[i-1];\r\n            }\r\n        }else{\r\n             for(uint256  i =0; i < accounts[id].countPosts; i++){\r\n                memoryArray[i] = accounts[id].posts[i];\r\n            }\r\n        }\r\n        return memoryArray;\r\n    }\r\n    \r\n    \r\n    function getSubscriptions(uint64 _index)_isRegistrated public \r\n    view returns( string memory,\r\n        string memory,\r\n        string memory,\r\n       // address payable ,\r\n        uint256 ,\r\n        uint256,\r\n        bool\r\n        )\r\n    {\r\n        string memory login;\r\n        string memory avatarHash;\r\n        string memory status;\r\n        {\r\n        uint256  id=findIdByAddress();\r\n        require(_index<accounts[id].countsSubscription,\r\n        \"id subscription bigger than count subscription\");\r\n        login=accounts[accounts[id].subscription[_index].id].login;\r\n        avatarHash=accounts[accounts[id].subscription[_index].id].avatarHash;\r\n        status=accounts[accounts[id].subscription[_index].id].status;\r\n        }\r\n        // address payable author=accounts[accounts[findIdByAddress()].subscription[_index].id].author;\r\n        uint256 priceSubcribe=accounts[accounts[findIdByAddress()].subscription[_index].id].priceSubcribe;\r\n        uint256 subscribers=accounts[accounts[findIdByAddress()].subscription[_index].id].subscribers;\r\n        bool paid=accounts[findIdByAddress()].subscription[_index].paid;\r\n        return(login,avatarHash,status,priceSubcribe,subscribers,paid);\r\n    }\r\n    \r\n    \r\n    \r\n    \r\n    function getLoginFilterBySubcribe(uint8 _count, uint256 _subscribe)\r\n    public\r\n    view returns(\r\n    string[] memory\r\n    )\r\n    {\r\n        uint8 j=0;\r\n        string[] memory memoryArray= new string[]( getCountAccountBySubcribe( _subscribe));\r\n        for(uint256 i = 0 ;i<accountsCount;i++){\r\n            if(accounts[i].subscribers>=_subscribe){\r\n                memoryArray[j++]=accounts[i].login;\r\n                if( _count<j ){\r\n                    return memoryArray;\r\n                }\r\n            }\r\n            \r\n        }\r\n        return memoryArray;\r\n    }\r\n  \r\n    function getCountAccountBySubcribe( uint256 _subscribe)\r\n    public\r\n    view returns(uint256)\r\n    {\r\n        uint256 sum=0;\r\n        \r\n        for(uint256 i = 0 ;i<accountsCount;i++){\r\n            if(accounts[i].subscribers>=_subscribe){\r\n                sum++;\r\n            }\r\n        }\r\n        return sum;\r\n    }\r\n    \r\n    function findIdByLogin(string memory _login)\r\n    internal\r\n    view returns(uint256)\r\n    {\r\n        for(uint256 i =0 ;i<accountsCount;i++){\r\n            if(accounts[i].login.equal(_login)){\r\n                return i;\r\n            }\r\n        }\r\n        return uint256(0xFFFFFFFFFFFFFFFFFFFFFFFFFFFFFFFF);\r\n    }\r\n    \r\n    function checkSubscription()\r\n    internal\r\n    {\r\n        uint256 id = findIdByAddress();\r\n        for(uint64 i = 0;i< accounts[id].countsSubscription;i++){\r\n            if(accounts[id].date>accounts[id].subscription[i].date){\r\n                accounts[id].subscription[i].paid=false;\r\n                accounts[accounts[id].subscription[i].id].subscribers--;\r\n                emit UnSubscribed(accounts[accounts[id].subscription[i].id].login);\r\n            }\r\n        }\r\n    }\r\n    function getCountSubscriptions()\r\n    public _isRegistrated\r\n    view returns(uint64){\r\n        return accounts[findIdByAddress()].countsSubscription;\r\n    }\r\n    \r\n    function getSubscriptionCountPostByIdUser(uint64 _idUser)\r\n    public _isRegistrated \r\n    view returns(\r\n        uint256\r\n        )\r\n    {\r\n        uint256 count = accounts[accounts[findIdByAddress()].subscription[_idUser].id].countPosts;\r\n        return count;\r\n    }\r\n    \r\n    function getSubscriptionPostByIdUser(uint64 _idUser,uint256 _idPost)\r\n    public _isRegistrated \r\n    view returns(\r\n        uint8 ,\r\n        string[] memory,\r\n        string memory,\r\n        uint256\r\n        )\r\n    {\r\n        \r\n        uint256 id=findIdByAddress();\r\n     //   require(_idUser<accounts[id].countsSubscription,\"don\\'t exist post\");//to do this require\r\n        require(_idPost<accounts[accounts[id].subscription[_idUser].id].countPosts,\"don\\'t exist post \");\r\n        \r\n        uint8 imageCount = accounts[accounts[id].subscription[_idUser].id].posts[_idPost].imageCount;\r\n        string[] memory hash = accounts[accounts[id].subscription[_idUser].id].posts[_idPost].hash;\r\n        string memory  description = accounts[accounts[id].subscription[_idUser].id].posts[_idPost].description;\r\n        uint256 date = accounts[accounts[id].subscription[_idUser].id].posts[_idPost].date;\r\n        return(imageCount,hash,description,date);\r\n    }\r\n    function subscribe(string memory _login,uint8 _count)\r\n    public payable _isRegistrated _loginIsUsed(_login)\r\n    {\r\n        uint256 _date=uint256(block.timestamp);\r\n        require(_count>0,\"_count must be bigger 0\");\r\n        require(msg.value>=accounts[findIdByLogin(_login)].priceSubcribe*uint256(_count),\"need more money\");\r\n        uint256 subscriberId =findIdByAddress();\r\n        uint256 id=findIdByLogin(_login);\r\n        \r\n        require(id!=subscriberId,\"subscribe on myself is not accepted\");\r\n        accounts[subscriberId].subscription[accounts[subscriberId].countsSubscription].id=id;\r\n        accounts[subscriberId].subscription[accounts[subscriberId].countsSubscription].paid=true;\r\n        accounts[subscriberId].subscription[accounts[subscriberId].countsSubscription++].date=_date+30*24*60*60*_count;\r\n        accounts[subscriberId].date=_date;\r\n        accounts[id].subscribers++;\r\n        accounts[id].author.transfer(msg.value);\r\n        emit Subscribed(accounts[id].login);\r\n        checkSubscription();\r\n    }\r\n    function getName() public view returns(string memory)  {\r\n        return name;\r\n    }\r\n    \r\n    \r\n    // /** We don't want to accept payments without subscription selection */\r\n    // fallback()   external payable {\r\n    //     require(true,\"Plain payments not accepted\");\r\n    // }\r\n    \r\n}",
  "sourcePath": "C:/Users/ilau020203/Desktop/decentonly_fans/contracts/DecentOF.sol",
  "compiler": {
    "name": "solc",
    "version": "0.5.16+commit.9c3226ce.Emscripten.clang"
  },
  "schemaVersion": "3.4.1",
  "updatedAt": "2021-06-22T16:34:36.697Z",
  "networkType": "ethereum",
  "devdoc": {
    "methods": {}
  },
  "userdoc": {
    "methods": {}
  }
}